:1000000083C300009EC300009CC300009AC300008D
:1000100098C3000096C3000094C3000092C3000080
:1000200090C30000BAC600008CC300008AC3000061
:1000300088C3000086C3000084C3000082C30000A0
:1000400080C300007EC300007CC300007AC30000B0
:10005000EBC6000014C7000074C3000072C30000A8
:1000600070C300006EC300006CC300006AC30000D0
:1000700068C3000066C3000064C3000062C30000E0
:1000800060C300005EC300005CC3000050726F6A72
:100090006563742030343A0D0A004444532D53698B
:1000A000676E616C67656E657261746F720D0A00D0
:1000B0004D656D626572733A0D0A004C6920587582
:1000C000656A696E670D0A005A68616E6720597526
:1000D000650D0A0057616E672053686968616E6735
:1000E0000D0A006C6566742020414443203D2020A9
:1000F000200D0A0A00726967687420414443203D5C
:100100002020200D0A0A00000000000000003E45EB
:1001100051453E003E6B6F6B3E001C3E7C3E1C001A
:10012000183C7E3C180030367F363000185C7E5C10
:1001300018000000000000000000000000000000A7
:100140000000000000000000000030484A360E00A9
:10015000062979290600000000000000607E0A35AB
:100160003F002A1C361C2A00007F3E1C0800081C89
:100170003E7F000014367F361400005F005F0000F1
:1001800006097F017F00224D5559220060606060A2
:10019000000014B6FFB6140004067F0604001030F9
:1001A0007F30100008083E1C0800081C3E080800AC
:1001B000784040404000083E083E0800303C3F3C4C
:1001C0003000030F3F0F0300000000000000000696
:1001D0005F060000070300070300247E247E24003E
:1001E000242B6A120000631308646300364956200A
:1001F0005000000703000000003E410000000041E5
:100200003E000000083E1C3E080008083E080800AA
:1002100000E06000000008080808080000606000B6
:1002200000002010080402003E5149453E000042F3
:100230007F40000062514949460022494949360041
:100240001814127F10002F49494931003C4A49498E
:100250003000017109050300364949493600064955
:1002600049291E00006C6C00000000EC6C000000CE
:1002700008142241000024242424240000412214D4
:1002800008000201590906003E415D551E007E111D
:1002900011117E007F49494936003E41414122000B
:1002A0007F4141413E007F49494941007F09090999
:1002B00001003E4149497A007F0808087F0000415B
:1002C0007F410000304040403F007F081422410041
:1002D0007F40404040007F0204027F007F0204080C
:1002E0007F003E4141413E007F09090906003E4131
:1002F00051215E007F0909196600264949493200EB
:1003000001017F0101003F4040403F001F2040208D
:100310001F003F403C403F0063140814630007087F
:1003200070080700714945430000007F414100000B
:100330000204081020000041417F00000402010275
:10034000048080808080800000030700000020542B
:10035000545478007F4444443800384444442800CE
:10036000384444447F00385454540800087E090936
:10037000000018A4A4A47C007F04047800000000FE
:100380007D4000004080847D00007F1028440000F4
:1003900000007F4000007C04180478007C0404788E
:1003A0000000384444443800FC4444443800384495
:1003B0004444FC0044784404080008545454200089
:1003C000043E442400003C40207C00001C204020CF
:1003D0001C003C6030603C006C10106C00009CA065
:1003E000603C00006454544C0000083E4141000051
:1003F0000000770000000041413E080002010201B8
:1004000000003C2623263C001EA1E12112003D40B5
:10041000207D00003854545509002055555578006A
:10042000205554557800205555547800205755577D
:1004300078001CA2E22214003855555508003855A2
:100440005455080038555554080000017C410000FF
:1004500000017D41000000017C400000702924293A
:100460007000782F252F78007C5454554500345463
:100470007C5458007E097F494900384545390000C1
:100480003845443900003945443800003C41217D5D
:1004900000003D41207C00009CA1603D00003D42E9
:1004A000423D00003C41403D0080706858380400E7
:1004B000483E494962007E615D433F0022140814B2
:1004C000220040887E090200205455557800000023
:1004D0007D4100003844453900003C40217D00004A
:1004E0007A090A7100007A112279000008555555E1
:1004F0005E004E51514E000030484D40203E415D5F
:100500004B553E04040404041C0017084C6A5000B8
:100510001708342A780000307D30000008140008E5
:1005200014001408001408441144114411AA55AAD7
:1005300055AA55BBEEBBEEBBEE000000FF00000865
:100540000808FF000000702825297000702925295F
:10055000700070292528703E415D55413E0AFB0020
:10056000FF000000FF00FF00000AFA02FE00000A80
:100570000B080F000000182466240000292A7C2A9A
:1005800029080808F800000000000F0808080808FB
:100590000F0808080808F80808000000FF08080805
:1005A0000808080808080808FF08080020565556DB
:1005B0007900702A252A71000F080B0A0A00FE0232
:1005C000FA0A0A0A0B080B0A0A0AFA02FA0A0A00CD
:1005D000FF00FB0A0A0A0A0A0A0A0A0AFB00FB0AC7
:1005E0000A005D2222225D00225559300000087F5A
:1005F00049413E007C55555544007C5554554400B6
:100600007C555554440000000700000000447D451F
:10061000000000457D45000000457C4500080808B5
:100620000F0000000000F80808FFFFFFFFFFFFF0C9
:10063000F0F0F0F0F00000007700000000457D448D
:10064000000F0F0F0F0F0F003C42433D0000FE4A0A
:100650004A3400003C43433D00003D43423C00001F
:1006600032494A3100003A4546390000FC20201C3E
:100670000000FEAA28100000FFA5241800003C403E
:10068000413D00003C41413D00003D41403C0000F7
:100690009CA0613D000004087109040000020202F0
:1006A0000000000703000000000808080000002404
:1006B0002E240000242424242405170A342A780038
:1006C00006097F017F00224D5559220008082A089B
:1006D00008000008181800000609090600000008B4
:1006E00000080000000800000000020F00000000E9
:1006F000090F05000000090D0A0000003C3C3C3CCD
:10070000000000000000000011241FBECFEFD0E465
:10071000DEBFCDBF11E0A0E0B1E0E2E9F2E100E030
:100720000BBF02C007900D92A430B107D9F725E0A6
:10073000A4E0B1E001C01D92AA36B207E1F725D1CD
:10074000A6C55ECC85E190D28CE890E043D28AE9E0
:1007500090E040D280EB90E03DD28BEB90E03AD23B
:1007600088EC90E037D284ED90E034D275D167E028
:1007700084E141D280E1D0D16FD10399FECF039BB8
:10078000FECF2FEF89EF90E0215080409040E1F7BD
:1007900000C000000399FECF08958AB18C658AB924
:1007A0008BB1837A8BB908958BB1877E8BB95E98B4
:1007B0008AE18A95F1F700C05E9A8AE18A95F1F79D
:1007C00000C05E988AE18A95F1F700C05B988AE1E3
:1007D0008A95F1F700C05B9A8AE18A95F1F700C02B
:1007E0005B988AE18A95F1F700C05A985C988AE193
:1007F0008A95F1F700C05C9A8AE18A95F1F700C00A
:100800005C988AE18A95F1F700C0089520E030E015
:100810004AE754E474D32FE632E143E05CE491D438
:10082000D6D3562F472FF82FE92F5C9828E030E0D9
:1008300050FF02C05A9A01C05A985B9A5B9856952D
:1008400021503109A9F728E030E040FF02C05A9A50
:1008500001C05A985B9A5B98469521503109A9F7D7
:100860008F2F28E030E080FF02C05A9A01C05A98CA
:100870005B9A5B988695869521503109A1F72E2FBA
:1008800088E090E020FF02C05A9A01C05A985B9A13
:100890005B9826950197B1F788E090E05A985B9AAB
:1008A0005B980197D9F75C9A8AE18A95F1F700C0C5
:1008B0005C98089580E480937C0086E880937A00B9
:1008C0000895ECE7F0E090818770987F982B9083F3
:1008D000EAE7F0E0808180648083808186FDFDCF3F
:1008E0002091780030917900822F932F0895CF9333
:1008F000DF93CDB7DEB72A970FB6F894DEBF0FBEF1
:10090000CDBFECD080E1B0D1D5DF60E080E073D125
:1009100083EE90E05FD185EF90E05CD12FEF80E730
:1009200092E0215080409040E1F700C0000081E05B
:10093000C8DF7C0182E0C5DF8C014AE050E0BE01E7
:100940006F5F7F4FC70160D460E08CE054D1CE016F
:10095000019632D14AE050E0BE016F5F7F4FC8017F
:1009600053D462E08CE047D1CE01019625D1CE016F
:100970000196BAD271D02FEF81EE94E021508040E1
:100980009040E1F700C00000D2CF81B1877081B9FB
:1009900082B1886F82B98FE084B985B18F6085B9E3
:1009A0003FD11DD2CFDEF9DEFFDE609100017091F4
:1009B0000101809102019091030135D327DF7ADF95
:1009C00096DF249A2C9A5CC1FC01A281B3818D919F
:1009D0009681915019F49181A91BB109B383A28327
:1009E00096839FB7F8942081215020839FBF08955C
:1009F000FC01108275836483738362834183478320
:100A000046830895FC012081222321F0DDDF282F79
:100A100030E002C02FEF3FEF822F932F0895FC01AB
:100A2000908181819817A0F4A481B5816D9387810D
:100A3000815019F48181A81BB1098783B583A483F0
:100A40008FB7F89490819F5F90838FBF81E0089566
:100A500080E0089527C10895CF92DF92EF921F930F
:100A6000CF93DF93EFB6F8940F2EF7E0CF2ED12C73
:100A7000F02D8C2DE6012091060130E00C2C02C0F7
:100A8000359527950A94E2F720FF1AC046984798B3
:100A9000806BE0DF80E1DEDF80E0DCDF479A10E0A2
:100AA000D695DC2FCC27D795C795FE01E10FF11D18
:100AB000E65FFE4F8081CEDF1F5F1038B1F7469AA8
:100AC00081E0C81AD108A8F610920601EFBEDF91A6
:100AD000CF911F91EF90DF90CF90089520E030E00C
:100AE00050E00EC0FC01E40FF11DE65FFE4F1082E6
:100AF0004F5F4038B9F72F5F3F4F2830310541F045
:100B0000452FC9019695982F882797958795EACF05
:100B10008FEF80930601A0CF8A3029F08D3061F4E9
:100B200010920501089580910401873008F043C0B8
:100B30008F5F809304010895909104012091050135
:100B400030E0D901AA0FBB1F2A0F3B1FD901AA0F02
:100B5000BB1F20E8929FA00DB11D1124A65FBE4FC0
:100B600020E030E090E0AC01440F551F840F951F4A
:100B7000880F991FFC01E20FF31FE95FFE4FE4911C
:100B8000ED932F5F3F4F26303105A1F781E090E0D4
:100B90000090040102C0880F991F0A94E2F7909117
:100BA0000601892B8093060180910501843118F498
:100BB0008F5F809305010895CF93DF93EC018881C7
:100BC000882329F08991A8DF88818111FBCFDF91EB
:100BD000CF910895CF93DF93FC018491EF0121968B
:100BE000882331F099DFFE01849121968111FACF9B
:100BF000DF91CF91089580930501609304010895DA
:100C00006AD084EC85D081E1A2D080E0A0D080E0E1
:100C10009ED080E09CD080E09AD080E098D0B6C092
:100C2000CF932ED087B1806C87B9CFB7F89447980F
:100C3000469882EE0FDF83EA0DDF81E80BDF88E064
:100C400009DF80EA07DF88EC05DF85E203DF8FE25A
:100C500001DF8FEAFFDE469A479A40DFCFBF27D0F9
:100C6000CFDFAFDECF910895CF93C82F34D084EC7F
:100C70004FD085E16CD08C2F6AD088D0CF91089569
:100C80008091070180FD0DC084B1806A84B980E540
:100C90008CBD81E08DBD81E090E090930801809350
:100CA000070108958EBD0DB407FEFDCF089587B1ED
:100CB0008C7F87B988B1836088B983E08093B8005E
:100CC00087E08093B10082E0809370008DE780938D
:100CD000B300789408958AE08093090184EA8093B0
:100CE000BC00ECEBF0E080910901882319F08081D1
:100CF0008823CCF780910901882329F02091B9003D
:100D0000287F30E002C02FEF3FEF822F932F08950E
:100D10009AE0909309018093BB0084E88093BC0023
:100D2000ECEBF0E080910901882319F080818823A1
:100D3000CCF780910901882329F02091B900287F00
:100D400030E002C02FEF3FEF822F932F08959AE0FB
:100D5000909309018093BB0084E88093BC00ECEB86
:100D6000F0E080910901882319F080818823CCF775
:100D700080910901882329F02091B900287F30E073
:100D800002C02FEF3FEF822F932F08958AE08093C8
:100D9000090184E98093BC0008951F920F920FB659
:100DA0000F9211240BB60F928F93EF93FF93E3EB07
:100DB000F0E080818358808380910901882329F0A5
:100DC00080910901815080930901FF91EF918F91EA
:100DD0000F900BBE0F900FBE0F901F9018952FB75E
:100DE000F89487E690E09093C5008093C40088E96A
:100DF0008093C10080EC8093C0002FBF40E16AE582
:100E000075E082E595E0F4DD40E462E175E08AE0BA
:100E100095E0EECD682F8AE095E001DEE1ECF0E0B0
:100E200090819062908308951F920F920FB60F9257
:100E300011240BB60F922F933F934F935F936F93B1
:100E40007F938F939F93AF93BF93EF93FF936091A3
:100E5000C60082E595E0E3DDFF91EF91BF91AF9190
:100E60009F918F917F916F915F914F913F912F91C2
:100E70000F900BBE0F900FBE0F901F9018951F92F2
:100E80000F920FB60F9211240BB60F922F933F9330
:100E90004F935F936F937F938F939F93AF93BF9382
:100EA000EF93FF9380910A05882331F08AE095E063
:100EB000A9DD8093C60005C0E1ECF0E080818F7D64
:100EC0008083FF91EF91BF91AF919F918F917F911F
:100ED0006F915F914F913F912F910F900BBE0F90AB
:100EE0000FBE0F901F901895CF93DF93EC01888170
:100EF00091DF89918111FBCFDF91CF9108950CD0C3
:100F0000E6C0DED040F0D5D030F021F45F3F19F0DC
:100F1000C7C0511110C1CAC0EBD098F39923C9F3CF
:100F20005523B1F3951B550BBB27AA2762177307EF
:100F3000840738F09F5F5F4F220F331F441FAA1FA3
:100F4000A9F333D00E2E3AF0E0E830D09150504063
:100F5000E695001CCAF729D0FE2F27D0660F771F11
:100F6000881FBB1F261737074807AB07B0E809F0F3
:100F7000BB0B802DBF01FF2793585F4F2AF09E3F88
:100F8000510568F08DC0D7C05F3FECF3983EDCF3AD
:100F9000869577956795B795F7959F5FC9F7880F01
:100FA000911D9695879597F90895E1E0660F771F53
:100FB000881FBB1F621773078407BA0720F0621BE4
:100FC000730B840BBA0BEE1F88F7E095089598D049
:100FD00088F09F5790F0B92F9927B751A0F0D1F022
:100FE000660F771F881F991F1AF0BA95C9F712C0AC
:100FF000B13081F09FD0B1E008959CC0672F782F69
:101000008827B85F39F0B93FCCF386957795679517
:10101000B395D9F73EF490958095709561957F4F83
:101020008F4F9F4F0895E89409C097FB3EF4909529
:101030008095709561957F4F8F4F9F4F9923A9F0B1
:10104000F92F96E9BB279395F69587957795679540
:10105000B795F111F8CFFAF4BB0F11F460FF1BC084
:101060006F5F7F4F8F4F9F4F16C0882311F096E917
:1010700011C0772321F09EE8872F762F05C06623C5
:1010800071F096E8862F70E060E02AF09A95660F7E
:10109000771F881FDAF7880F9695879597F9089537
:1010A00097F99F6780E870E060E008959FEF80EC1B
:1010B000089500240A9416161706180609060895BE
:1010C00000240A9412161306140605060895092E24
:1010D0000394000C11F4882352F0BB0F40F4BF2B93
:1010E00011F460FF04C06F5F7F4F8F4F9F4F0895D3
:1010F00057FD9058440F551F59F05F3F71F04795C9
:10110000880F97FB991F61F09F3F79F087950895AD
:10111000121613061406551FF2CF4695F1DF08C0CC
:10112000161617061806991FF1CF869571056105E9
:1011300008940895E894BB2766277727CB0197F991
:1011400008950BD0C4CFB5DF28F0BADF18F095238F
:1011500009F0A6CFABCF1124EECFCADFA0F3959F45
:10116000D1F3950F50E0551F629FF001729FBB278E
:10117000F00DB11D639FAA27F00DB11DAA1F649F3A
:101180006627B00DA11D661F829F2227B00DA11DED
:10119000621F739FB00DA11D621F839FA00D611D73
:1011A000221F749F3327A00D611D231F849F600D94
:1011B000211D822F762F6A2F11249F5750408AF0CD
:1011C000E1F088234AF0EE0FFF1FBB1F661F771F59
:1011D000881F91505040A9F79E3F510570F060CF95
:1011E000AACF5F3FECF3983EDCF386957795679541
:1011F000B795F795E7959F5FC1F7FE2B880F911D77
:101200009695879597F90895FB019F01E8944230E0
:10121000BCF04532ACF44A3029F497FB1EF49095AB
:1012200081959F4F642F77271ED0805D8A330CF005
:10123000895D8193CB010097A9F716F45DE2519384
:101240001082C90100C0DC01FC01672F7191772376
:10125000E1F7329704C07C916D9370836291AE1771
:10126000BF07C8F30895AA1BBB1B51E107C0AA1F03
:10127000BB1FA617B70710F0A61BB70B881F991F37
:101280005A95A9F780959095BC01CD010895F894E1
:02129000FFCF8E
:041292001027000021
:0400000300000744AE
:00000001FF
