:100000008BC30000A6C30000A4C30000A2C300006D
:10001000A0C300009EC300009CC300009AC3000060
:1000200098C3000032C5000094C3000092C30000D2
:1000300090C300008EC300008CC300008AC3000080
:1000400088C3000086C3000084C3000082C3000090
:100050003EC500007EC300008BC500007AC30000CF
:1000600078C3000076C3000074C3000072C30000B0
:10007000CEC500006EC300001BC600006AC30000AE
:1000800068C3000066C3000064C3000000000000F5
:100090000000003E4551453E003E6B6F6B3E001C2C
:1000A0003E7C3E1C00183C7E3C180030367F3630CB
:1000B00000185C7E5C1800000000000000000000DA
:1000C0000000000000000000000000000000003000
:1000D000484A360E00062979290600000000000073
:1000E00000607E0A353F002A1C361C2A00007F3E35
:1000F0001C0800081C3E7F000014367F36140000E8
:100100005F005F000006097F017F00224D555922E4
:100110000060606060000014B6FFB6140004067F43
:1001200006040010307F30100008083E1C0800084C
:100130001C3E080800784040404000083E083E0849
:1001400000303C3F3C3000030F3F0F030000000035
:1001500000000000065F06000007030007030024FC
:100160007E247E2400242B6A12000063130864633B
:1001700000364956205000000703000000003E41B1
:1001800000000000413E000000083E1C3E08000840
:10019000083E08080000E0600000000808080808A1
:1001A000000060600000002010080402003E514979
:1001B000453E0000427F400000625149494600220E
:1001C00049494936001814127F10002F4949493116
:1001D000003C4A494930000171090503003649498C
:1001E000493600064949291E00006C6C00000000D9
:1001F000EC6C000000081422410000242424242474
:10020000000041221408000201590906003E415D28
:10021000551E007E1111117E007F49494936003E6E
:1002200041414122007F4141413E007F49494941CE
:10023000007F09090901003E4149497A007F080809
:10024000087F0000417F410000304040403F007F78
:1002500008142241007F40404040007F0204027F9A
:10026000007F0204087F003E4141413E007F0909B2
:100270000906003E4151215E007F090919660026EA
:10028000494949320001017F0101003F4040403FA0
:10029000001F2040201F003F403C403F00631408E7
:1002A0001463000708700807007149454300000007
:1002B0007F414100000204081020000041417F00FE
:1002C0000004020102048080808080800000030717
:1002D0000000002054545478007F444444380038CF
:1002E0004444442800384444447F0038545454085B
:1002F00000087E0909000018A4A4A47C007F04045F
:1003000078000000007D4000004080847D00007F78
:10031000102844000000007F4000007C041804788E
:10032000007C0404780000384444443800FC444411
:1003300044380038444444FC00447844040800082D
:100340005454542000043E442400003C40207C00CF
:10035000001C2040201C003C6030603C006C1010F1
:100360006C00009CA0603C00006454544C000008E9
:100370003E414100000000770000000041413E087E
:10038000000201020100003C2623263C001EA1E1E0
:100390002112003D40207D000038545455090020B2
:1003A00055555578002055545578002055555478AA
:1003B000002057555778001CA2E2221400385555EA
:1003C0005508003855545508003855555408000054
:1003D000017C41000000017D41000000017C4000E3
:1003E00000702924297000782F252F78007C545420
:1003F00055450034547C5458007E097F49490038E3
:100400004545390000384544390000394544380035
:10041000003C41217D00003D41207C00009CA1600A
:100420003D00003D42423D00003C41403D008070A7
:100430006858380400483E494962007E615D433F88
:100440000022140814220040887E0902002054551E
:1004500055780000007D4100003844453900003CDB
:1004600040217D00007A090A7100007A112279008A
:1004700000085555555E004E51514E000030484D14
:1004800040203E415D4B553E04040404041C00170B
:10049000084C6A50001708342A780000307D30007C
:1004A0000008140008140014080014084411441132
:1004B0004411AA55AA55AA55BBEEBBEEBBEE0000EF
:1004C00000FF0000080808FF0000007028252970C0
:1004D0000070292529700070292528703E415D553E
:1004E000413E0AFB00FF000000FF00FF00000AFA87
:1004F00002FE00000A0B080F00000018246624000A
:1005000000292A7C2A29080808F800000000000FAA
:1005100008080808080F0808080808F80808000074
:1005200000FF0808080808080808080808FF080865
:1005300000205655567900702A252A71000F080BA5
:100540000A0A00FE02FA0A0A0A0B080B0A0A0AFA49
:1005500002FA0A0A00FF00FB0A0A0A0A0A0A0A0A41
:100560000AFB00FB0A0A005D2222225D0022555987
:10057000300000087F49413E007C55555544007CC1
:1005800055545544007C5555544400000007000064
:100590000000447D45000000457D45000000457C8D
:1005A00045000808080F0000000000F80808FFFFD9
:1005B000FFFFFFFFF0F0F0F0F0F000000077000028
:1005C0000000457D44000F0F0F0F0F0F003C42430A
:1005D0003D0000FE4A4A3400003C43433D00003DDC
:1005E00043423C000032494A3100003A4546390056
:1005F00000FC20201C0000FEAA28100000FFA524FB
:100600001800003C40413D00003C41413D00003DA0
:1006100041403C00009CA0613D00000408710904B9
:1006200000000202020000000703000000000808AA
:1006300008000000242E240000242424242405176C
:100640000A342A780006097F017F00224D5559227D
:100650000008082A08080000081818000006090900
:10066000060000000800080000000800000000026A
:100670000F00000000090F05000000090D0A00002E
:10068000003C3C3C3C0000000000000020202020FA
:1006900020204B487A005468652046726571756564
:1006A0006E6365206973742020200D0A0A00746847
:1006B00065206672657175656E63650D0A00776108
:1006C0006974696E6720666F720D0A20004C69209C
:1006D0005875656A696E670D0A0057616E67205329
:1006E000686968616E670D0A004D656D62657273B9
:1006F0003A0D0A004444532D5369676E616C676577
:100700006E657261746F720D0A0050726F6A656374
:10071000742030343A0D0A0011241FBECFEFD0E40C
:10072000DEBFCDBF11E0A0E0B1E0EEE5F5E100E015
:100730000BBF02C007900D92A03AB107D9F726E08F
:10074000A0EAB1E001C01D92AB35B207E1F792D447
:1007500004C756CC249A2C9A11C10895BF92CF9207
:10076000DF92EF92FF920F931F93CF93DF93BFB669
:10077000F89403EB15E00F2EF3EBCF2EF1E0DF2E14
:10078000F02D0F2EF7E0EF2EF12CF02D8091A2012D
:1007900090E00E2C02C0959587950A94E2F780FFB1
:1007A00013C0469847988E2D806BFAD080E1F8D020
:1007B00080E0F6D0479AE801C058D1098991F0D07D
:1007C000C017D107D9F7469A81E0E81AF108005816
:1007D00011090C151D05D1F61092A201BFBEDF91C3
:1007E000CF911F910F91FF90EF90DF90CF90BF902E
:1007F0000895E3EBF1E023EB35E008C01192E81730
:10080000F907E1F7FC018217930721F0CF01805827
:100810009F4FF4CF8FEF8093A201A0CF08958A302D
:1008200029F08D3061F41092A10108958091A0010A
:10083000873008F03DC08F5F8093A001089590E05D
:10084000FC01EE0FFF1FE80FF91FEE0FFF1FE4572B
:10085000FF4F8091A10190E0DC01AA0FBB1FA80F00
:10086000B91FAA0FBB1F8091A00190E8899FA00D1E
:10087000B11D1124AD54BE4F80E094919D938F5FC4
:1008800031968630D1F781E090E00090A00102C05F
:10089000880F991F0A94E2F79091A201892B809307
:1008A000A2018091A101843118F48F5F8093A1018E
:1008B0000895CF93DF93EC018881882329F08991F3
:1008C000AEDF88818111FBCFDF91CF910895CF9367
:1008D000DF93FC018491EF012196882331F09FDFA3
:1008E000FE01849121968111FACFDF91CF91089575
:1008F0008093A1016093A00108956BD084EC84D013
:1009000081E19FD080E09DD080E09BD080E099D0B5
:1009100080E097D080E095D0B1C00895CF932ED0DD
:1009200087B1806C87B9CFB7F8944798469882EE24
:1009300037D083EA35D081E833D088E031D080EAFF
:100940002FD088EC2DD085E22BD08FE229D08FEAF2
:1009500027D0469A479A4DDFCFBF27D0CEDFFADEA9
:10096000CF910895CF93C82F34D084EC4DD085E13A
:1009700068D08C2F66D082D0CF9108958091A3014A
:1009800080FD0DC084B1806A84B980E58CBD81E0B2
:100990008DBD81E090E09093A4018093A301089520
:1009A0008EBD0DB407FEFDCF089587B18C7F87B94A
:1009B00088B1836088B983E08093B80087E0809332
:1009C000B10082E0809370008DE78093B30078944B
:1009D00008958AE08093A50184EA8093BC00ECEB43
:1009E000F0E08091A501882319F080818823CCF75D
:1009F0008091A501882329F08091B900887F90E03B
:100A000008958FEF9FEF08959AE09093A50180934A
:100A1000BB0084E88093BC00ECEBF0E08091A50182
:100A2000882319F080818823CCF78091A501882341
:100A300029F08091B900887F90E008958FEF9FEFB3
:100A400008959AE09093A5018093BB0084E8809379
:100A5000BC00ECEBF0E08091A501882319F08081C7
:100A60008823CCF78091A501882329F08091B900D3
:100A7000887F90E008958FEF9FEF08958AE080933C
:100A8000A50184E98093BC0008951F920F920FB6D0
:100A90000F9211240BB60F928F93EF93FF93E3EB1A
:100AA000F0E08081835880838091A501882329F01C
:100AB0008091A50181508093A501FF91EF918F91C5
:100AC0000F900BBE0F900FBE0F901F9018951F92A6
:100AD0000F920FB60F9211240BB60F922F938F9394
:100AE0009F93EF93FF939091C6009D3019F18091F1
:100AF000B101813019F49093B00118C02EEF280F86
:100B0000203A80F42091B001233061F4E82FF0E026
:100B1000EF54FA4F908390812091AF0192279093E8
:100B2000AF0104C0823A11F49093AE018F5F8093BD
:100B3000B10112C09091AF018091AE01981303C032
:100B400081E08093B2011092B1011092B0018BEB61
:100B50008093AE011092AF01FF91EF919F918F9121
:100B60002F910F900BBE0F900FBE0F901F901895F6
:100B70001F920F920FB60F9211240BB60F922F9364
:100B80008F939F93EF93FF93E091AD01E03AB0F420
:100B9000F0E0E050FF4F80818093C6008091AD016E
:100BA000E82FF0E0E050FF4F90812091AC019227B8
:100BB0009093AC018F5F8093AD011DC0E03A51F47A
:100BC0008091AC018093C6008091AD018F5F8093CE
:100BD000AD0111C0E13A49F48DE08093C6008091E7
:100BE000AD018F5F8093AD0106C01092AC011092F1
:100BF000AD011092B201FF91EF919F918F912F91D2
:100C00000F900BBE0F900FBE0F901F9018951F9264
:100C10000F920FB60F9211240BB60F922F938F9352
:100C20009F93EF93FF939091CE009D3019F18091A7
:100C3000AB01813019F49093AA0118C02EEF280F50
:100C4000203A80F42091AA01233061F4E82FF0E0EB
:100C5000EF54FA4F908390812091A90192279093AD
:100C6000A90104C0823A11F49093A8018F5F809388
:100C7000AB0112C09091A9018091A801981303C003
:100C800081E08093B2011092AB011092AA018BEB2C
:100C90008093A8011092A901FF91EF919F918F91EC
:100CA0002F910F900BBE0F900FBE0F901F901895B5
:100CB0001F920F920FB60F9211240BB60F922F9323
:100CC0008F939F93EF93FF93E091A701E03AB0F4E5
:100CD000F0E0E050FF4F80818093CE008091A7012B
:100CE000E82FF0E0E050FF4F90812091A60192277D
:100CF0009093A6018F5F8093A7011DC0E03A51F445
:100D00008091A6018093CE008091A7018F5F809390
:100D1000A70111C0E13A49F48DE08093CE008091A3
:100D2000A7018F5F8093A70106C01092A6011092C1
:100D3000A7011092B201FF91EF919F918F912F9196
:100D40000F900BBE0F900FBE0F901F901895E0EC08
:100D5000F0E08081808388ED8093C10086E08093FD
:100D6000C2001092C50081E08093C4000895E0ECB9
:100D7000F0E0908195FFFDCFF8948093C6007894C1
:100D800008958AEAF4DF83E0F2DF81E0089585E1E7
:100D9000E9DD8AE097E09BDD84EF96E098DD89EE5F
:100DA00096E095DD8AED96E092DD8DEC96E08FDDA4
:100DB000D5DC67E084E19CDD80E131DDCFDC0399A7
:100DC000FECF039BFECF2FEF89EF90E021508040B4
:100DD0009040E1F700C000000399FECF089587B16D
:100DE0008C6387B988B1837C88B9089588B1877E80
:100DF00088B942988AE18A95F1F700C0429A8AE15F
:100E00008A95F1F700C042988AE18A95F1F700C00F
:100E100044988AE18A95F1F700C0449A8AE18A955C
:100E2000F1F700C044988AE18A95F1F700C045982F
:100E300043988AE18A95F1F700C0439A8AE18A953E
:100E4000F1F700C043988AE18A95F1F700C0089550
:100E5000CF92DF92EF92FF92CF93DF93CDB7DEB7C1
:100E6000A0970FB6F894DEBF0FBECDBFC2DC60E026
:100E700080E03EDD8EEB96E02ADD8EEA96E027DD0F
:100E800067E084E135DD80E1CADC68DC789480913C
:100E9000B2018130E1F7C0905306D0905406E09043
:100EA0005506F090560648E150E023E030E002C0DD
:100EB0006C017D01F901ED54FA4F808190E0A0E0D2
:100EC000B0E0042E04C0880F991FAA1FBB1F0A940C
:100ED000D2F78C0D9D1DAE1DBF1D2150310948500C
:100EE00051092F3F6FEF360719F780935306909300
:100EF0005406A0935506B0935606C0925706D0925A
:100F00005806E0925906F0925A063BDF609153066C
:100F100070915406809155069091560628EE33E064
:100F200040E050E0C5D2DA01C9014AE0BE016F5F7E
:100F30007F4FE0D2CE010196BCDC1092B201A096A8
:100F40000FB6F894DEBF0FBECDBFDF91CF91FF90FB
:100F5000EF90DF90CF90089520E030E04AE754E42E
:100F600022D12DEB37E346E057E43FD284D14398BA
:100F700028E030E060FF02C0459A01C04598449ADD
:100F80004498669521503109A9F728E030E070FFB8
:100F900002C0459A01C04598449A449876952150DC
:100FA0003109A9F728E030E080FF02C0459A01C06E
:100FB0004598449A44988695869521503109A1F721
:100FC00028E030E090FF02C0459A01C04598449A5D
:100FD0004498969521503109A9F788E090E045980A
:100FE000449A44980197D9F7439A8AE18A95F1F790
:100FF00000C043980895CF93DF93CDB7DEB7A09795
:101000000FB6F894DEBF0FBECDBFF3DB80E1AADCE4
:1010100060E080E06DDC86E996E059DC6091530683
:1010200070915406809155069091560628EE33E053
:1010300040E050E03DD2DA01C9014AE0BE016F5FF5
:101040007F4F58D2CE01019634DC8CE896E03FDC2D
:1010500080E1E5DB83DB8FE39CE90197F1F700C0DA
:101060000000A0960FB6F894DEBF0FBECDBFDF9193
:10107000CF91089581B1877081B982B1886F82B9AB
:101080008FE084B985B18F6085B948DC60DE7FDE92
:10109000A6DEACDE079914C08091530690915406E9
:1010A000A0915506B0915606805C9D4BA04FBF4F56
:1010B0008093530690935406A0935506B09356061A
:1010C0002FEF81EE94E0215080409040E1F700C086
:1010D0000000069914C08091530690915406A09187
:1010E0005506B091560680549244AF40B1098093A2
:1010F000530690935406A0935506B09356062FEFCF
:1011000081EE94E0215080409040E1F700C0000063
:10111000059914C08091530690915406A0915506EC
:10112000B0915606805A9648A140B1098093530663
:1011300090935406A0935506B09356062FEF89EF6F
:1011400090E0215080409040E1F700C000000499F9
:1011500014C08091530690915406A0915506B09109
:10116000560680569947AE4FBF4F809353069093D3
:101170005406A0935506B09356062FEF81EE94E0E7
:10118000215080409040E1F700C0000061DE609196
:10119000530670915406809155069091560697D04B
:1011A000DBDE29DF77CF0CD0E6C0DED040F0D5D033
:1011B00030F021F45F3F19F0C7C0511110C1CAC00F
:1011C000EBD098F39923C9F35523B1F3951B550B35
:1011D000BB27AA2762177307840738F09F5F5F4F0A
:1011E000220F331F441FAA1FA9F333D00E2E3AF04B
:1011F000E0E830D091505040E695001CCAF729D065
:10120000FE2F27D0660F771F881FBB1F26173707B3
:101210004807AB07B0E809F0BB0B802DBF01FF27E3
:1012200093585F4F2AF09E3F510568F08DC0D7C09C
:101230005F3FECF3983EDCF3869577956795B7951D
:10124000F7959F5FC9F7880F911D9695879597F938
:101250000895E1E0660F771F881FBB1F62177307B1
:101260008407BA0720F0621B730B840BBA0BEE1FC6
:1012700088F7E095089598D088F09F5790F0B92F9F
:101280009927B751A0F0D1F0660F771F881F991FDB
:101290001AF0BA95C9F712C0B13081F09FD0B1E011
:1012A00008959CC0672F782F8827B85F39F0B93F21
:1012B000CCF3869577956795B395D9F73EF49095DD
:1012C0008095709561957F4F8F4F9F4F0895E8945B
:1012D00009C097FB3EF490958095709561957F4F7E
:1012E0008F4F9F4F9923A9F0F92F96E9BB2793952C
:1012F000F695879577956795B795F111F8CFFAF43C
:10130000BB0F11F460FF1BC06F5F7F4F8F4F9F4F6C
:1013100016C0882311F096E911C0772321F09EE8CA
:10132000872F762F05C0662371F096E8862F70E030
:1013300060E02AF09A95660F771F881FDAF7880F0A
:101340009695879597F9089597F99F6780E870E0DB
:1013500060E008959FEF80EC089500240A9416162B
:10136000170618060906089500240A941216130693
:10137000140605060895092E0394000C11F4882321
:1013800052F0BB0F40F4BF2B11F460FF04C06F5F3D
:101390007F4F8F4F9F4F089557FD9058440F551F13
:1013A00059F05F3F71F04795880F97FB991F61F0E7
:1013B0009F3F79F087950895121613061406551F5E
:1013C000F2CF4695F1DF08C0161617061806991FCA
:1013D000F1CF86957105610508940895E894BB27BF
:1013E00066277727CB0197F908950BD0C4CFB5DFD7
:1013F00028F0BADF18F0952309F0A6CFABCF11245F
:10140000EECFCADFA0F3959FD1F3950F50E0551FA3
:10141000629FF001729FBB27F00DB11D639FAA2749
:10142000F00DB11DAA1F649F6627B00DA11D661F98
:10143000829F2227B00DA11D621F739FB00DA11DB9
:10144000621F839FA00D611D221F749F3327A00D73
:10145000611D231F849F600D211D822F762F6A2F0F
:1014600011249F5750408AF0E1F088234AF0EE0F94
:10147000FF1FBB1F661F771F881F91505040A9F7A1
:101480009E3F510570F060CFAACF5F3FECF3983ECE
:10149000DCF3869577956795B795F795E7959F5F08
:1014A000C1F7FE2B880F911D9695879597F90895A2
:1014B000A1E21A2EAA1BBB1BFD010DC0AA1FBB1F58
:1014C000EE1FFF1FA217B307E407F50720F0A21BCA
:1014D000B30BE40BF50B661F771F881F991F1A9437
:1014E00069F760957095809590959B01AC01BD0161
:1014F000CF010895BB274A3031F4992322F4BDE28D
:10150000909581959F4F01C0BB27FB015527AA27C6
:10151000880F991FAA1FA41710F0A41B8395505180
:10152000B9F7A05DAA3308F0A95DA193009779F7F8
:10153000B111B1931192CB0100C0DC01FC01672F06
:1015400071917723E1F7329704C07C916D9370839A
:0E1550006291AE17BF07C8F30895F894FFCF5D
:10155E0044696520446174656E2077657264656EBA
:10156E0020616C732073657269656C6C65722064A2
:10157E0069676974616C657220446174656E737419
:10158E00726F6D206D69742065696E656D20666978
:10159E0078656E205261686D656E20C3BC6265729F
:1015AE0074726167656E2C2064657220617573209C
:1015BE0065696E656D2053746172742D4269742C69
:1015CE002066C3BC6E6620626973206D6178696D9A
:1015DE00616C206E65756E20446174656E6269740F
:1015EE00732E00000000000000000000000000004C
:0400000300000D8E5E
:00000001FF
