S00B00003030312E7372656388
S113000045C0000053C0000051C000004FC00000B4
S11300104DC000004BC0000049C0000047C00000B4
S113002045C000009BC0000041C000003FC000006C
S11300303DC000003BC0000039C0000037C00000D4
S113004035C0000033C0000031C000002FC00000E4
S1130050A7C00000D0C0000029C0000027C00000D5
S113006025C0000023C0000021C000001FC0000004
S11300701DC000001BC0000019C0000017C0000014
S113008015C0000013C0000011C0000011241FBEE1
S1130090CFEFD0E4DEBFCDBF21E0A0E0B1E001C0EE
S11300A01D92A136B207E1F702D0DAC0A9CF81B11F
S11300B0877081B982B1886F82B98FE084B985B1C4
S11300C08F6085B98AE090E0EFE3FCE93197F1F7BE
S11300D000C000000197C1F780E090E00895FC01A2
S11300E0A281B3819D012F5F3F4F8C9196819150E6
S11300F019F49181291B31093383228396832FB705
S1130100F8949081915090832FBF0895FC01208131
S1130110222319F0E4DF90E008958FEF9FEF089514
S1130120FC01908181819817B8F4A481B5819D0167
S11301302F5F3F4F6C938781815019F48181281B75
S113014031098783358324839FB7F89480818F5F37
S113015080839FBF81E0089580E008951F920F92ED
S11301600FB60F9211240BB60F928F93EF93FF9358
S1130170E3EBF0E080818358808380910001882341
S113018029F080910001815080930001FF91EF914B
S11301908F910F900BBE0F900FBE0F901F9018956C
S11301A01F920F920FB60F9211240BB60F922F933A
S11301B03F934F935F936F937F938F939F93AF93EB
S11301C0BF93EF93FF936091C60089E491E0A8DFA9
S11301D0FF91EF91BF91AF919F918F917F916F911B
S11301E05F914F913F912F910F900BBE0F900FBED7
S11301F00F901F9018951F920F920FB60F92112413
S11302000BB60F922F933F934F935F936F937F930C
S11302108F939F93AF93BF93EF93FF9380910101CB
S1130220882331F081E091E071DF8093C60005C03E
S1130230E1ECF0E080818F7D8083FF91EF91BF91AD
S1130240AF919F918F917F916F915F914F913F916A
S11302502F910F900BBE0F900FBE0F901F9018950B
S1070260F894FFCF3C
S9030000FC
