:100000000C9483050C94A2050C94A2050C94A205F3
:100010000C94A2050C94A2050C94A2050C94A205C4
:100020000C94A2050C94670A0C94A2050C94A205EA
:100030000C94A2050C94A2050C94A2050C94A205A4
:100040000C94A2050C94A2050C94A2050C94A20594
:100050000C949B0D0C94A2050C94EC0D0C94A20531
:100060000C94A2050C94A2050C94A2050C94A20574
:100070000C943B0E0C94A2050C948C0E0C94A205CF
:100080000C94A2050C94A2050C94A20566726571ED
:1000900075656E6365200D0A2000696E7075747455
:1000A000696E6720746865200D0A0077616974695C
:1000B0006E6720666F72200D0A004C6920587565C6
:1000C0006A696E670D0A0057616E67205368696838
:1000D000616E670D0A004D656D626572733A0D0AB7
:1000E000004444532D5369676E616C67656E657299
:1000F00061746F720D0A0050726F6A65637420300C
:10010000343A0D0A00FFFFFFFFFFFFFFFFFFFFFF75
:10011000FFF80000008040100401004010040100BE
:100120004008000000800000000000000000000007
:1001300000086199F8800000000000400000000005
:100140000008F198CC8000000000000000000000D2
:1001500000099998CC8000000000004000000000D9
:1001600000099998CC800000000000000000000009
:1001700000099998F880000000000040000000008D
:100180000009F998D880000000000000000000007D
:1001900000099998CC800000000000400000000099
:1001A000000998F0CC800000000000000000000072
:1001B00000099861CCC04010040100E01004010067
:1001C0004018000000800000000000000000000057
:1001D0000008000000800000000000400000000057
:1001E0000008C000008000000000000000000000C7
:1001F0000009200000800000000000400000000016
:100200000009200000800000000000000000000045
:10021000000907338C80000000000040000000004F
:100220000008C84A528000000000000000000000E2
:100230000008284A52800000000000400000000032
:100240000009284A5E800000000000000000000055
:100250000009284A50C04010040100E010040100C9
:100260004018C7338E80000000000000000000002E
:1002700000080002008000000000004000000000B4
:1002800000080002008000000000000000000000E4
:100290000008000000800000000000400000000096
:1002A00000080000008000000000000000000000C6
:1002B0000008000000800000000000400000000076
:1002C00000080000008000000000000000000000A6
:1002D0000009CE7180800000000000400000000096
:1002E00000090A424080401004010000100401008F
:1002F00040098C6240D55555555555555555555560
:1003000055590A42408040100401000010040100C9
:1003100040090A71E0800000000000400000000079
:100320000008000000800000000000000000000045
:1003300000080000008000000000004000000000F5
:100340000008000000800000000000000000000025
:1003500000080000008000000000004000000000D5
:100360000008000000800000000000000000000005
:1003700000080000008000000000004000000000B5
:1003800000080000008000000000000000000000E5
:100390000008000000C04010040100E0100401004B
:1003A0004018000000800000000000000000000075
:1003B0000008000000800000000000400000000075
:1003C00000080000008000000000000000000000A5
:1003D0000008000000800000000000400000000055
:1003E0000008000000800000000000000000000085
:1003F0000008000000800000000000400000000035
:100400000008000000800000000000000000000064
:100410000008000000800000000000400000000014
:100420000008000000800000000000000000000044
:100430000008000000C04010040100E010040100AA
:1004400040180000008000000000000000000000D4
:1004500000080000008000000000004000000000D4
:100460000008000000800000000000000000000004
:1004700000080000008000000000004000000000B4
:1004800000080000008000000000000000000000E4
:100490000008000000800000000000400000000094
:1004A00000080000008000000000000000000000C4
:1004B0000008000000800000000000400000000074
:1004C00000080000008000000000000000000000A4
:1004D00000080000008040100401004010040100EA
:1004E0004008000000800000000000000000000044
:1004F0000008000000FFFFFFFFFFFFFFFFFFFFFFFF
:10050000FFF8000000000000000000003E455145DB
:100510003E003E6B6F6B3E001C3E7C3E1C00183C58
:100520007E3C180030367F363000185C7E5C180048
:1005300000000000000000000000000000000000BB
:10054000000000000000000030484A360E00062976
:1005500079290600000000000000607E0A353F0097
:100560002A1C361C2A00007F3E1C0800081C3E7F07
:10057000000014367F361400005F005F000006099B
:100580007F017F00224D55592200606060600000AD
:1005900014B6FFB6140004067F06040010307F3046
:1005A000100008083E1C0800081C3E08080078409F
:1005B00040404000083E083E0800303C3F3C3000D0
:1005C000030F3F0F030000000000000000065F065D
:1005D0000000070300070300247E247E2400242B50
:1005E0006A12000063130864630036495620500005
:1005F000000703000000003E4100000000413E00F3
:100600000000083E1C3E080008083E08080000E004
:100610006000000008080808080000606000000092
:100620002010080402003E5149453E0000427F4030
:1006300000006251494946002249494936001814D0
:10064000127F10002F49494931003C4A4949300086
:10065000017109050300364949493600064949290F
:100660001E00006C6C00000000EC6C000000081420
:1006700022410000242424242400004122140800E4
:100680000201590906003E415D551E007E111111FF
:100690007E007F49494936003E41414122007F4169
:1006A00041413E007F49494941007F090909010054
:1006B0003E4149497A007F0808087F0000417F4198
:1006C0000000304040403F007F08142241007F403E
:1006D000404040007F0204027F007F0204087F0048
:1006E0003E4141413E007F09090906003E4151213A
:1006F0005E007F0909196600264949493200010157
:100700007F0101003F4040403F001F2040201F006C
:100710003F403C403F006314081463000708700822
:100720000700714945430000007F41410000020479
:10073000081020000041417F0000040201020480F3
:100740008080808080000003070000002054545403
:1007500078007F44444438003844444428003844F6
:1007600044447F00385454540800087E09090000AE
:1007700018A4A4A47C007F040478000000007D403D
:1007800000004080847D00007F10284400000000AD
:100790007F4000007C04180478007C04047800008A
:1007A000384444443800FC44444438003844444409
:1007B000FC00447844040800085454542000043ECB
:1007C000442400003C40207C00001C2040201C00F1
:1007D0003C6030603C006C10106C00009CA0603CE1
:1007E00000006454544C0000083E414100000000E9
:1007F000770000000041413E0800020102010000B4
:100800003C2623263C001EA1E12112003D40207D14
:10081000000038545455090020555555780020558E
:100820005455780020555554780020575557780076
:100830001CA2E2221400385555550800385554556D
:10084000080038555554080000017C4100000001A3
:100850007D41000000017C400000702924297000C7
:10086000782F252F78007C545455450034547C54FF
:1008700058007E097F494900384545390000384510
:10088000443900003945443800003C41217D0000D6
:100890003D41207C00009CA1603D00003D42423D66
:1008A00000003C41403D0080706858380400483EDC
:1008B000494962007E615D433F0022140814220012
:1008C00040887E09020020545555780000007D4183
:1008D00000003844453900003C40217D00007A0981
:1008E0000A7100007A1122790000085555555E0002
:1008F0004E51514E000030484D40203E415D4B5519
:100900003E04040404041C0017084C6A5000170835
:10091000342A780000307D300000081400081400EC
:100920001408001408441144114411AA55AA55AAE8
:1009300055BBEEBBEEBBEE000000FF000008080850
:10094000FF000000702825297000702925297000FB
:1009500070292528703E415D55413E0AFB00FF008D
:100960000000FF00FF00000AFA02FE00000A0B0868
:100970000F000000182466240000292A7C2A290878
:100980000808F800000000000F08080808080F0811
:1009900008080808F80808000000FF080808080808
:1009A000080808080808FF0808002056555679006E
:1009B000702A252A71000F080B0A0A00FE02FA0AA3
:1009C0000A0A0B080B0A0A0AFA02FA0A0A00FF00CE
:1009D000FB0A0A0A0A0A0A0A0A0AFB00FB0A0A00B8
:1009E0005D2222225D00225559300000087F4941D6
:1009F0003E007C55555544007C55545544007C556B
:100A00005554440000000700000000447D450000EC
:100A100000457D45000000457C45000808080F00A2
:100A200000000000F80808FFFFFFFFFFFFF0F0F0F4
:100A3000F0F0F00000007700000000457D44000F5A
:100A40000F0F0F0F0F003C42433D0000FE4A4A3497
:100A500000003C43433D00003D43423C000032491E
:100A60004A3100003A4546390000FC20201C0000B5
:100A7000FEAA28100000FFA5241800003C40413DBC
:100A800000003C41413D00003D41403C00009CA035
:100A9000613D000004087109040000020202000028
:100AA00000070300000000080808000000242E24AE
:100AB0000000242424242405170A342A7800060977
:100AC0007F017F00224D5559220008082A0808009E
:100AD00000081818000006090906000000080008B0
:100AE0000000000800000000020F00000000090FD5
:100AF00005000000090D0A0000003C3C3C3C0000E1
:100B000000000000000011241FBECFEFD0E4DEBFC4
:100B1000CDBF11E0A0E0B1E0E4E5F1E200E00BBF01
:100B200002C007900D92A23AB107D9F726E0A2EAD7
:100B3000B1E001C01D92A53DB207E1F70E94840D0E
:100B40000C94A8100C9400000F931F93CF93DF9385
:100B5000EB01142F052F0E94E309CE01880F892F86
:100B6000881F990B91958F710E94E3099E01220FB6
:100B7000822F0170802B0E94E309812F0E94E309DC
:100B8000DF91CF911F910F9108952C9887ED0E94CE
:100B9000E30980E00E94E8098823DCF72C9A089595
:100BA000249A2C9A0E94D10908951F93CF93DF9322
:100BB000EC01162F0E94C5052C98123039F083E8FD
:100BC000BE0140E050E00E94A40506C086E8BE01D8
:100BD00040E050E00E94A4052C9ADF91CF911F9134
:100BE00008951F93CF93DF93EC01162F0E94C50544
:100BF0002C98123039F083E5BE0140E050E00E94AD
:100C0000A40506C085E5BE0140E050E00E94A405B1
:100C10002C9ADF91CF911F910895DF92EF92FF926E
:100C20000F931F93CF93DF93F82E8B01EA01E22EEF
:100C3000D32E0E94C5052C988F2D823039F081ED7E
:100C400060E070E0A8010E94A40506C083ED60E0AA
:100C500070E0A8010E94A405209751F00E2D1D2DD3
:100C600080E00E94E809F80181938F012197C1F784
:100C70002C9ADF91CF911F910F91FF90EF90DF9011
:100C80000895DF92EF92FF920F931F93CF93DF931C
:100C9000F82E8B01EA01E22ED32E0E94C5052C9876
:100CA0008F2D823039F084E860E070E0A8010E9466
:100CB000A40506C087E860E070E0A8010E94A405D2
:100CC000209749F00E2D1D2DF80181918F010E9472
:100CD000E3092197C9F72C9ADF91CF911F910F91CA
:100CE000FF90EF90DF900895CF92DF92EF92FF9206
:100CF0000F931F93CF93DF938C017B01EA01D22ED8
:100D0000C32E0E94C5052C9883E0B801A7010E945C
:100D1000A405209751F00D2D1C2D80E00E94E809BC
:100D2000F80181938F012197C1F72C9ADF91CF9120
:100D30001F910F91FF90EF90DF90CF9008950E9448
:100D4000C5052C9887EC0E94E30984E90E94E30919
:100D500080E80E94E3098AE90E94E3092C9A089539
:100D60000E94E3090895CF92DF92EF92FF920F93D2
:100D70001F93CF93DF930FB7F8940F2EF7E0CF2E8A
:100D8000DD24F02D0F2EF5E3EF2EF2E0FF2EF02DF7
:100D90008C2DE6012091A20130E00C2C02C035958B
:100DA00027950A94E2F720FF1EC046984798806B6B
:100DB0000E94B00680E10E94B00680E00E94B0066A
:100DC000479A10E0D695DC2FCC27D795C795FE0122
:100DD000E10FF11DEE0DFF1D80810E94B0061F5F27
:100DE0001038A9F7469A0894C108D1088FEFC816A1
:100DF0008FEFD80669F61092A2010FBFDF91CF9155
:100E00001F910F91FF90EF90DF90CF90089540E0F9
:100E100050E070E025E332E00EC0FC01E60FF11D6A
:100E2000E20FF31F10826F5F6038B9F74F5F5F4FBB
:100E30004830510541F0672FCA019695982F8827B1
:100E400097958795EACF8FEF8093A2010E94B30612
:100E5000089588230CF44CC0603408F049C0562F24
:100E6000569556955695677021E030E001C0220FE7
:100E70006A95EAF7442319F0423001F510C0E52FD6
:100E8000F0E0F695FE2FEE27F795E795E80FF11DB8
:100E9000EB5CFD4F20958081282320831DC0E52F2A
:100EA000F0E0F695FE2FEE27F795E795E80FF11D98
:100EB000EB5CFD4F8081282720830EC0E52FF0E0FA
:100EC000F695FE2FEE27F795E795E80FF11DEB5C01
:100ED000FD4F8081282B208381E090E002C0880FA5
:100EE000991F5A95E2F72091A201822B8093A201CB
:100EF00008958F929F92AF92BF92CF92DF92EF921E
:100F0000FF920F931F93CF93DF93182FF62EC42ECB
:100F1000822ED02E842F90E0811B910999231CF4FE
:100F2000909581959F4FB82E882D90E08F1991094B
:100F300099231CF4909581959F4FE82E1C1518F469
:100F40009924939402C099249A94F81418F4AA242A
:100F5000A39402C0AA24AA94EB1434F40B2DBB2052
:100F60000CF40F5F05950FC08E2D992787FD909586
:100F7000909581959F4F0AF4019695958795082F36
:100F800002C0082F07C0CB2DDD27C7FDD095D09517
:100F9000C195DF4F812F6F2D4D2D0E9429071C1504
:100FA00011F4F81491F0802F992787FD9095C817B8
:100FB000D90724F4802F8E19190D01C0802F0E152A
:100FC00004F7082F0B0DFA0CE5CFDF91CF911F919D
:100FD0000F91FF90EF90DF90CF90BF90AF909F90D8
:100FE0008F9008957F928F929F92AF92BF92CF92EF
:100FF000DF92EF92FF920F931F93D82EF62E742E4E
:10100000122FC42E642F6F0D422F0E9429076F2DBF
:1010100067198D2D412F0E942907872D8D0D6F2D6A
:10102000412F0E9429078D2D87196F2D412F0E9476
:10103000290717140CF04FC081E0982E971871946F
:10104000770C0F2EF3E08F2EF02D00E0992024F086
:10105000CA9482E0780E970C0F5FB02EBD0CEC2C7A
:10106000EF0C8B2D6E2D412F0E942907AD2CA01A5D
:101070008A2D6E2D412F0E942907EF2CEC188B2D05
:101080006E2D412F0E9429078A2D6E2D412F0E941F
:101090002907BC2CBD0CE02EEF0C8B2D6E2D412FA3
:1010A0000E942907AD2CAC188A2D6E2D412F0E946D
:1010B0002907EF2CE01A8B2D6E2D412F0E94290756
:1010C0008A2D6E2D412F0E9429070C1524F4980CAF
:1010D00082E0880EBBCF1F910F91FF90EF90DF90C1
:1010E000CF90BF90AF909F908F907F9008958A305F
:1010F00029F08D3059F41092A30108958091A40134
:101100008730B8F58F5F8093A401089526E0829F11
:10111000F0011124EB5FFA4F8091A40190E09695C5
:10112000982F882797958795A091A301A29FD0011A
:101130001124A80FB91FAB5CBD4F80E094919D9323
:101140008F5F31968630D1F781E090E00090A40166
:1011500002C0880F991F0A94E2F72091A201822B06
:101160008093A2018091A301843118F48F5F809352
:10117000A3010895CF93DF93EC018881882331F098
:1011800089910E94770888818823D1F7DF91CF91D8
:101190000895CF93DF93FC018491882349F0EF01F8
:1011A00021960E947708FE01849121968823C9F731
:1011B000DF91CF9108958093A3016093A4010895D6
:1011C000A0E090E065E372E0AC015695542F44270F
:1011D000579547959C01FA01EA0FF11DE60FF71F9D
:1011E0001082AF5FA038B1F781E090E002C0880FB5
:1011F000991F2A95E2F72091A201822B8093A201E8
:1012000008950E94020A84EC0E94200A81E10E9453
:10121000400A80E00E94400A80E00E94400A80E08C
:101220000E94400A80E00E94400A80E00E94400A3A
:101230000E94600A08951F930E94D10987B1806CB3
:1012400087B91FB7F8944798469882EE0E94B00677
:1012500083EA0E94B00681E80E94B00688E00E94FE
:10126000B00680EA0E94B00688EC0E94B00685E2D3
:101270000E94B0068FE20E94B0068FEA0E94B0067C
:10128000469A479A0E9407071FBF0E94EE090E94D4
:1012900001090E94D0051F9108951F93182F0E94E5
:1012A000020A84EC0E94200A85E10E94400A812FF4
:1012B0000E94400A0E94600A1F910895FF920F93B6
:1012C0001F93F82E062F142F0E94020A84EC0E940E
:1012D000200AFF2021F083E10E94400A03C081E13F
:1012E0000E94400A802F0E94400A812F0E94400ADB
:1012F0000E94600A1F910F91FF900895EF92FF9254
:101300000F931F93CF93DF938C01C5E3D2E00F2E91
:10131000F5E3EF2EF6E0FF2EF02D82E060E070E0C6
:1013200040E850E09E010E944106C80162E00E9430
:10133000D505C058DF4F0F5F1F4FCE15DF0569F78A
:10134000DF91CF911F910F91FF90EF900895EF9251
:10135000FF920F931F93CF93DF938C01C5E3D2E0ED
:101360000F2EF5E3EF2EF6E0FF2EF02DC80160E022
:1013700070E040E850E09E010E9474060F5F1F4F2E
:10138000C058DF4FCE15DF0589F78FEF8093A2019C
:101390000E94B306DF91CF911F910F91FF90EF90C4
:1013A00008958091A50180FD0DC084B1806A84B943
:1013B00080E58CBD81E08DBD81E090E09093A60139
:1013C0008093A50108958EBD0DB407FEFDCF08954D
:1013D0008EBD0DB407FEFDCF8EB5089587B18C7F0D
:1013E00087B988B1836088B983E08093B80087E0CB
:1013F0008093B10082E0809370008DE78093B3000A
:10140000789408958AE08093A70184EA8093BC00D1
:10141000ECEBF0E08091A701882319F0808188230C
:10142000CCF78091A701882331F02091B90030E0FA
:10143000287F307002C02FEF3FEF822F932F089547
:101440009AE09093A7018093BB0084E88093BC004E
:10145000ECEBF0E08091A701882319F080818823CC
:10146000CCF78091A701882331F02091B90030E0BA
:10147000287F307002C02FEF3FEF822F932F089507
:101480009AE09093A7018093BB0084E88093BC000E
:10149000ECEBF0E08091A701882319F0808188238C
:1014A000CCF78091A701882331F02091B90030E07A
:1014B000287F307002C02FEF3FEF822F932F0895C7
:1014C0008AE08093A70184E98093BC0008951F926D
:1014D0000F920FB60F920BB60F9211248F93EF93CA
:1014E000FF93E3EBF0E08081835880838091A70134
:1014F000882329F08091A70181508093A701FF9153
:10150000EF918F910F900BBE0F900FBE0F901F9019
:10151000189585E10E944D0987EF90E00E94C90867
:1015200081EE90E00E94C90886ED90E00E94C90813
:1015300087EC90E00E94C9088AEB90E00E94C908FD
:101540000E94B30667E084E10E94DB0880E10E940C
:1015500077080E94B3060399FECF039BFECF2FEFBF
:1015600089EF90E0215080409040E1F700C00000FA
:101570000399FECF089587B18C6387B988B1837CC6
:1015800088B9089588B1877E88B942988AE18A959A
:10159000F1F700C0429A8AE18A95F1F700C04298BB
:1015A0008AE18A95F1F700C044988AE18A95F1F7BB
:1015B00000C0449A8AE18A95F1F700C044988AE114
:1015C0008A95F1F700C0459843988AE18A95F1F72A
:1015D00000C0439A8AE18A95F1F700C043988AE1F6
:1015E0008A95F1F700C0089520E034E244E759E419
:1015F0000E94FD0E2FE632E143E05CE40E942C10D5
:101600000E946F0F439828E030E060FF02C0459AC7
:1016100001C04598449A4498669521503109A9F72C
:1016200028E030E070FF02C0459A01C04598449A16
:101630004498769521503109A9F728E030E080FFE1
:1016400002C0459A01C04598449A4498869586956B
:1016500021503109A1F728E030E090FF02C0459AFF
:1016600001C04598449A4498969521503109A9F7AC
:1016700088E090E04598449A44980197D9F7439AB6
:101680008AE18A95F1F700C04398089585E10E94A8
:101690004D090E94070780E090E00DC0CF01019640
:1016A000EB5FFE4FE491ED93FC0182179307B1F7D6
:1016B0002115344041F0DC01AB5CBD4F9C0120584A
:1016C0003F4FFC01EBCF8FEF8093A2010E94B30646
:1016D0000895EF92FF920F931F93CF93DF930F2EF6
:1016E000F0EBEF2EF1E0FF2EF02D04E112E0E70128
:1016F0008C2F8E19699141E00E942907C017D107EC
:10170000B9F7DF91CF911F910F91FF90EF9008955E
:101710000E94460B0E94690B77247A94689499245E
:1017200091F8A12CCAE7D0E009E710E00F2EF3E30F
:10173000EF2EF2E0FF2EF02D0F2EF3E08F2EF02D86
:101740006894BB24B1F8C92CDA2C079919C0809190
:101750001B0290911C028937910590F4069910C0E4
:10176000892B71F005990CC0809115028D3344F4DA
:10177000049906C0843C24F0039902C0039BFECF69
:1017800010921902109218027092000181E0809369
:101790001602E0E0492D5A2DF1E0888180648883AB
:1017A000888184FFFDCFD8016C90862D90E09093C6
:1017B00034028093330220911A0230E0281739074F
:1017C00008F00EC16091170270E068177907C0F445
:1017D000E1110BC18217930748F0EF2F11C0609100
:1017E000170270E068177907B0F401C0EF2FE130FD
:1017F00009F0FFC02817390768F4EB2D01C0EB2D65
:101800002091170230E02817390728F4E23019F444
:10181000E82D01C0EB2D6092170220911B02309140
:101820001C022115310581F08881806488838881BC
:1018300084FFFDCFD8018C9190E090933402809387
:1018400033022150310981F7209133023091340263
:101850008091180290E08217930710F420931802E9
:101860008091000190E02817390720F4D7018C916E
:101870008093000121153105E9F08091180290E074
:1018800060910001861B9109880F991F9093320285
:10189000809331022B5F3F4FADECBCEC0E9499105E
:1018A00096958795969587950296909334028093A6
:1018B000330204C0C0923302D0923402D7019C910B
:1018C00080911502890F8B5F80931402803448F455
:1018D0004436510570F4DA01BB27A055BE4F8C93F6
:1018E0000DC04436510528F4DA01BB27A055BE4F80
:1018F0001C924536510510F0E33039F04F5F5F4FD1
:101900004839BAE35B0709F048CF8091180240914B
:101910000001841769F090E0841B91099C0112F486
:101920002F5F3F4F35952795240F20931A0202C051
:1019300080931A020E94690B10921E0210921D02DF
:1019400081E08093160260E071E0F701808180936E
:101950001702888180648883888184FFFDCFD80145
:101960008C9190E0909334028093330220911A027C
:1019700030E02817390708F041C04091170250E0C5
:101980004817590708F051C061113CC082179307EE
:1019900048F0672F4AC04091170250E04817590796
:1019A00050F401C0672F613089F534C0623019F4FA
:1019B00010921602682D80911D0290911E02893BA3
:1019C000BBE09B0710F010921602019690931E0246
:1019D00080931D0280911602813009F4B6CFB5CEF6
:1019E0008217930708F4FBCE16CF82179307B8F03F
:1019F00007CF2817390708F409CF0DCF82179307AF
:101A000050F2D9CF8217930768F00FC02817390713
:101A100068F2D1CF2817390758F26B2DCCCFE130BF
:101A200041F7EDCE613091F7C3CF4817590708F45D
:101A3000BDCFC1CF0E94070760E080E00E94DB08B5
:101A40008BEA90E00E94C9088AE990E00E94C908E8
:101A50008CE890E00E94C90867E084E10E94DB08FE
:101A600080E10E9477080E94B306789480912B024F
:101A70008130E1F7C090AC01D090AD01E090AE01B3
:101A8000F090AF0148E150E023E030E002C06C018B
:101A90007D01F901EB5CF94F808190E0A0E0B0E0BE
:101AA000042E04C0880F991FAA1FBB1F0A94D2F7E7
:101AB0008C0D9D1DAE1DBF1D21503109485051098F
:101AC0002F3F6FEF360719F78093AC019093AD016C
:101AD000A093AE01B093AF01C092A801D092A9012A
:101AE000E092AA01F092AB010E94F50E6091AC0168
:101AF0007091AD018091AE019091AF010E949E0F57
:101B00000E94F40A0E94880B81B1877081B982B16A
:101B1000886F82B98FE084B985B18F6085B90E94E2
:101B20001B090E94DB0E0E94890A0E94BB0A0E94C8
:101B3000C20A0E941A0D1F920F920FB60F92112423
:101B40000BB60F922F938F939F93EF93FF939091E8
:101B5000C6009D3019F180912A02813019F49093CA
:101B6000290218C02EEF280F203A80F42091290274
:101B7000233061F4E82FF0E0ED5CF94F9083908121
:101B80002091280292279093280204C0823A11F4EF
:101B9000909327028F5F80932A0212C090912802AF
:101BA00080912702981303C081E080932B0210924A
:101BB0002A02109229028BEB8093270210922802AE
:101BC000FF91EF919F918F912F910F900BBE0F90EE
:101BD0000FBE0F901F9018951F920F920FB60F9285
:101BE00011240BB60F922F938F939F93EF93FF9334
:101BF000E0912602E03AB0F4F0E0EF5FFE4F808122
:101C00008093C60080912602E82FF0E0EF5FFE4F40
:101C10009081209125029227909325028F5F8093D7
:101C200026021DC0E03A51F4809125028093C6003F
:101C3000809126028F5F8093260211C0E13A49F419
:101C40008DE08093C600809126028F5F80932602EC
:101C500006C0109225021092260210922B02FF91CC
:101C6000EF919F918F912F910F900BBE0F900FBE10
:101C70000F901F9018951F920F920FB60F9211247C
:101C80000BB60F922F938F939F93EF93FF939091A7
:101C9000CE009D3019F180912402813019F4909387
:101CA000230218C02EEF280F203A80F4209123023F
:101CB000233061F4E82FF0E0ED5CF94F90839081E0
:101CC0002091220292279093220204C0823A11F4BA
:101CD000909321028F5F8093240212C09091220280
:101CE00080912102981303C081E080932B0210920F
:101CF0002402109223028BEB809321021092220285
:101D0000FF91EF919F918F912F910F900BBE0F90AC
:101D10000FBE0F901F9018951F920F920FB60F9243
:101D200011240BB60F922F938F939F93EF93FF93F2
:101D3000E0912002E03AB0F4F0E0EF5FFE4F8081E6
:101D40008093CE0080912002E82FF0E0EF5FFE4FFD
:101D5000908120911F02922790931F028F5F8093A2
:101D600020021DC0E03A51F480911F028093CE0002
:101D7000809120028F5F8093200211C0E13A49F4E4
:101D80008DE08093CE00809120028F5F80932002AF
:101D900006C010921F021092200210922B02FF9197
:101DA000EF919F918F912F910F900BBE0F900FBECF
:101DB0000F901F901895E0ECF0E08081808388ED13
:101DC0008093C10086E08093C2001092C50081E03C
:101DD0008093C4000895E0ECF0E0908195FFFDCF82
:101DE000F8948093C600789408958AEA0E94EB0ED6
:101DF00083E00E94EB0E81E008950E94110F0C9485
:101E0000F20F0E94EB0F58F00E94E40F40F029F40B
:101E10005F3F29F00C94DB0F51110C9426100C94A9
:101E2000E10F0E94031068F39923B1F3552391F356
:101E3000951B550BBB27AA2762177307840738F039
:101E40009F5F5F4F220F331F441FAA1FA9F335D096
:101E50000E2E3AF0E0E832D091505040E695001C4A
:101E6000CAF72BD0FE2F29D0660F771F881FBB1F04
:101E7000261737074807AB07B0E809F0BB0B802DE2
:101E8000BF01FF2793585F4F3AF09E3F510578F00E
:101E90000C94DB0F0C9426105F3FE4F3983ED4F3D0
:101EA000869577956795B795F7959F5FC9F7880FE2
:101EB000911D9695879597F90895E1E0660F771F34
:101EC000881FBB1F621773078407BA0720F0621BC5
:101ED000730B840BBA0BEE1F88F7E09508950E94F0
:101EE0000B1088F09F5798F0B92F9927B751B0F091
:101EF000E1F0660F771F881F991F1AF0BA95C9F78E
:101F000014C0B13091F00E942510B1E008950C94F6
:101F10002510672F782F8827B85F39F0B93FCCF3A9
:101F2000869577956795B395D9F73EF4909580950A
:101F3000709561957F4F8F4F9F4F0895E89409C02A
:101F400097FB3EF490958095709561957F4F8F4FEC
:101F50009F4F9923A9F0F92F96E9BB279395F69502
:101F6000879577956795B795F111F8CFFAF4BB0F80
:101F700011F460FF1BC06F5F7F4F8F4F9F4F16C0E4
:101F8000882311F096E911C0772321F09EE8872F6E
:101F9000762F05C0662371F096E8862F70E060E02A
:101FA0002AF09A95660F771F881FDAF7880F9695A3
:101FB000879597F9089597F99F6780E870E060E04A
:101FC00008959FEF80EC089500240A9416161706D2
:101FD00018060906089500240A941216130614061A
:101FE00005060895092E0394000C11F4882352F07D
:101FF000BB0F40F4BF2B11F460FF04C06F5F7F4F35
:102000008F4F9F4F089557FD9058440F551F59F01B
:102010005F3F71F04795880F97FB991F61F09F3FD5
:1020200079F087950895121613061406551FF2CFFE
:102030004695F1DF08C0161617061806991FF1CF4E
:1020400086957105610508940895E894BB27662775
:102050007727CB0197F908950E943F100C94F20F57
:102060000E94E40F38F00E94EB0F20F0952311F04E
:102070000C94DB0F0C94E10F11240C9426100E9499
:10208000031070F3959FC1F3950F50E0551F629FA9
:10209000F001729FBB27F00DB11D639FAA27F00DC1
:1020A000B11DAA1F649F6627B00DA11D661F829FE8
:1020B0002227B00DA11D621F739FB00DA11D621FCD
:1020C000839FA00D611D221F749F3327A00D611DEA
:1020D000231F849F600D211D822F762F6A2F1124CC
:1020E0009F5750409AF0F1F088234AF0EE0FFF1FFF
:1020F000BB1F661F771F881F91505040A9F79E3F56
:10210000510580F00C94DB0F0C9426105F3FE4F334
:10211000983ED4F3869577956795B795F795E795AB
:102120009F5FC1F7FE2B880F911D9695879597F9B4
:102130000895A29FB001B39FC001A39F700D811DA0
:102140001124911DB29F700D811D1124911D0895C0
:04215000F894FFCF31
:10215400FF44696520446174656E20776572646527
:102164006E20616C732073657269656C6C65722096
:102174006469676974616C657220446174656E7327
:1021840074726F6D206D69742065696E656D20666B
:102194006978656E205261686D656E20C3BC6265A6
:1021A4007274726167656E2C206465722061757348
:1021B4002065696E656D2053746172742D42697473
:1021C4002C2066C3BC6E6620626973206D617869D9
:1021D4006D616C206E65756E20446174656E626914
:1021E40074732E00000000000000000000000000D6
:0221F4000000E9
:0400000300001512D2
:00000001FF
