S01000006473735F303730382E737265639C
S11300007DC5000099C5000097C5000095C5000096
S113001093C5000091C500008FC500008DC5000088
S11300208BC500000C94D60A87C5000085C5000066
S113003083C5000081C500007FC500007DC50000A8
S11300407BC5000079C5000077C5000075C50000B8
S11300500C94F80A71C500000C94490B6DC500009E
S11300606BC5000069C5000067C5000065C50000D8
S11300700C94980B61C500000C94ED0B5DC5000059
S11300805BC5000059C5000057C50000202020743E
S11300906865206672657175656E63652E2E2E0027
S11300A02020202077616974696E6720666F722052
S11300B0004C69205875656A696E670D0A005761BE
S11300C06E672053686968616E670D0A004D656D3F
S11300D0626572733A0D0A004444532D5369676E86
S11300E0616C67656E657261746F720D0A0050729F
S11300F06F6A6563742030343A0D0A00FF01010110
S113010001010101010301010101010101010103D7
S113011001010101010101010103010101010101C9
S113012001010103010101010101010101AB01010F
S113013001010101010101030101010101010101A9
S11301400103010101010101010101030101010197
S11301500101010101030101010101010101010189
S1130160FF0000F0F88C8CF8F00000FCFC0000FCB0
S1130170FC000004FCFC44C4FC380000FF08000040
S1130180000000000008000000000000000000085B
S11301900000000000000000000800000000000053
S11301A000000008000000000000000008AA080089
S11301B00000000000000008000000000000000033
S11301C0000800000000000000000008000000001B
S11301D0000000000008000000000000000000080B
S11301E0FF0000C72720C00707000001030606031D
S11301F0010000040707000007070000FF200000BB
S113020000000000002000000000000000000020AA
S113021000000000000000000020000000000000BA
S113022000000020000000000000000020AA2000C0
S1130230000000000000002000000000000000009A
S1130240002000000000000000000020000000006A
S1130250000000000020000000000000000000205A
S1130260FF00001922221C001E212121001E212131
S11302701E00FF21211E001E29292E00FF80008060
S11302800080008000C0008000800080008000C0EA
S1130290008000800080008000C00080008000801A
S11302A0008000C0008000800080008000AA0080E0
S11302B000800080008000C00080008000800080FA
S11302C000C0008000800080008000C000800080AA
S11302D00080008000C000800080008000800080DA
S11302E0FF000000F0501000F050A000F05010008B
S11302F0E01010E00000000000000000FF0000001B
S113030000000000000100000000000000000001E7
S113031000000000000000000001000000000000D8
S113032000000001000000000000000000AA00001E
S113033000000000000000010000000000000000B8
S113034000010000000000000000000100000000A7
S11303500000000000010000000000000000000098
S1130360FF00000001000000010001000101010084
S1130370000101010000000000000000FF02000075
S11303800000000000020000000000000000000265
S11303900000000000000000000200000000000057
S11303A000000002000000000000000002AA020099
S11303B00000000000000002000000000000000037
S11303C00002000000000000000000020000000025
S11303D00000000000020000000000000000000215
S11303E0FF0000000000000000000000000000000A
S11303F0000000000000000000000000FF080000F2
S113040000000000000800000000000000000008D8
S113041000000000000000000008000000000000D0
S113042000000008000000000000000008AA080006
S113043000000000000000080000000000000000B0
S11304400008000000000000000000080000000098
S11304500000000000080000000000000000000888
S1130460FF00000000000000000000000000000089
S113047000000000F820F80090D0B000FF808080D9
S11304808080808080A0808080808080808080A028
S1130490808080808080808080A080808080808038
S11304A0808080A0808080808080808080AA8080FE
S11304B080808080808080A0808080808080808018
S11304C080A0808080808080808080A080808080E8
S11304D08080808080A080808080808080808080F8
S11304E0FF00000000000000000000000000000009
S11304F000000000000000000000000000000000F8
S11305000000003E4551453E003E6B6F6B3E001CB3
S11305103E7C3E1C00183C7E3C180030367F363052
S113052000185C7E5C180000000000000000000061
S11305300000000000000000000000000000003087
S1130540484A360E000629792906000000000000FA
S113055000607E0A353F002A1C361C2A00007F3EBC
S11305601C0800081C3E7F000014367F361400006F
S11305705F005F000006097F017F00224D5559226C
S11305800060606060000014B6FFB6140004067FCB
S113059006040010307F30100008083E1C080008D4
S11305A01C3E080800784040404000083E083E08D1
S11305B000303C3F3C3000030F3F0F0300000000BD
S11305C000000000065F0600000703000703002484
S11305D07E247E2400242B6A1200006313086463C3
S11305E000364956205000000703000000003E4139
S11305F000000000413E000000083E1C3E080008C8
S1130600083E08080000E060000000080808080828
S1130610000060600000002010080402003E514900
S1130620453E0000427F4000006251494946002295
S113063049494936001814127F10002F494949319D
S1130640003C4A4949300001710905030036494913
S1130650493600064949291E00006C6C0000000060
S1130660EC6C0000000814224100002424242424FB
S1130670000041221408000201590906003E415DB0
S1130680551E007E1111117E007F49494936003EF6
S113069041414122007F4141413E007F4949494156
S11306A0007F09090901003E4149497A007F080891
S11306B0087F0000417F410000304040403F007F00
S11306C008142241007F40404040007F0204027F22
S11306D0007F0204087F003E4141413E007F09093A
S11306E00906003E4151215E007F09091966002672
S11306F0494949320001017F0101003F4040403F28
S1130700001F2040201F003F403C403F006314086E
S1130710146300070870080700714945430000008E
S11307207F414100000204081020000041417F0085
S1130730000402010204808080808080000003079E
S11307400000002054545478007F44444438003856
S11307504444442800384444447F003854545408E2
S113076000087E0909000018A4A4A47C007F0404E6
S113077078000000007D4000004080847D00007F00
S1130780102844000000007F4000007C0418047816
S1130790007C0404780000384444443800FC444499
S11307A044380038444444FC0044784404080008B5
S11307B05454542000043E442400003C40207C0057
S11307C0001C2040201C003C6030603C006C101079
S11307D06C00009CA0603C00006454544C00000871
S11307E03E414100000000770000000041413E0806
S11307F0000201020100003C2623263C001EA1E168
S11308002112003D40207D00003854545509002039
S11308105555557800205554557800205555547831
S1130820002057555778001CA2E222140038555571
S113083055080038555455080038555554080000DB
S1130840017C41000000017D41000000017C40006A
S113085000702924297000782F252F78007C5454A7
S113086055450034547C5458007E097F494900386A
S113087045453900003845443900003945443800BD
S1130880003C41217D00003D41207C00009CA16092
S11308903D00003D42423D00003C41403D0080702F
S11308A06858380400483E494962007E615D433F10
S11308B00022140814220040887E090200205455A6
S11308C055780000007D4100003844453900003C63
S11308D040217D00007A090A7100007A1122790012
S11308E000085555555E004E51514E000030484D9C
S11308F040203E415D4B553E04040404041C001793
S1130900084C6A50001708342A780000307D300003
S113091000081400081400140800140844114411B9
S11309204411AA55AA55AA55BBEEBBEEBBEE000076
S113093000FF0000080808FF000000702825297047
S11309400070292529700070292528703E415D55C5
S1130950413E0AFB00FF000000FF00FF00000AFA0E
S113096002FE00000A0B080F000000182466240091
S113097000292A7C2A29080808F800000000000F32
S113098008080808080F0808080808F808080000FC
S113099000FF0808080808080808080808FF0808ED
S11309A000205655567900702A252A71000F080B2D
S11309B00A0A00FE02FA0A0A0A0B080B0A0A0AFAD1
S11309C002FA0A0A00FF00FB0A0A0A0A0A0A0A0AC9
S11309D00AFB00FB0A0A005D2222225D002255590F
S11309E0300000087F49413E007C55555544007C49
S11309F055545544007C55555444000000070000EC
S1130A000000447D45000000457D45000000457C14
S1130A1045000808080F0000000000F80808FFFF60
S1130A20FFFFFFFFF0F0F0F0F0F0000000770000AF
S1130A300000457D44000F0F0F0F0F0F003C424391
S1130A403D0000FE4A4A3400003C43433D00003D63
S1130A5043423C000032494A3100003A45463900DD
S1130A6000FC20201C0000FEAA28100000FFA52482
S1130A701800003C40413D00003C41413D00003D28
S1130A8041403C00009CA0613D0000040871090441
S1130A900000020202000000070300000000080832
S1130AA008000000242E24000024242424240517F4
S1130AB00A342A780006097F017F00224D55592205
S1130AC00008082A08080000081818000006090988
S1130AD006000000080008000000080000000002F2
S1130AE00F00000000090F05000000090D0A0000B6
S1130AF0003C3C3C3C0000000000000011241FBEF0
S1130B00CFEFD0E4DEBFCDBF11E0A0E0B1E0EAE476
S1130B10FCE100E00BBF02C007900D92A83AB107B8
S1130B20D9F726E0A8EAB1E001C01D92A63DB207BC
S1130B30E1F74CD30C94230E63CA85E1A4D48EEE62
S1130B4090E056D488ED90E053D48DEC90E050D4EE
S1130B508EEB90E04DD481EB90E04AD448D367E02B
S1130B6084E157D480E1ECD342D30399FECF039BB5
S1130B70FECF2FEF89EF90E0215080409040E1F7C5
S1130B8000C000000399FECF089581E680937C00A5
S1130B90EAE7F0E08081826C8083089584B1866006
S1130BA084B985B1897F85B98AB1806C8AB98BB1E2
S1130BB08F738BB908952A985E985F988AE18A9515
S1130BC0F1F700C05F9A8AE18A95F1F700C05F9857
S1130BD08AE18A95F1F700C02A988AE18A95F1F7AB
S1130BE000C02A9A8AE18A95F1F700C02A988AE11E
S1130BF08A95F1F700C029985E988AE18A95F1F701
S1130C0000C05E9A8AE18A95F1F700C05E988AE195
S1130C108A95F1F700C0089520E034E244E759E4EE
S1130C204BD62FE632E143E05CE468D7ADD65E985C
S1130C3028E030E060FF02C0299A01C029982A9A6E
S1130C402A98669521503109A9F728E030E070FF11
S1130C5002C0299A01C029982A9A2A987695215087
S1130C603109A9F728E030E080FF02C0299A01C0C9
S1130C7029982A9A2A988695869521503109A1F7B0
S1130C8028E030E090FF02C0299A01C029982A9AEE
S1130C902A98969521503109A9F788E090E029987F
S1130CA02A9A2A980197D9F75E9A8AE18A95F1F7E8
S1130CB000C05E980895E6D280E090E00DC0CF01B8
S1130CC00196E450FF4FE491ED93FC0182179307E2
S1130CD0B1F72115344041F0DC01AA5CBD4F9C0101
S1130CE020583F4FFC01EBCF8FEF80931C027FC253
S1130CF00895CF93DF93CDB7DEB7A0970FB6F894DE
S1130D00DEBF0FBECDBF65E081E183D34AE0BE0103
S1130D106F5F7F4F809102019091030161D7CE01F3
S1130D20019658D367E084E174D380E109D35FD29C
S1130D308FE39CE90197F1F700C00000A0960FB67D
S1130D40F894DEBF0FBECDBFDF91CF910895EF922F
S1130D50FF920F931F93CF93DF9394D284E093D3A6
S1130D60AADFC7DF0F2EFCEAEF2EF1E0FF2EF02DF5
S1130D7000E112E0E7018C2F8E19699141E098D2CD
S1130D8036D2C017D107B9F7DF91CF911F910F91D8
S1130D90FF90EF9008958F929F92AF92BF92CF925F
S1130DA0DF92EF92FF920F931F93CF93DF932FEF76
S1130DB083EC99E0215080409040E1F700C00000AE
S1130DC0C6DF99249A946894AA24A1F8B12CCAE79E
S1130DD0D0E009E710E00F2EF4E3EF2EF2E0FF2E4F
S1130DE0F02D0F2EF3E0CF2EF02D05990CC080913D
S1130DF01602909117028937910528F40196909371
S1130E0017028093160204990BC0809116029091E8
S1130E101702009729F00197909317028093160206
S1130E20079907C0809106018D331CF4815080938B
S1130E300601069907C080910601843C1CF08F5F6F
S1130E408093060103990CC0AFEFB3EC29E0A150E5
S1130E50B0402040E1F700C000000399FECF15C167
S1130E6010921402109213029092070181E0809371
S1130E701102E0E04A2D5B2D6894DD24D1F8F1E005
S1130E80888180648883888184FFFDCFD8018C9019
S1130E90882D90E0909335028093340220911502BE
S1130EA030E02817390708F0F6C06091120270E0AC
S1130EB068177907C0F4E111F3C08217930748F06B
S1130EC0EF2F11C06091120270E068177907B0F437
S1130ED001C0EF2FE13009F0E7C02817390768F4A3
S1130EE0ED2D01C0ED2D2091120230E028173907B5
S1130EF028F4E23019F4EC2D01C0ED2D8092120299
S1130F0020911602309117022115310581F0888154
S1130F1080648883888184FFFDCFD8018C9190E020
S1130F2090933502809334022150310981F7209146
S1130F303402309135028091130290E082179307B6
S1130F4010F4209313028091070190E028173907C9
S1130F5020F4D7018C91809307012D5F3F4FABEABA
S1130F60BAEA2FD696958795029690933502809388
S1130F70340290910601890F80931002803458F452
S1130F804436510580F4EE2349F0DA01BB27A45519
S1130F90BE4F8C930DC04436510528F4DA01BB27AB
S1130FA0A455BE4F1C924536510510F0E33039F07C
S1130FB04F5F5F4F4839BAE35B0709F061CF209177
S1130FC0130280910701281741F090E0820F911DD0
S1130FD0959587958093150202C020931502B7DE7C
S1130FE0109219021092180281E08093110260E0BD
S1130FF0E2E071E0D7018C918093120288818064D1
S11310008883888184FFFDCFD8018C9190E09093F0
S11310103502809334022091150230E028173907F5
S113102008F047C04091120250E04817590708F0F1
S113103057C0611142C08217930748F0672F50C010
S11310404091120250E04817590750F401C0672F2D
S11310506130B9F53AC0623019F4109211026C2D66
S11310608091180290911902893BBBE09B0710F014
S113107010921102019690931902809318028091A4
S11310801102813009F4B6CFB0CEE0910001F091A5
S1131090010109952AC08217930708F413CF2ECFB4
S11310A082179307B8F01FCF2817390708F421CF08
S11310B025CF8217930720F2D3CF8217930768F0C6
S11310C00FC02817390738F2CBCF2817390728F271
S11310D06E2FC6CFE13041F705CF613091F7BDCF18
S11310E04817590708F4B7CFBBCFDF91CF911F91B1
S11310F00F91FF90EF90DF90CF90BF90AF909F90B3
S11311008F9008952FEF83EC99E021508040904018
S1131110E1F700C00000B6D062E080E07AD180EA56
S113112090E066D164E080E074D18CE890E060D116
S113113067E084E16ED180E103D159D07894C6E3AD
S1131140D6E02FEF83EC99E0215080409040E1F706
S113115000C0000080912C02813099F78881298198
S113116090E0982F8827820F911D9093AB01809374
S1131170AA012A814B8130E0322F2227240F311D0E
S11311803093A9012093A801A0E0B0E0DC019927E5
S11311908827820F931FA11DB11D80930201909394
S11311A00301A0930401B093050183E090E07ED392
S11311B010922C026091020170910301809104014C
S11311C0909105010DD428DDE6DDBBCF81B1877098
S11311D081B982B1886F82B932D14ED3D6DCDEDCDC
S11311E0EADCABDC8FDF249A2C9A59C10895BF92B4
S11311F0CF92DF92EF92FF920F931F93CF93DF93DF
S1131200BFB6F89406E316E00F2EF6E3CF2EF2E015
S1131210DF2EF02D0F2EF7E0EF2EF12CF02D809124
S11312201C0290E00E2C02C0959587950A94E2F773
S113123080FF13C0469847988E2D806B42D180E181
S113124040D180E03ED1479AE801C058D109899144
S113125038D1C017D107D9F7469A81E0E81AF108C6
S1131260005811090C151D05D1F610921C02BFBEC1
S1131270DF91CF911F910F91FF90EF90DF90CF906E
S1131280BF900895E6E3F2E026E336E008C0119249
S1131290E817F907E1F7FC018217930721F0CF0162
S11312A080589F4FF4CF8FEF80931C02A0CF0895F6
S11312B088230CF444C0603408F041C0562F56957E
S11312C056955695677021E030E002C0220F331F17
S11312D06A95E2F7442319F0423071F019C090E89E
S11312E0599FF0011124E80FF11DEA5CFD4F209590
S11312F080812823208317C090E8599FF00111248E
S1131300E80FF11DEA5CFD4F8081282720830BC084
S113131090E8599FF0011124E80FF11DEA5CFD4F9C
S11313208081282B208381E090E002C0880F991FE0
S11313305A95E2F790911C02892B80931C02089520
S11313408A3029F08D3061F410921B020895809147
S11313501A02873008F03DC08F5F80931A02089507
S113136090E0FC01EE0FFF1FE80FF91FEE0FFF1FC7
S1131370E450FB4F80911B0290E0DC01AA0FBB1FDD
S1131380A80FB91FAA0FBB1F80911A0290E8899F6A
S1131390A00DB11D1124AA5CBD4F80E094919D93D2
S11313A08F5F31968630D1F781E090E000901A0289
S11313B002C0880F991F0A94E2F790911C02892BAE
S11313C080931C0280911B02843118F48F5F8093F8
S11313D01B020895CF93DF93EC018881882329F0C1
S11313E08991AEDF88818111FBCFDF91CF91089580
S11313F0CF93DF93FC018491EF012196882331F090
S11314009FDFFE01849121968111FACFDF91CF9164
S1131410089580931B0260931A0208956BD084ECA4
S113142084D081E19FD080E09DD080E09BD080E09B
S113143099D080E097D080E095D0B1C00895CF9343
S11314402ED087B1806C87B9CFB7F8944798469867
S113145082EE37D083EA35D081E833D088E031D0CA
S113146080EA2FD088EC2DD085E22BD08FE229D0D2
S11314708FEA27D0469A479A05DFCFBF27D0CEDF21
S1131480B2DECF910895CF93C82F34D084EC4DD0E1
S113149085E168D08C2F66D082D0CF910895809159
S11314A01D0280FD0DC084B1806A84B980E58CBDC5
S11314B081E08DBD81E090E090931E0280931D0237
S11314C008958EBD0DB407FEFDCF089587B18C7FBE
S11314D087B988B1836088B983E08093B80087E0D6
S11314E08093B10082E0809370008DE78093B30015
S11314F0789408958AE080931F0284EA8093BC0064
S1131500ECEBF0E080911F02882319F0808188239E
S1131510CCF780911F02882329F08091B900887F3D
S113152090E008958FEF9FEF08959AE090931F0243
S11315308093BB0084E88093BC00ECEBF0E08091E6
S11315401F02882319F080818823CCF780911F0221
S1131550882329F08091B900887F90E008958FEF67
S11315609FEF08959AE090931F028093BB0084E854
S11315708093BC00ECEBF0E080911F02882319F00B
S113158080818823CCF780911F02882329F08091E1
S1131590B900887F90E008958FEF9FEF08958AE067
S11315A080931F0284E98093BC0008951F920F92D8
S11315B00FB60F9211240BB60F928F93EF93FF93F4
S11315C0E3EBF0E080818358808380911F028823BD
S11315D029F080911F02815080931F02FF91EF91A7
S11315E08F910F900BBE0F900FBE0F901F90189508
S11315F01F920F920FB60F9211240BB60F922F93D6
S11316008F939F93EF93FF939091C6009D3019F1B0
S113161080912B02813019F490932A0218C02EEF86
S1131620280F203A80F420912A02233061F4E82F15
S1131630F0E0EC5CF94F908390812091290292278D
S11316409093290204C0823A11F4909328028F5F88
S113165080932B0212C09091290280912802981342
S113166003C081E080932C0210922B0210922A0274
S11316708BEB8093280210922902FF91EF919F91A6
S11316808F912F910F900BBE0F900FBE0F901F9054
S113169018951F920F920FB60F9211240BB60F924A
S11316A02F938F939F93EF93FF93E0912702E03A58
S11316B0B0F4F0E0E85FFE4F80818093C600809133
S11316C02702E82FF0E0E85FFE4F90812091260288
S11316D09227909326028F5F809327021DC0E03AE1
S11316E051F4809126028093C600809127028F5F77
S11316F08093270211C0E13A49F48DE08093C6003B
S1131700809127028F5F8093270206C010922602E1
S11317101092270210922C02FF91EF919F918F91CA
S11317202F910F900BBE0F900FBE0F901F90189526
S11317301F920F920FB60F9211240BB60F922F9394
S11317408F939F93EF93FF939091CE009D3019F167
S113175080912502813019F49093240218C02EEF51
S1131760280F203A80F420912402233061F4E82FDA
S1131770F0E0EC5CF94F9083908120912302922752
S11317809093230204C0823A11F4909322028F5F53
S11317908093250216C0909123028091220298130F
S11317A007C080912402833019F481E080932C02D5
S11317B010922502109224028BEB80932202109245
S11317C02302FF91EF919F918F912F910F900BBE68
S11317D00F900FBE0F901F9018951F920F920FB687
S11317E00F9211240BB60F922F938F939F93EF9325
S11317F0FF93E0912102E03AB0F4F0E0E85FFE4F9D
S113180080818093CE0080912102E82FF0E0E85F90
S1131810FE4F9081209120029227909320028F5FA7
S1131820809321021DC0E03A51F4809120028093FC
S1131830CE00809121028F5F8093210211C0E13A92
S113184049F48DE08093CE00809121028F5F8093D4
S1131850210206C0109220021092210210922C0242
S1131860FF91EF919F918F912F910F900BBE0F904D
S11318700FBE0F901F901895E8ECF0E080818083F4
S113188088ED8093C90086E08093CA001092CD0051
S113189081E08093CC000895E8ECF0E0908195FF1E
S11318A0FDCFF8948093CE00789408958AEAF4DF0B
S11318B083E0F2DF81E008950CD0E6C0DED040F092
S11318C0D5D030F021F45F3F19F0C7C0511110C1D9
S11318D0CAC0EBD098F39923C9F35523B1F3951BF0
S11318E0550BBB27AA2762177307840738F09F5F3D
S11318F05F4F220F331F441FAA1FA9F333D00E2EAC
S11319003AF0E0E830D091505040E695001CCAF718
S113191029D0FE2F27D0660F771F881FBB1F2617DD
S113192037074807AB07B0E809F0BB0B802DBF01B0
S1131930FF2793585F4F2AF09E3F510568F08DC0F2
S1131940D7C05F3FECF3983EDCF3869577956795B7
S1131950B795F7959F5FC9F7880F911D9695879561
S113196097F90895E1E0660F771F881FBB1F621780
S113197073078407BA0720F0621B730B840BBA0B3E
S1131980EE1F88F7E095089598D088F09F5790F05F
S1131990B92F9927B751A0F0D1F0660F771F881F90
S11319A0991F1AF0BA95C9F712C0B13081F09FD0CF
S11319B0B1E008959CC0672F782F8827B85F39F06D
S11319C0B93FCCF3869577956795B395D9F73EF4EF
S11319D090958095709561957F4F8F4F9F4F089597
S11319E0E89409C097FB3EF49095809570956195B5
S11319F07F4F8F4F9F4F9923A9F0F92F96E9BB276B
S1131A009395F695879577956795B795F111F8CFE6
S1131A10FAF4BB0F11F460FF1BC06F5F7F4F8F4F51
S1131A209F4F16C0882311F096E911C0772321F047
S1131A309EE8872F762F05C0662371F096E8862FDF
S1131A4070E060E02AF09A95660F771F881FDAF736
S1131A50880F9695879597F9089597F99F6780E879
S1131A6070E060E008959FEF80EC089500240A94EC
S1131A701616170618060906089500240A94121665
S1131A801306140605060895092E0394000C11F498
S1131A90882352F0BB0F40F4BF2B11F460FF04C045
S1131AA06F5F7F4F8F4F9F4F089557FD9058440F9E
S1131AB0551F59F05F3F71F04795880F97FB991FA9
S1131AC061F09F3F79F08795089512161306140666
S1131AD0551FF2CF4695F1DF08C0161617061806F3
S1131AE0991FF1CF86957105610508940895E894CE
S1131AF0BB2766277727CB0197F908950BD0C4CF6E
S1131B00B5DF28F0BADF18F0952309F0A6CFABCFE4
S1131B101124EECFCADFA0F3959FD1F3950F50E0C7
S1131B20551F629FF001729FBB27F00DB11D639F8B
S1131B30AA27F00DB11DAA1F649F6627B00DA11D31
S1131B40661F829F2227B00DA11D621F739FB00DD7
S1131B50A11D621F839FA00D611D221F749F332747
S1131B60A00D611D231F849F600D211D822F762FE0
S1131B706A2F11249F5750408AF0E1F088234AF0DD
S1131B80EE0FFF1FBB1F661F771F881F9150504029
S1131B90A9F79E3F510570F060CFAACF5F3FECF3E9
S1131BA0983EDCF3869577956795B795F795E79515
S1131BB09F5FC1F7FE2B880F911D9695879597F926
S1131BC00895A29FB001B39FC001A39F700D811D12
S1131BD01124911DB29F700D811D1124911D089532
S1131BE0BB274A3031F4992322F4BDE290958195C4
S1131BF09F4F01C0BB27FB015527AA27880F991FB8
S1131C00AA1FA41710F0A41B83955051B9F7A05D27
S1131C10AA3308F0A95DA193009779F7B111B193A4
S1131C201192CB0100C0DC01FC01672F7191772375
S1131C30E1F7329704C07C916D9370836291AE1783
S10D1C40BF07C8F30895F894FFCF1E
S1131C4A8208E803000014FF44696520446174654E
S1131C5A6E2077657264656E20616C732073657299
S1131C6A69656C6C6572206469676974616C657214
S1131C7A20446174656E7374726F6D206D6974208B
S1131C8A65696E656D20666978656E205261686D56
S1131C9A656E20C3BC62657274726167656E2C20BE
S1131CAA646572206175732065696E656D2053746D
S1131CBA6172742D4269742C2066C3BC6E662062FC
S1131CCA6973206D6178696D616C206E65756E202B
S1131CDA446174656E626974732E0000000000002A
S10B1CEA0000000000000000EE
S9030B3AB7
