:100000008BC30000A6C30000A4C30000A2C300006D
:10001000A0C300009EC300009CC300009AC3000060
:1000200098C300000DC7000094C3000092C30000F5
:1000300090C300008EC300008CC300008AC3000080
:1000400088C3000086C3000084C3000082C3000090
:1000500019C700007EC3000066C700007AC3000015
:1000600078C3000076C3000074C3000072C30000B0
:10007000A9C700006EC30000FAC700006AC30000F1
:1000800068C3000066C3000064C300002020202075
:1000900020204B487A00546865204672657175656A
:1000A0006E6365206973742020200D0A0A0074684D
:1000B00065206672657175656E63650D0A0077610E
:1000C0006974696E6720666F720D0A20004C6920A2
:1000D0005875656A696E670D0A0057616E6720532F
:1000E000686968616E670D0A004D656D62657273BF
:1000F0003A0D0A004444532D5369676E616C67657D
:100100006E657261746F720D0A0050726F6A65637A
:10011000742030343A0D0A00000000000000003E58
:100120004551453E003E6B6F6B3E001C3E7C3E1CC5
:1001300000183C7E3C180030367F363000185C7E5C
:100140005C1800000000000000000000000000003B
:10015000000000000000000000000030484A360E99
:1001600000062979290600000000000000607E0AD0
:10017000353F002A1C361C2A00007F3E1C08000860
:100180001C3E7F000014367F361400005F005F00C5
:100190000006097F017F00224D55592200606060F2
:1001A00060000014B6FFB6140004067F06040010B9
:1001B000307F30100008083E1C0800081C3E08086C
:1001C00000784040404000083E083E0800303C3F78
:1001D0003C3000030F3F0F03000000000000000050
:1001E000065F060000070300070300247E247E2428
:1001F00000242B6A1200006313086463003649561A
:10020000205000000703000000003E4100000000F5
:10021000413E000000083E1C3E080008083E080859
:100220000000E060000000080808080800006060A6
:100230000000002010080402003E5149453E000025
:10024000427F4000006251494946002249494936EF
:10025000001814127F10002F49494931003C4A49C7
:100260004930000171090503003649494936000645
:100270004949291E00006C6C00000000EC6C000075
:1002800000081422410000242424242400004122D8
:100290001408000201590906003E415D551E007E0A
:1002A0001111117E007F49494936003E41414122EA
:1002B000007F4141413E007F49494941007F090992
:1002C0000901003E4149497A007F0808087F000083
:1002D000417F410000304040403F007F08142241F0
:1002E000007F40404040007F0204027F007F020404
:1002F000087F003E4141413E007F09090906003E5A
:100300004151215E007F0909196600264949493299
:100310000001017F0101003F4040403F001F20409D
:10032000201F003F403C403F006314081463000757
:100330000870080700714945430000007F414100F3
:10034000000204081020000041417F000004020167
:10035000020480808080808000000307000000206D
:1003600054545478007F444444380038444444286A
:1003700000384444447F00385454540800087E092F
:1003800009000018A4A4A47C007F040478000000E5
:10039000007D4000004080847D00007F10284400E4
:1003A0000000007F4000007C04180478007C0404F6
:1003B000780000384444443800FC44444438003851
:1003C000444444FC00447844040800085454542035
:1003D00000043E442400003C40207C00001C2040DF
:1003E000201C003C6030603C006C10106C00009CD5
:1003F000A0603C00006454544C0000083E414100A1
:10040000000000770000000041413E0800020102A8
:100410000100003C2623263C001EA1E12112003DE4
:1004200040207D000038545455090020555555781A
:1004300000205554557800205555547800205755C4
:100440005778001CA2E22214003855555508003890
:10045000555455080038555554080000017C41009A
:100460000000017D41000000017C40000070292453
:10047000297000782F252F78007C5454554500347E
:10048000547C5458007E097F49490038454539005D
:10049000003845443900003945443800003C4121CA
:1004A0007D00003D41207C00009CA1603D00003D9E
:1004B00042423D00003C41403D0080706858380495
:1004C00000483E494962007E615D433F00221408B6
:1004D00014220040887E09020020545555780000FF
:1004E000007D4100003844453900003C40217D003A
:1004F000007A090A7100007A112279000008555526
:10050000555E004E51514E000030484D40203E4156
:100510005D4B553E04040404041C0017084C6A504B
:10052000001708342A780000307D300000081400DD
:100530000814001408001408441144114411AA5569
:10054000AA55AA55BBEEBBEEBBEE000000FF0000B3
:10055000080808FF00000070282529700070292570
:1005600029700070292528703E415D55413E0AFBE7
:1005700000FF000000FF00FF00000AFA02FE00007A
:100580000A0B080F000000182466240000292A7CAA
:100590002A29080808F800000000000F08080808C9
:1005A000080F0808080808F80808000000FF0808F5
:1005B000080808080808080808FF08080020565519
:1005C000567900702A252A71000F080B0A0A00FECE
:1005D00002FA0A0A0A0B080B0A0A0AFA02FA0A0ABB
:1005E00000FF00FB0A0A0A0A0A0A0A0A0AFB00FBC1
:1005F0000A0A005D2222225D0022555930000008BF
:100600007F49413E007C55555544007C5554554426
:10061000007C555554440000000700000000447D54
:1006200045000000457D45000000457C4500080868
:10063000080F0000000000F80808FFFFFFFFFFFFA1
:10064000F0F0F0F0F0F00000007700000000457DD1
:1006500044000F0F0F0F0F0F003C42433D0000FE00
:100660004A4A3400003C43433D00003D43423C00C5
:100670000032494A3100003A4546390000FC20204A
:100680001C0000FEAA28100000FFA5241800003C52
:1006900040413D00003C41413D00003D41403C00A7
:1006A000009CA0613D0000040871090400000202E2
:1006B0000200000007030000000008080800000016
:1006C000242E240000242424242405170A342A7804
:1006D0000006097F017F00224D5559220008082A93
:1006E00008080000081818000006090906000000A4
:1006F0000800080000000800000000020F000000D1
:1007000000090F05000000090D0A0000003C3C3CF8
:100710003C0000000000000011241FBECFEFD0E419
:10072000DEBFCDBF11E0A0E0B1E0E4E0F5E100E024
:100730000BBF02C007900D92A03AB107D9F726E08F
:10074000A0EAB1E001C01D92AB35B207E1F73FD19D
:10075000D7C656CC85E1E1D28AE091E093D284EF0E
:1007600090E090D289EE90E08DD28AED90E08AD22E
:100770008DEC90E087D2CAD167E084E194D280E129
:1007800023D2C4D10399FECF039BFECF2FEF89EF75
:1007900090E0215080409040E1F700C000000399B4
:1007A000FECF089587B18C6387B988B1837C88B9FF
:1007B000089588B1877E88B942988AE18A95F1F7D1
:1007C00000C0429A8AE18A95F1F700C042988AE116
:1007D0008A95F1F700C044988AE18A95F1F700C044
:1007E000449A8AE18A95F1F700C044988AE18A9593
:1007F000F1F700C0459843988AE18A95F1F700C067
:10080000439A8AE18A95F1F700C043988AE18A9574
:10081000F1F700C00895C2D160E080E044D28EEBD1
:1008200090E030D28EEA90E02DD267E084E13BD2B6
:1008300080E1CAD16BD178948091BA018130E1F71F
:100840008091BB052091BC0590E0982F8827820FEE
:10085000911D9093A3018093A2012091BD05409129
:10086000BE0530E0322F2227240F311D3093A10125
:100870002093A001A0E0B0E0DC0199278827820F37
:10088000931FA11DB11D8093A4019093A501A09376
:10089000A601B093A70183E090E052D41092BA0170
:1008A000089520E030E04AE754E450D42DEB37E3DC
:1008B00046E057E46DD5B2D4439828E030E060FFBD
:1008C00002C0459A01C04598449A449866952150C3
:1008D00031092115310599F728E030E070FF02C099
:1008E000459A01C04598449A44987695215031091B
:1008F0002115310599F728E030E080FF02C0459AC4
:1009000001C04598449A44988695869521503109AE
:100910002115310591F7292F88E090E020FF02C0D2
:10092000459A01C04598449A4498269501970097A6
:10093000A9F788E090E04598449A44980197009779
:10094000D1F7439A8AE18A95F1F700C04398089558
:10095000CF93DF93CDB7DEB7A0970FB6F894DEBF85
:100960000FBECDBF1BD180E1D8D160E080E09BD12C
:1009700086E990E087D16091A4017091A5018091F2
:10098000A6019091A70128EE33E040E050E063D546
:10099000DA01C9014AE0BE016F5F7F4F7ED5CE010B
:1009A000019662D18CE890E06DD180E10DD1AED09E
:1009B0008FE39CE90197F1F700C00000A0960FB605
:1009C000F894DEBF0FBECDBFDF91CF91089581B106
:1009D000877081B982B1886F82B98FE084B985B19F
:1009E0008F6085B976D192D3B5DEDCDEE2DE13DF2F
:1009F000079914C08091A4019091A501A091A6012E
:100A0000B091A701805C9D4BA04FBF4F8093A40184
:100A10009093A501A093A601B093A7012FEF81EEBB
:100A200094E0215080409040E1F700C0000006991A
:100A300014C08091A4019091A501A091A601B0914C
:100A4000A70180549244AF40B1098093A4019093D0
:100A5000A501A093A601B093A7012FEF81EE94E02A
:100A6000215080409040E1F700C00000059914C07B
:100A70008091A4019091A501A091A601B091A70138
:100A8000805A9648A140B1098093A4019093A50192
:100A9000A093A601B093A7012FEF89EF90E021501A
:100AA00080409040E1F700C00000049914C080919C
:100AB000A4019091A501A091A601B091A701805633
:100AC0009947AE4FBF4F8093A4019093A501A09387
:100AD000A601B093A7012FEF81EE94E02150804052
:100AE0009040E1F700C00000039B95DE6091A401F7
:100AF0007091A5018091A6019091A701BBD3D1DE91
:100B000027DF76CF249A2C9A14C10895AF92BF9212
:100B1000CF92EF92FF921F93CF93DF93CFB6F894CB
:100B20000F2EFBE3EF2EF5E0FF2EF02D0F2EF7E05A
:100B3000AF2EB12CF02D8091AA0190E00A2C02C0BA
:100B4000959587950A94E2F780FF12C046984798DA
:100B50008A2D806B00D180E1FED080E0FCD0479AE6
:100B6000E70110E08991F7D01F5F1038D9F7469A56
:100B700081E0A81AB10880E8E81AF1088FEFA816FA
:100B8000B806C9F61092AA01CFBEDF91CF911F918E
:100B9000FF90EF90CF90BF90AF900895EBEBF1E016
:100BA0002BEB35E008C01192E817F907E1F7281799
:100BB000390729F0FC01CF0180589F4FF4CF8FEF08
:100BC0008093AA01A3CF08958A3029F08D3061F473
:100BD0001092A90108958091A801873008F043C0C0
:100BE0008F5F8093A80108959091A8012091A90199
:100BF00030E0D901AA0FBB1F2A0F3B1FD901AA0F52
:100C0000BB1F20E8929FA00DB11D1124A554BE4F1B
:100C100090E09C01220F331F820F931F9C01220F33
:100C2000331F80E090E0285E3E4FF901E80FF91F86
:100C3000E491ED93019686309105B9F781E090E05B
:100C40000090A80102C0880F991F0A94E2F79091C2
:100C5000AA01892B8093AA018091A901843118F4FB
:100C60008F5F8093A9010895CF93DF93EC01888172
:100C7000882329F08991A8DF88818111FBCFDF913A
:100C8000CF910895CF93DF93FC018491EF012196DA
:100C9000882331F099DFFE01849121968111FACFEA
:100CA000DF91CF9108958093A9016093A8010895E1
:100CB0006BD084EC84D081E19FD080E09DD080E037
:100CC0009BD080E099D080E097D080E095D0B1C0F3
:100CD0000895CF932ED087B1806C87B9CFB7F894A1
:100CE0004798469882EE37D083EA35D081E833D0F2
:100CF00088E031D080EA2FD088EC2DD085E22BD04F
:100D00008FE229D08FEA27D0469A479A47DFCFBF94
:100D100027D0CEDFF7DECF910895CF93C82F34D000
:100D200084EC4DD085E168D08C2F66D082D0CF91F5
:100D300008958091AB0180FD0DC084B1806A84B9B3
:100D400080E58CBD81E08DBD81E090E09093AC01A9
:100D50008093AB0108958EBD0DB407FEFDCF0895BD
:100D600087B18C7F87B988B1836088B983E080932D
:100D7000B80087E08093B10082E0809370008DE737
:100D80008093B300789408958AE08093AD0184EA5B
:100D90008093BC00ECEBF0E08091AD01882319F06A
:100DA00080818823CCF78091AD01882329F0809140
:100DB000B900887F90E008958FEF9FEF08959AE043
:100DC0009093AD018093BB0084E88093BC00ECEB72
:100DD000F0E08091AD01882319F080818823CCF761
:100DE0008091AD01882329F08091B900887F90E03F
:100DF00008958FEF9FEF08959AE09093AD0180934F
:100E0000BB0084E88093BC00ECEBF0E08091AD0186
:100E1000882319F080818823CCF78091AD01882345
:100E200029F08091B900887F90E008958FEF9FEFBF
:100E300008958AE08093AD0184E98093BC00089511
:100E40001F920F920FB60F9211240BB60F928F9331
:100E5000EF93FF93E3EBF0E08081835880838091F0
:100E6000AD01882329F08091AD0181508093AD01BF
:100E7000FF91EF918F910F900BBE0F900FBE0F90CF
:100E80001F9018951F920F920FB60F9211240BB658
:100E90000F922F938F939F93EF93FF939091C600A0
:100EA0009D3019F18091B901813019F49093B80106
:100EB00018C02EEF280F203A80F42091B80123307B
:100EC00061F4E82FF0E0E754FA4F9083908120918D
:100ED000B70192279093B70104C0823A11F490931E
:100EE000B6018F5F8093B90112C09091B7018091D4
:100EF000B601981303C081E08093BA011092B90142
:100F00001092B8018BEB8093B6011092B701FF915C
:100F1000EF919F918F912F910F900BBE0F900FBE6D
:100F20000F901F9018951F920F920FB60F921124D9
:100F30000BB60F922F938F939F93EF93FF93E091B4
:100F4000B501E03AB0F4F0E0E050FF4F80818093CB
:100F5000C6008091B501E82FF0E0E050FF4F90818E
:100F60002091B40192279093B4018F5F8093B501D3
:100F70001DC0E03A51F48091B4018093C600809185
:100F8000B5018F5F8093B50111C0E13A49F48DE05E
:100F90008093C6008091B5018F5F8093B50106C034
:100FA0001092B4011092B5011092BA01FF91EF9125
:100FB0009F918F912F910F900BBE0F900FBE0F90AE
:100FC0001F9018951F920F920FB60F9211240BB617
:100FD0000F922F938F939F93EF93FF939091CE0057
:100FE0009D3019F18091B301813019F49093B201D1
:100FF00018C02EEF280F203A80F42091B201233040
:1010000061F4E82FF0E0E754FA4F9083908120914B
:10101000B10192279093B10104C0823A11F49093E8
:10102000B0018F5F8093B30116C09091B1018091A0
:10103000B001981307C08091B201833019F481E0A8
:101040008093BA011092B3011092B2018BEB80939E
:10105000B0011092B101FF91EF919F918F912F916B
:101060000F900BBE0F900FBE0F901F9018951F9200
:101070000F920FB60F9211240BB60F922F938F93EE
:101080009F93EF93FF93E091AF01E03AB0F4F0E06B
:10109000E050FF4F80818093CE008091AF01E82F18
:1010A000F0E0E050FF4F90812091AE0192279093A5
:1010B000AE018F5F8093AF011DC0E03A51F4809183
:1010C000AE018093CE008091AF018F5F8093AF011E
:1010D00011C0E13A49F48DE08093CE008091AF01D8
:1010E0008F5F8093AF0106C01092AE011092AF01E6
:1010F0001092BA01FF91EF919F918F912F910F90D4
:101100000BBE0F900FBE0F901F901895E8ECF0E00B
:101110008081808388ED8093C90086E08093CA0037
:101120001092CD0081E08093CC000895E8ECF0E0CF
:10113000908195FFFDCFF8948093CE007894089528
:101140008AEAF4DF83E0F2DF81E008950CD0E6C0A4
:10115000DED040F0D5D030F021F45F3F19F0C7C0A9
:10116000511110C1CAC0EBD098F39923C9F355238C
:10117000B1F3951B550BBB27AA276217730784078A
:1011800038F09F5F5F4F220F331F441FAA1FA9F340
:1011900033D00E2E3AF0E0E830D091505040E69532
:1011A000001CCAF729D0FE2F27D0660F771F881F93
:1011B000BB1F261737074807AB07B0E809F0BB0B82
:1011C000802DBF01FF2793585F4F2AF09E3F5105A6
:1011D00068F08DC0D7C05F3FECF3983EDCF3869596
:1011E00077956795B795F7959F5FC9F7880F911D1C
:1011F0009695879597F90895E1E0660F771F881F08
:10120000BB1F621773078407BA0720F0621B730BBA
:10121000840BBA0BEE1F88F7E095089598D088F0FC
:101220009F5790F0B92F9927B751A0F0D1F0660FD2
:10123000771F881F991F1AF0BA95C9F712C0B130ED
:1012400081F09FD0B1E008959CC0672F782F882748
:10125000B85F39F0B93FCCF3869577956795B3952C
:10126000D9F73EF490958095709561957F4F8F4F9B
:101270009F4F0895E89409C097FB3EF490958095A0
:10128000709561957F4F8F4F9F4F9923A9F0F92F4C
:1012900096E9BB279395F695879577956795B795CA
:1012A000F111F8CFFAF4BB0F11F460FF1BC06F5FB0
:1012B0007F4F8F4F9F4F16C0882311F096E911C0C2
:1012C000772321F09EE8872F762F05C0662371F0E3
:1012D00096E8862F70E060E02AF09A95660F771FF7
:1012E000881FDAF7880F9695879597F9089597F9EB
:1012F0009F6780E870E060E008959FEF80EC0895BC
:1013000000240A94161617061806090608950024E4
:101310000A9412161306140605060895092E03945E
:10132000000C11F4882352F0BB0F40F4BF2B11F4D2
:1013300060FF04C06F5F7F4F8F4F9F4F089557FD31
:101340009058440F551F59F05F3F71F04795880F33
:1013500097FB991F61F09F3F79F0879508951216CA
:1013600013061406551FF2CF4695F1DF08C0161676
:1013700017061806991FF1CF869571056105089427
:101380000895E894BB2766277727CB0197F908953E
:101390000BD0C4CFB5DF28F0BADF18F0952309F0E1
:1013A000A6CFABCF1124EECFCADFA0F3959FD1F328
:1013B000950F50E0551F629FF001729FBB27F00D03
:1013C000B11D639FAA27F00DB11DAA1F649F662758
:1013D000B00DA11D661F829F2227B00DA11D621FA7
:1013E000739FB00DA11D621F839FA00D611D221F61
:1013F000749F3327A00D611D231F849F600D211D45
:10140000822F762F6A2F11249F5750408AF0E1F0E7
:1014100088234AF0EE0FFF1FBB1F661F771F881F30
:1014200091505040A9F79E3F510570F060CFAACF70
:101430005F3FECF3983EDCF3869577956795B7951B
:10144000F795E7959F5FC1F7FE2B880F911D969545
:10145000879597F90895A1E21A2EAA1BBB1BFD01DF
:101460000DC0AA1FBB1FEE1FFF1FA217B307E40783
:10147000F50720F0A21BB30BE40BF50B661F771FDB
:10148000881F991F1A9469F76095709580959095BB
:101490009B01AC01BD01CF010895BB274A3031F457
:1014A000992322F4BDE2909581959F4F01C0BB27FF
:1014B000FB015527AA27880F991FAA1FA41710F010
:1014C000A41B83955051B9F7A05DAA3308F0A95D1C
:1014D000A193009779F7B111B1931192CB0100C09C
:1014E000DC01FC01672F71917723E1F7329704C08B
:1014F0007C916D9370836291AE17BF07C8F3089516
:04150000F894FFCF8D
:1015040044696520446174656E2077657264656E14
:1015140020616C732073657269656C6C65722064FC
:1015240069676974616C657220446174656E737473
:10153400726F6D206D69742065696E656D206669D2
:1015440078656E205261686D656E20C3BC626572F9
:1015540074726167656E2C206465722061757320F6
:1015640065696E656D2053746172742D4269742CC3
:101574002066C3BC6E6620626973206D6178696DF4
:10158400616C206E65756E20446174656E62697469
:10159400732E0000000000000000000000000000A6
:04000003000007549E
:00000001FF
