:100000000C9483030C94A2030C94A2030C94A203FB
:100010000C94A2030C94A2030C94A2030C94A203CC
:100020000C94A2030C9467080C94A2030C94A203F2
:100030000C94A2030C94A2030C94A2030C94A203AC
:100040000C94A2030C94A2030C94A2030C94A2039C
:100050000C946E090C94A2030C94BF090C94A20397
:100060000C94A2030C94A2030C94A2030C94A2037C
:100070000C940E0A0C94A2030C945F0A0C94A20335
:100080000C94A2030C94A2030C94A20366726571F3
:1000900075656E6365200D0A2000696E7075747455
:1000A000696E6720746865200D0A0077616974695C
:1000B0006E6720666F72200D0A004C6920587565C6
:1000C0006A696E670D0A0057616E67205368696838
:1000D000616E670D0A004D656D626572733A0D0AB7
:1000E000004444532D5369676E616C67656E657299
:1000F00061746F720D0A0050726F6A65637420300C
:10010000343A0D0A00000000000000003E45514551
:100110003E003E6B6F6B3E001C3E7C3E1C00183C5C
:100120007E3C180030367F363000185C7E5C18004C
:1001300000000000000000000000000000000000BF
:10014000000000000000000030484A360E0006297A
:1001500079290600000000000000607E0A353F009B
:100160002A1C361C2A00007F3E1C0800081C3E7F0B
:10017000000014367F361400005F005F000006099F
:100180007F017F00224D55592200606060600000B1
:1001900014B6FFB6140004067F06040010307F304A
:1001A000100008083E1C0800081C3E0808007840A3
:1001B00040404000083E083E0800303C3F3C3000D4
:1001C000030F3F0F030000000000000000065F0661
:1001D0000000070300070300247E247E2400242B54
:1001E0006A12000063130864630036495620500009
:1001F000000703000000003E4100000000413E00F7
:100200000000083E1C3E080008083E08080000E008
:100210006000000008080808080000606000000096
:100220002010080402003E5149453E0000427F4034
:1002300000006251494946002249494936001814D4
:10024000127F10002F49494931003C4A494930008A
:100250000171090503003649494936000649492913
:100260001E00006C6C00000000EC6C000000081424
:1002700022410000242424242400004122140800E8
:100280000201590906003E415D551E007E11111103
:100290007E007F49494936003E41414122007F416D
:1002A00041413E007F49494941007F090909010058
:1002B0003E4149497A007F0808087F0000417F419C
:1002C0000000304040403F007F08142241007F4042
:1002D000404040007F0204027F007F0204087F004C
:1002E0003E4141413E007F09090906003E4151213E
:1002F0005E007F090919660026494949320001015B
:100300007F0101003F4040403F001F2040201F0070
:100310003F403C403F006314081463000708700826
:100320000700714945430000007F4141000002047D
:10033000081020000041417F0000040201020480F7
:100340008080808080000003070000002054545407
:1003500078007F44444438003844444428003844FA
:1003600044447F00385454540800087E09090000B2
:1003700018A4A4A47C007F040478000000007D4041
:1003800000004080847D00007F10284400000000B1
:100390007F4000007C04180478007C04047800008E
:1003A000384444443800FC4444443800384444440D
:1003B000FC00447844040800085454542000043ECF
:1003C000442400003C40207C00001C2040201C00F5
:1003D0003C6030603C006C10106C00009CA0603CE5
:1003E00000006454544C0000083E414100000000ED
:1003F000770000000041413E0800020102010000B8
:100400003C2623263C001EA1E12112003D40207D18
:100410000000385454550900205555557800205592
:10042000545578002055555478002057555778007A
:100430001CA2E22214003855555508003855545571
:10044000080038555554080000017C4100000001A7
:100450007D41000000017C400000702924297000CB
:10046000782F252F78007C545455450034547C5403
:1004700058007E097F494900384545390000384514
:10048000443900003945443800003C41217D0000DA
:100490003D41207C00009CA1603D00003D42423D6A
:1004A00000003C41403D0080706858380400483EE0
:1004B000494962007E615D433F0022140814220016
:1004C00040887E09020020545555780000007D4187
:1004D00000003844453900003C40217D00007A0985
:1004E0000A7100007A1122790000085555555E0006
:1004F0004E51514E000030484D40203E415D4B551D
:100500003E04040404041C0017084C6A5000170839
:10051000342A780000307D300000081400081400F0
:100520001408001408441144114411AA55AA55AAEC
:1005300055BBEEBBEEBBEE000000FF000008080854
:10054000FF000000702825297000702925297000FF
:1005500070292528703E415D55413E0AFB00FF0091
:100560000000FF00FF00000AFA02FE00000A0B086C
:100570000F000000182466240000292A7C2A29087C
:100580000808F800000000000F08080808080F0815
:1005900008080808F80808000000FF08080808080C
:1005A000080808080808FF08080020565556790072
:1005B000702A252A71000F080B0A0A00FE02FA0AA7
:1005C0000A0A0B080B0A0A0AFA02FA0A0A00FF00D2
:1005D000FB0A0A0A0A0A0A0A0A0AFB00FB0A0A00BC
:1005E0005D2222225D00225559300000087F4941DA
:1005F0003E007C55555544007C55545544007C556F
:100600005554440000000700000000447D450000F0
:1006100000457D45000000457C45000808080F00A6
:1006200000000000F80808FFFFFFFFFFFFF0F0F0F8
:10063000F0F0F00000007700000000457D44000F5E
:100640000F0F0F0F0F003C42433D0000FE4A4A349B
:1006500000003C43433D00003D43423C0000324922
:100660004A3100003A4546390000FC20201C0000B9
:10067000FEAA28100000FFA5241800003C40413DC0
:1006800000003C41413D00003D41403C00009CA039
:10069000613D00000408710904000002020200002C
:1006A00000070300000000080808000000242E24B2
:1006B0000000242424242405170A342A780006097B
:1006C0007F017F00224D5559220008082A080800A2
:1006D00000081818000006090906000000080008B4
:1006E0000000000800000000020F00000000090FD9
:1006F00005000000090D0A0000003C3C3C3C0000E5
:1007000000000000000011241FBECFEFD0E4DEBFC8
:10071000CDBF11E0A0E0B1E0E4EAF5E100E00BBFFD
:1007200002C007900D92A03AB107D9F725E0A0EAE0
:10073000B1E001C01D92AB3DB207E1F70E9457093D
:100740000C94D00A0C9400000F931F93CF93DF9367
:10075000EB01142F052F0E94E307CE01880F892F8C
:10076000881F990B91958F710E94E3079E01220FBC
:10077000822F0170802B0E94E307812F0E94E307E4
:10078000DF91CF911F910F9108952C9887ED0E94D2
:10079000E30780E00E94E8078823DCF72C9A08959D
:1007A000249A2C9A0E94D10708951F93CF93DF9328
:1007B000EC01162F0E94C5032C98123039F083E803
:1007C000BE0140E050E00E94A40306C086E8BE01DE
:1007D00040E050E00E94A4032C9ADF91CF911F913A
:1007E00008951F93CF93DF93EC01162F0E94C5034A
:1007F0002C98123039F083E5BE0140E050E00E94B1
:10080000A40306C085E5BE0140E050E00E94A403B9
:100810002C9ADF91CF911F910895DF92EF92FF9272
:100820000F931F93CF93DF93F82E8B01EA01E22EF3
:10083000D32E0E94C5032C988F2D823039F081ED84
:1008400060E070E0A8010E94A40306C083ED60E0B0
:1008500070E0A8010E94A403209751F00E2D1D2DD9
:1008600080E00E94E807F80181938F012197C1F78A
:100870002C9ADF91CF911F910F91FF90EF90DF9015
:100880000895DF92EF92FF920F931F93CF93DF9320
:10089000F82E8B01EA01E22ED32E0E94C5032C987C
:1008A0008F2D823039F084E860E070E0A8010E946A
:1008B000A40306C087E860E070E0A8010E94A403DA
:1008C000209749F00E2D1D2DF80181918F010E9476
:1008D000E3072197C9F72C9ADF91CF911F910F91D0
:1008E000FF90EF90DF900895CF92DF92EF92FF920A
:1008F0000F931F93CF93DF938C017B01EA01D22EDC
:10090000C32E0E94C5032C9883E0B801A7010E9462
:10091000A403209751F00D2D1C2D80E00E94E807C4
:10092000F80181938F012197C1F72C9ADF91CF9124
:100930001F910F91FF90EF90DF90CF9008950E944C
:10094000C5032C9887EC0E94E30784E90E94E30723
:1009500080E80E94E3078AE90E94E3072C9A089541
:100960000E94E3070895CF92DF92EF92FF920F93D8
:100970001F93CF93DF930FB7F8940F2EF7E0CF2E8E
:10098000DD24F02D0F2EFBEBEF2EF1E0FF2EF02DEE
:100990008C2DE6012091A00130E00C2C02C0359591
:1009A00027950A94E2F720FF1EC046984798806B6F
:1009B0000E94B00480E10E94B00480E00E94B00474
:1009C000479A10E0D695DC2FCC27D795C795FE0126
:1009D000E10FF11DEE0DFF1D80810E94B0041F5F2D
:1009E0001038A9F7469A0894C108D1088FEFC816A5
:1009F0008FEFD80669F61092A0010FBFDF91CF915B
:100A00001F910F91FF90EF90DF90CF90089540E0FD
:100A100050E070E02BEB31E00EC0FC01E60FF11D61
:100A2000E20FF31F10826F5F6038B9F74F5F5F4FBF
:100A30004830510541F0672FCA019695982F8827B5
:100A400097958795EACF8FEF8093A0010E94B3041A
:100A5000089588230CF44CC0603408F049C0562F28
:100A6000569556955695677021E030E001C0220FEB
:100A70006A95EAF7442319F0423001F510C0E52FDA
:100A8000F0E0F695FE2FEE27F795E795E80FF11DBC
:100A9000E554FE4F20958081282320831DC0E52F3B
:100AA000F0E0F695FE2FEE27F795E795E80FF11D9C
:100AB000E554FE4F8081282720830EC0E52FF0E00B
:100AC000F695FE2FEE27F795E795E80FF11DE55413
:100AD000FE4F8081282B208381E090E002C0880FA8
:100AE000991F5A95E2F72091A001822B8093A001D3
:100AF00008958F929F92AF92BF92CF92DF92EF9222
:100B0000FF920F931F93CF93DF93182FF62EC42ECF
:100B1000822ED02E842F90E0811B910999231CF402
:100B2000909581959F4FB82E882D90E08F1991094F
:100B300099231CF4909581959F4FE82E1C1518F46D
:100B40009924939402C099249A94F81418F4AA242E
:100B5000A39402C0AA24AA94EB1434F40B2DBB2056
:100B60000CF40F5F05950FC08E2D992787FD90958A
:100B7000909581959F4F0AF4019695958795082F3A
:100B800002C0082F07C0CB2DDD27C7FDD095D0951B
:100B9000C195DF4F812F6F2D4D2D0E9429051C150A
:100BA00011F4F81491F0802F992787FD9095C817BC
:100BB000D90724F4802F8E19190D01C0802F0E152E
:100BC00004F7082F0B0DFA0CE5CFDF91CF911F91A1
:100BD0000F91FF90EF90DF90CF90BF90AF909F90DC
:100BE0008F9008957F928F929F92AF92BF92CF92F3
:100BF000DF92EF92FF920F931F93D82EF62E742E52
:100C0000122FC42E642F6F0D422F0E9429056F2DC5
:100C100067198D2D412F0E942905872D8D0D6F2D70
:100C2000412F0E9429058D2D87196F2D412F0E947C
:100C3000290517140CF04FC081E0982E9718719475
:100C4000770C0F2EF3E08F2EF02D00E0992024F08A
:100C5000CA9482E0780E970C0F5FB02EBD0CEC2C7E
:100C6000EF0C8B2D6E2D412F0E942905AD2CA01A63
:100C70008A2D6E2D412F0E942905EF2CEC188B2D0B
:100C80006E2D412F0E9429058A2D6E2D412F0E9425
:100C90002905BC2CBD0CE02EEF0C8B2D6E2D412FA9
:100CA0000E942905AD2CAC188A2D6E2D412F0E9473
:100CB0002905EF2CE01A8B2D6E2D412F0E9429055E
:100CC0008A2D6E2D412F0E9429050C1524F4980CB5
:100CD00082E0880EBBCF1F910F91FF90EF90DF90C5
:100CE000CF90BF90AF909F908F907F9008958A3063
:100CF00029F08D3059F41092A10108958091A2013C
:100D00008730B8F58F5F8093A201089526E0829F17
:100D1000F0011124EB5FFE4F8091A20190E09695C7
:100D2000982F882797958795A091A101A29FD00120
:100D30001124A80FB91FA554BE4F80E094919D9334
:100D40008F5F31968630D1F781E090E00090A2016C
:100D500002C0880F991F0A94E2F72091A001822B0C
:100D60008093A0018091A101843118F48F5F80935A
:100D7000A1010895CF93DF93EC018881882331F09E
:100D800089910E94770688818823D1F7DF91CF91DE
:100D90000895CF93DF93FC018491882349F0EF01FC
:100DA00021960E947706FE01849121968823C9F737
:100DB000DF91CF9108958093A1016093A2010895DE
:100DC000A0E090E06BEB71E0AC015695542F442706
:100DD000579547959C01FA01EA0FF11DE60FF71FA1
:100DE0001082AF5FA038B1F781E090E002C0880FB9
:100DF000991F2A95E2F72091A001822B8093A001F0
:100E000008950E94020884EC0E94200881E10E945B
:100E1000400880E00E94400880E00E94400880E096
:100E20000E94400880E00E94400880E00E94400844
:100E30000E94600808951F930E94D10787B1806CBB
:100E400087B91FB7F8944798469882EE0E94B0047D
:100E500083EA0E94B00481E80E94B00488E00E9406
:100E6000B00480EA0E94B00488EC0E94B00485E2DD
:100E70000E94B0048FE20E94B0048FEA0E94B00486
:100E8000469A479A0E9407051FBF0E94EE070E94DC
:100E900001070E94D0031F9108951F93182F0E94ED
:100EA000020884EC0E94200885E10E944008812FFE
:100EB0000E9440080E9460081F910895FF920F93BE
:100EC0001F93F82E062F142F0E94020884EC0E9414
:100ED0002008FF2021F083E10E94400803C081E147
:100EE0000E944008802F0E944008812F0E944008E5
:100EF0000E9460081F910F91FF900895EF92FF925A
:100F00000F931F93CF93DF938C01CBEBD1E00F2E88
:100F1000FBEBEF2EF5E0FF2EF02D82E060E070E0BD
:100F200040E850E09E010E944104C80162E00E9436
:100F3000D503C058DF4F0F5F1F4FCE15DF0569F790
:100F4000DF91CF911F910F91FF90EF900895EF9255
:100F5000FF920F931F93CF93DF938C01CBEBD1E0E4
:100F60000F2EFBEBEF2EF5E0FF2EF02DC80160E019
:100F700070E040E850E09E010E9474040F5F1F4F34
:100F8000C058DF4FCE15DF0589F78FEF8093A001A2
:100F90000E94B304DF91CF911F910F91FF90EF90CA
:100FA00008958091A30180FD0DC084B1806A84B949
:100FB00080E58CBD81E08DBD81E090E09093A4013F
:100FC0008093A30108958EBD0DB407FEFDCF089553
:100FD0008EBD0DB407FEFDCF8EB5089587B18C7F11
:100FE00087B988B1836088B983E08093B80087E0CF
:100FF0008093B10082E0809370008DE78093B3000E
:10100000789408958AE08093A50184EA8093BC00D7
:10101000ECEBF0E08091A501882319F08081882312
:10102000CCF78091A501882331F02091B90030E000
:10103000287F307002C02FEF3FEF822F932F08954B
:101040009AE09093A5018093BB0084E88093BC0054
:10105000ECEBF0E08091A501882319F080818823D2
:10106000CCF78091A501882331F02091B90030E0C0
:10107000287F307002C02FEF3FEF822F932F08950B
:101080009AE09093A5018093BB0084E88093BC0014
:10109000ECEBF0E08091A501882319F08081882392
:1010A000CCF78091A501882331F02091B90030E080
:1010B000287F307002C02FEF3FEF822F932F0895CB
:1010C0008AE08093A50184E98093BC0008951F9273
:1010D0000F920FB60F920BB60F9211248F93EF93CE
:1010E000FF93E3EBF0E08081835880838091A5013A
:1010F000882329F08091A50181508093A501FF915B
:10110000EF918F910F900BBE0F900FBE0F901F901D
:10111000189585E10E944D0787EF90E00E94C9066F
:1011200081EE90E00E94C90686ED90E00E94C9061B
:1011300087EC90E00E94C9068AEB90E00E94C90605
:101140000E94B30467E084E10E94DB0680E10E9414
:1011500077060E94B3040399FECF039BFECF2FEFC7
:1011600089EF90E0215080409040E1F700C00000FE
:101170000399FECF089587B18C6387B988B1837CCA
:1011800088B9089588B1877E88B942988AE18A959E
:10119000F1F700C0429A8AE18A95F1F700C04298BF
:1011A0008AE18A95F1F700C044988AE18A95F1F7BF
:1011B00000C0449A8AE18A95F1F700C044988AE118
:1011C0008A95F1F700C0459843988AE18A95F1F72E
:1011D00000C0439A8AE18A95F1F700C043988AE1FA
:1011E0008A95F1F700C008950E94070560E080E04D
:1011F0000E94DB068BEA90E00E94C9068AE990E033
:101200000E94C9068CE890E00E94C90667E084E16C
:101210000E94DB0680E10E9477060E94B304789466
:1012200008E110E0D3E0C0E08091BA018130E1F73D
:10123000C090AA01D090AB01E090AC01F090AD015C
:10124000402F512F2D2F3C2F02C06C017D01F90141
:10125000E554FA4F808190E0A0E0B0E0042E04C095
:10126000880F991FAA1FBB1F0A94D2F78C0D9D1DD2
:10127000AE1DBF1D21503109485051092F3F6FEF5E
:10128000360719F78093AA019093AB01A093AC01A4
:10129000B093AD01C092A601D092A701E092A8013F
:1012A000F092A9010E94C80A1092BA01BDCF81B183
:1012B000877081B982B1886F82B98FE084B985B1B6
:1012C0008F6085B90E941B070E94AE0A0E948908A0
:1012D0000E94BB080E94C2080E94F4081F920F924D
:1012E0000FB60F9211240BB60F922F938F939F93EB
:1012F000EF93FF939091C6009D3019F18091B90151
:10130000813019F49093B80118C02EEF280F2032C5
:1013100080F42091B801233061F4E82FF0E0E75425
:10132000FA4F908390812091B70192279093B70153
:1013300004C0823211F49093B6018F5F8093B9019B
:1013400012C09091B7018091B601981303C081E05B
:101350008093BA011092B9011092B8018BEB80937F
:10136000B6011092B701FF91EF919F918F912F914C
:101370000F900BBE0F900FBE0F901F9018951F92ED
:101380000F920FB60F9211240BB60F922F938F93DB
:101390009F93EF93FF93E091B501E032B0F4F0E05A
:1013A000E050FF4F80818093C6008091B501E82F07
:1013B000F0E0E050FF4F90812091B401922790938C
:1013C000B4018F5F8093B5011DC0E03251F480916C
:1013D000B4018093C6008091B5018F5F8093B50101
:1013E00011C0E13249F48DE08093C6008091B501CF
:1013F0008F5F8093B50106C01092B4011092B501C1
:101400001092BA01FF91EF919F918F912F910F90C0
:101410000BBE0F900FBE0F901F9018951F920F924A
:101420000FB60F9211240BB60F922F938F939F93A9
:10143000EF93FF939091CE009D3019F18091B3010D
:10144000813019F49093B20118C02EEF280F20328A
:1014500080F42091B201233061F4E82FF0E0E754EA
:10146000FA4F908390812091B10192279093B1011E
:1014700004C0823211F49093B0018F5F8093B30166
:1014800012C09091B1018091B001981303C081E026
:101490008093BA011092B3011092B2018BEB80934A
:1014A000B0011092B101FF91EF919F918F912F9117
:1014B0000F900BBE0F900FBE0F901F9018951F92AC
:1014C0000F920FB60F9211240BB60F922F938F939A
:1014D0009F93EF93FF93E091AF01E032B0F4F0E01F
:1014E000E050FF4F80818093CE008091AF01E82FC4
:1014F000F0E0E050FF4F90812091AE019227909351
:10150000AE018F5F8093AF011DC0E03251F4809136
:10151000AE018093CE008091AF018F5F8093AF01C9
:1015200011C0E13249F48DE08093CE008091AF018B
:101530008F5F8093AF0106C01092AE011092AF0191
:101540001092BA01FF91EF919F918F912F910F907F
:101550000BBE0F900FBE0F901F901895E0ECF0E0BF
:101560008081808388ED8093C10086E08093C200F3
:101570001092C50087E68093C4000895E0ECF0E087
:10158000908195FFFDCFF8948093C60078940895DC
:101590008AEA0E94BE0A83E00E94BE0A81E00895A2
:0415A000F894FFCFED
:1015A40044696520446174656E2077657264656E74
:1015B40020616C732073657269656C6C657220645C
:1015C40069676974616C657220446174656E7374D3
:1015D400726F6D206D69742065696E656D20666932
:1015E40078656E205261686D656E20C3BC62657259
:1015F40074726167656E2C20646572206175732056
:1016040065696E656D2053746172742D4269742C22
:101614002066C3BC6E6620626973206D6178696D53
:10162400616C206E65756E20446174656E626974C8
:10163400732E000000000000000000000000000005
:0400000300001112D6
:00000001FF
