S00B00003030332E7372656386
S11300000C946C050C948B050C948B050C948B054B
S11300100C948B050C948B050C948B050C948B051C
S11300200C948B050C94A5070C948B050C948B05F0
S11300300C948B050C948B050C948B050C948B05FC
S11300400C948B050C948B050C948B050C948B05EC
S11300500C94C7070C948B050C9418080C948B050E
S11300600C948B050C948B050C948B050C948B05CC
S11300700C9467080C948B050C94B8080C948B05AD
S11300800C948B050C948B050C948B054C692058AF
S113009075656A696E670D0A0057616E672053685B
S11300A06968616E670D0A004D656D626572733A29
S11300B00D0A004444532D5369676E616C67656E85
S11300C0657261746F720D0A0050726F6A656374B1
S11300D02030343A0D0A00FF808080808080808048
S11300E0C0808080808080808080C080808080808C
S11300F080808080C0808080808080808080C0807C
S11301008080808080808080D58080808080808096
S11301108080C0808080808080808080C08080805B
S1130120808080808080C08080808080808080808B
S1130130C080808080808080808080FF00000F1FCE
S113014031311F0F00003F3F00003F3F0000203FC0
S11301503F22233F1C0000FF1000000000000000AD
S1130160100000000000000000001000000000006B
S1130170000000001000000000000000000010005B
S113018000000000000000105510000000000000F6
S1130190000010000000000000000000100000003B
S11301A0000000000000100000000000000000003B
S11301B01000000000000000000010FF0000E3E455
S11301C00403E0E0000080C06060C080000020E024
S11301D0E00000E0E00000FF040000000000000078
S11301E00400000000000000000004000000000003
S11301F000000000040000000000000000000400F3
S1130200000000000000000455040000000000008D
S113021000000400000000000000000004000000D2
S113022000000000000004000000000000000000C6
S11302300400000000000000000004FF00009844D7
S113024044380078848484007884847800FF84842B
S113025078007894947400FF01000100010001000B
S1130260030001000100010001000300010001007E
S1130270010001000300010001000100010003006E
S1130280010001000100010055000100010001000E
S1130290010003000100010001000100030001004E
S11302A00100010001000300010001000100010040
S11302B00300010001000100010001FF00000F0A1A
S11302C00800000F0A0D00000F0A080000070808C4
S11302D007000000000000FF000000000000000014
S11302E0800000000000000000008000000000000A
S11302F000000000800000000000000000008000FA
S11303000000000000000000550000000000000094
S113031000008000000000000000000080000000D9
S11303200000000000008000000000000000000049
S11303308000000000000000000000FF00008000BA
S11303400000008000800000808080000000808029
S113035080800000000000FF40000000000000005A
S11303604000000000000000000040000000000009
S113037000000000400000000000000000004000F9
S11303800000000000000040554000000000000094
S113039000004000000000000000000040000000D9
S11303A00000000000004000000000000000000009
S11303B04000000000000000000040FF00000000BA
S11303C00000000000000000000000000000000029
S11303D000000000000000FF10000000000000000A
S11303E010000000000000000000100000000000E9
S11303F000000000100000000000000000001000D9
S11304000000000000000010551000000000000073
S113041000001000000000000000000010000000B8
S113042000000000000010000000000000000000B8
S11304301000000000000000000010FF0000000099
S113044000000000000000000000000000000000A8
S113045000000000000000FF010101010101010191
S11304600501010101010101010105010101010170
S11304700101010105010101010101010101050160
S11304800101010101010101550101010101010104
S11304900101050101010101010101010501010140
S11304A00101010101010501010101010101010134
S11304B00501010101010101010101FF000000002A
S11304C00000000000000000000000000000000028
S11304D000000000000000000000000000003E4595
S11304E051453E003E6B6F6B3E001C3E7C3E1C0043
S11304F0183C7E3C180030367F363000185C7E5C39
S113050018000000000000000000000000000000CF
S11305100000000000000000000030484A360E00D1
S1130520062979290600000000000000607E0A35D3
S11305303F002A1C361C2A00007F3E1C0800081CB1
S11305403E7F000014367F361400005F005F000019
S113055006097F017F00224D5559220060606060CA
S1130560000014B6FFB6140004067F060400103021
S11305707F30100008083E1C0800081C3E080800D4
S1130580784040404000083E083E0800303C3F3C74
S11305903000030F3F0F03000000000000000006BE
S11305A05F060000070300070300247E247E240066
S11305B0242B6A1200006313086463003649562032
S11305C05000000703000000003E4100000000410D
S11305D03E000000083E1C3E080008083E080800D3
S11305E000E06000000008080808080000606000DF
S11305F000002010080402003E5149453E0000421C
S11306007F40000062514949460022494949360069
S11306101814127F10002F49494931003C4A4949B6
S1130620300001710905030036494949360006497D
S113063049291E00006C6C00000000EC6C000000F6
S113064008142241000024242424240000412214FC
S113065008000201590906003E415D551E007E1145
S113066011117E007F49494936003E414141220033
S11306707F4141413E007F49494941007F090909C1
S113068001003E4149497A007F0808087F00004183
S11306907F410000304040403F007F081422410069
S11306A07F40404040007F0204027F007F02040834
S11306B07F003E4141413E007F09090906003E4159
S11306C051215E007F090919660026494949320013
S11306D001017F0101003F4040403F001F204020B6
S11306E01F003F403C403F006314081463000708A8
S11306F070080700714945430000007F4141000034
S11307000204081020000041417F0000040201029D
S11307100480808080808000000307000000205453
S1130720545478007F4444443800384444442800F6
S1130730384444447F00385454540800087E09095E
S1130740000018A4A4A47C007F0404780000000026
S11307507D4000004080847D00007F10284400001C
S113076000007F4000007C04180478007C040478B6
S11307700000384444443800FC44444438003844BD
S11307804444FC00447844040800085454542000B1
S1130790043E442400003C40207C00001C204020F7
S11307A01C003C6030603C006C10106C00009CA08D
S11307B0603C00006454544C0000083E4141000079
S11307C00000770000000041413E080002010201E0
S11307D000003C2623263C001EA1E12112003D40DE
S11307E0207D000038545455090020555555780093
S11307F020555455780020555554780020575557A6
S113080078001CA2E22214003855555508003855CA
S11308105455080038555554080000017C41000027
S113082000017D41000000017C4000007029242962
S11308307000782F252F78007C545455450034548B
S11308407C5458007E097F494900384545390000E9
S11308503845443900003945443800003C41217D85
S113086000003D41207C00009CA1603D00003D4211
S1130870423D00003C41403D00807068583804000F
S1130880483E494962007E615D433F0022140814DA
S1130890220040887E09020020545555780000004B
S11308A07D4100003844453900003C40217D000072
S11308B07A090A7100007A11227900000855555509
S11308C05E004E51514E000030484D40203E415D87
S11308D04B553E04040404041C0017084C6A5000E1
S11308E01708342A780000307D300000081400080E
S11308F014001408001408441144114411AA55AA00
S113090055AA55BBEEBBEEBBEE000000FF0000088D
S11309100808FF0000007028252970007029252987
S1130920700070292528703E415D55413E0AFB0048
S1130930FF000000FF00FF00000AFA02FE00000AA8
S11309400B080F000000182466240000292A7C2AC2
S113095029080808F800000000000F080808080823
S11309600F0808080808F80808000000FF0808082D
S11309700808080808080808FF0808002056555603
S11309807900702A252A71000F080B0A0A00FE025A
S1130990FA0A0A0A0B080B0A0A0AFA02FA0A0A00F5
S11309A0FF00FB0A0A0A0A0A0A0A0A0AFB00FB0AEF
S11309B00A005D2222225D00225559300000087F82
S11309C049413E007C55555544007C5554554400DE
S11309D07C555554440000000700000000447D4548
S11309E0000000457D45000000457C4500080808DE
S11309F00F0000000000F80808FFFFFFFFFFFFF0F2
S1130A00F0F0F0F0F00000007700000000457D44B5
S1130A10000F0F0F0F0F0F003C42433D0000FE4A32
S1130A204A3400003C43433D00003D43423C000047
S1130A3032494A3100003A4546390000FC20201C66
S1130A400000FEAA28100000FFA5241800003C4066
S1130A50413D00003C41413D00003D41403C00001F
S1130A609CA0613D00000408710904000002020218
S1130A70000000070300000000080808000000242C
S1130A802E240000242424242405170A342A780060
S1130A9006097F017F00224D5559220008082A08C3
S1130AA008000008181800000609090600000008DC
S1130AB000080000000800000000020F0000000011
S1130AC0090F05000000090D0A0000003C3C3C3CF5
S1130AD0000000000000000011241FBECFEFD0E48E
S1130AE0DEBFCDBF11E0A0E0B1E0E2E3F2E100E05F
S1130AF00BBF02C007900D92A03AB107D9F726E0C8
S1130B00A0EAB1E001C01D92A335B207E1F70E944B
S1130B10E2050C9417090C94000085E10E940D076E
S1130B2089EC90E00E94AA0683EB90E00E94AA065A
S1130B3088EA90E00E94AA0689E990E00E94AA0649
S1130B408CE890E00E94AA060E94FA0567E084E11E
S1130B500E94BC0680E10E9460060E94FA05039987
S1130B60FECF039BFECF2FEF89EF90E02150804012
S1130B709040E1F700C000000399FECF089585E19D
S1130B800E940D070E94490680E090E00DC0CF014D
S1130B900196E952FF4FE491ED93FC01821793070C
S1130BA0B1F72115344041F0DC01AD54BE4F9C0136
S1130BB020583F4FFC01EBCF8FEF8093A2010E949E
S1130BC0FA05FFCF81B1877081B982B1886F82B98C
S1130BD08FE084B985B18F6085B90E94DB060E94DD
S1130BE007090E948D050E94BF05249A2C9A0E9431
S1130BF01E070895BF92CF92DF92EF92FF920F9358
S1130C001F93CF93DF93BFB6F89403EB15E00F2E39
S1130C10F3EBCF2EF1E0DF2EF02D0F2EF7E0EF2EC9
S1130C20F12CF02D8091A20190E00E2C02C095953C
S1130C3087950A94E2F780FF17C0469847988E2D4F
S1130C40806B0E94300780E10E94300780E00E94A0
S1130C503007479AE801C058D10989910E943007AA
S1130C60C017D107D1F7469A81E0E81AF108005875
S1130C7011090C151D05B1F61092A201BFBEDF913A
S1130C80CF911F910F91FF90EF90DF90CF90BF9085
S1130C900895E3EBF1E023EB35E008C01192E81787
S1130CA0F907E1F7FC018217930721F0CF0180587F
S1130CB09F4FF4CF8FEF8093A2010E94FA0508950D
S1130CC08A3029F08D3061F41092A1010895809149
S1130CD0A001873008F03DC08F5F8093A001089584
S1130CE090E0FC01EE0FFF1FE80FF91FEE0FFF1F4E
S1130CF0E952FB4F8091A10190E0DC01AA0FBB1FD8
S1130D00A80FB91FAA0FBB1F8091A00190E8899F6B
S1130D10A00DB11D1124AD54BE4F80E094919D935C
S1130D208F5F31968630D1F781E090E00090A0018A
S1130D3002C0880F991F0A94E2F79091A201892BAF
S1130D408093A2018091A101843118F48F5F809374
S1130D50A1010895CF93DF93FC018491EF012196C3
S1130D60882339F00E946006FE0184912196811146
S1130D70F9CFDF91CF9108958093A1016093A001F1
S1130D8008950E94490784EC0E94640781E10E944F
S1130D90810780E00E94810780E00E94810780E053
S1130DA00E94810780E00E94810780E00E94810701
S1130DB00E949E070895CF930E941E0787B1806CFE
S1130DC087B9CFB7F8944798469882EE0E943007C7
S1130DD083EA0E94300781E80E94300788E00E947D
S1130DE0300780EA0E94300788EC0E94300785E2D1
S1130DF00E9430078FE20E9430078FEA0E9430077A
S1130E00469A479A0E944906CFBF0E9435070E941E
S1130E10C1060E94F505CF910895CF93C82F0E9473
S1130E20490784EC0E94640785E10E9481078C2FA6
S1130E300E9481070E949E07CF9108958091A3018B
S1130E4080FD0DC084B1806A84B980E58CBD81E0E9
S1130E508DBD81E090E09093A4018093A301089557
S1130E608EBD0DB407FEFDCF089587B18C7F87B981
S1130E7088B1836088B983E08093B80087E0809369
S1130E80B10082E0809370008DE78093B300789482
S1130E9008958AE08093A50184EA8093BC00ECEB7A
S1130EA0F0E08091A501882319F080818823CCF794
S1130EB08091A501882329F08091B900887F90E072
S1130EC008958FEF9FEF08959AE09093A501809382
S1130ED0BB0084E88093BC00ECEBF0E08091A501BA
S1130EE0882319F080818823CCF78091A501882379
S1130EF029F08091B900887F90E008958FEF9FEFEB
S1130F0008959AE09093A5018093BB0084E88093B0
S1130F10BC00ECEBF0E08091A501882319F08081FE
S1130F208823CCF78091A501882329F08091B9000A
S1130F30887F90E008958FEF9FEF08958AE0809373
S1130F40A50184E98093BC0008951F920F920FB607
S1130F500F9211240BB60F928F93EF93FF93E3EB51
S1130F60F0E08081835880838091A501882329F053
S1130F708091A50181508093A501FF91EF918F91FC
S1130F800F900BBE0F900FBE0F901F9018951F92DD
S1130F900F920FB60F9211240BB60F922F938F93CB
S1130FA09F93EF93FF939091C6009D3019F1809128
S1130FB0B101813019F49093B00118C02EEF280FBD
S1130FC0203A80F42091B001233061F4E82FF0E05E
S1130FD0EF54FA4F908390812091AF019227909320
S1130FE0AF0104C0823A11F49093AE018F5F8093F5
S1130FF0B10112C09091AF018091AE01981303C06A
S113100081E08093B2011092B1011092B0018BEB98
S11310108093AE011092AF01FF91EF919F918F9158
S11310202F910F900BBE0F900FBE0F901F9018952D
S11310301F920F920FB60F9211240BB60F922F939B
S11310408F939F93EF93FF93E091AD01E03AB0F457
S1131050F0E0E050FF4F80818093C6008091AD01A5
S1131060E82FF0E0E050FF4F90812091AC019227EF
S11310709093AC018F5F8093AD011DC0E03A51F4B1
S11310808091AC018093C6008091AD018F5F809305
S1131090AD0111C0E13A49F48DE08093C60080911E
S11310A0AD018F5F8093AD0106C01092AC01109228
S11310B0AD011092B201FF91EF919F918F912F9109
S11310C00F900BBE0F900FBE0F901F9018951F929C
S11310D00F920FB60F9211240BB60F922F938F938A
S11310E09F93EF93FF939091CE009D3019F18091DF
S11310F0AB01813019F49093AA0118C02EEF280F88
S1131100203A80F42091AA01233061F4E82FF0E022
S1131110EF54FA4F908390812091A90192279093E4
S1131120A90104C0823A11F49093A8018F5F8093BF
S1131130AB0112C09091A9018091A801981303C03A
S113114081E08093B2011092AB011092AA018BEB63
S11311508093A8011092A901FF91EF919F918F9123
S11311602F910F900BBE0F900FBE0F901F901895EC
S11311701F920F920FB60F9211240BB60F922F935A
S11311808F939F93EF93FF93E091A701E03AB0F41C
S1131190F0E0E050FF4F80818093CE008091A70162
S11311A0E82FF0E0E050FF4F90812091A6019227B4
S11311B09093A6018F5F8093A7011DC0E03A51F47C
S11311C08091A6018093CE008091A7018F5F8093C8
S11311D0A70111C0E13A49F48DE08093CE008091DB
S11311E0A7018F5F8093A70106C01092A6011092F9
S11311F0A7011092B201FF91EF919F918F912F91CE
S11312000F900BBE0F900FBE0F901F901895E0EC3F
S1131210F0E08081808388ED8093C10086E0809334
S1131220C2001092C50081E08093C4000895F89430
S1051230FFCFEA
S113123244696520446174656E2077657264656EE5
S113124220616C732073657269656C6C65722064CD
S113125269676974616C657220446174656E737444
S1131262726F6D206D69742065696E656D206669A3
S113127278656E205261686D656E20C3BC626572CA
S113128274726167656E2C206465722061757320C7
S113129265696E656D2053746172742D4269742C94
S11312A22066C3BC6E6620626973206D6178696DC5
S11312B2616C206E65756E20446174656E6269743A
S11312C2732E000000000000000000000000000077
S9030B1AD7
