S00B00003030332E7372656386
S11300000C946C030C948B030C948B030C948B0353
S11300100C948B030C948B030C948B030C948B0324
S11300200C948B030C949F080C948B030C948B03FB
S11300300C948B030C948B030C948B030C948B0304
S11300400C948B030C948B030C948B030C948B03F4
S11300500C94C1080C948B030C9412090C948B031C
S11300600C948B030C948B030C948B030C948B03D4
S11300700C9461090C948B030C94B2090C948B03BB
S11300800C948B030C948B030C948B034C692058B5
S113009075656A696E670D0A0057616E672053685B
S11300A06968616E670D0A004D656D626572733A29
S11300B00D0A004444532D5369676E616C67656E85
S11300C0657261746F720D0A0050726F6A656374B1
S11300D02030343A0D0A00000000000000003E45C4
S11300E051453E003E6B6F6B3E001C3E7C3E1C0047
S11300F0183C7E3C180030367F363000185C7E5C3D
S113010018000000000000000000000000000000D3
S11301100000000000000000000030484A360E00D5
S1130120062979290600000000000000607E0A35D7
S11301303F002A1C361C2A00007F3E1C0800081CB5
S11301403E7F000014367F361400005F005F00001D
S113015006097F017F00224D5559220060606060CE
S1130160000014B6FFB6140004067F060400103025
S11301707F30100008083E1C0800081C3E080800D8
S1130180784040404000083E083E0800303C3F3C78
S11301903000030F3F0F03000000000000000006C2
S11301A05F060000070300070300247E247E24006A
S11301B0242B6A1200006313086463003649562036
S11301C05000000703000000003E41000000004111
S11301D03E000000083E1C3E080008083E080800D7
S11301E000E06000000008080808080000606000E3
S11301F000002010080402003E5149453E00004220
S11302007F4000006251494946002249494936006D
S11302101814127F10002F49494931003C4A4949BA
S11302203000017109050300364949493600064981
S113023049291E00006C6C00000000EC6C000000FA
S11302400814224100002424242424000041221400
S113025008000201590906003E415D551E007E1149
S113026011117E007F49494936003E414141220037
S11302707F4141413E007F49494941007F090909C5
S113028001003E4149497A007F0808087F00004187
S11302907F410000304040403F007F08142241006D
S11302A07F40404040007F0204027F007F02040838
S11302B07F003E4141413E007F09090906003E415D
S11302C051215E007F090919660026494949320017
S11302D001017F0101003F4040403F001F204020BA
S11302E01F003F403C403F006314081463000708AC
S11302F070080700714945430000007F4141000038
S11303000204081020000041417F000004020102A1
S11303100480808080808000000307000000205457
S1130320545478007F4444443800384444442800FA
S1130330384444447F00385454540800087E090962
S1130340000018A4A4A47C007F040478000000002A
S11303507D4000004080847D00007F102844000020
S113036000007F4000007C04180478007C040478BA
S11303700000384444443800FC44444438003844C1
S11303804444FC00447844040800085454542000B5
S1130390043E442400003C40207C00001C204020FB
S11303A01C003C6030603C006C10106C00009CA091
S11303B0603C00006454544C0000083E414100007D
S11303C00000770000000041413E080002010201E4
S11303D000003C2623263C001EA1E12112003D40E2
S11303E0207D000038545455090020555555780097
S11303F020555455780020555554780020575557AA
S113040078001CA2E22214003855555508003855CE
S11304105455080038555554080000017C4100002B
S113042000017D41000000017C4000007029242966
S11304307000782F252F78007C545455450034548F
S11304407C5458007E097F494900384545390000ED
S11304503845443900003945443800003C41217D89
S113046000003D41207C00009CA1603D00003D4215
S1130470423D00003C41403D008070685838040013
S1130480483E494962007E615D433F0022140814DE
S1130490220040887E09020020545555780000004F
S11304A07D4100003844453900003C40217D000076
S11304B07A090A7100007A1122790000085555550D
S11304C05E004E51514E000030484D40203E415D8B
S11304D04B553E04040404041C0017084C6A5000E5
S11304E01708342A780000307D3000000814000812
S11304F014001408001408441144114411AA55AA04
S113050055AA55BBEEBBEEBBEE000000FF00000891
S11305100808FF000000702825297000702925298B
S1130520700070292528703E415D55413E0AFB004C
S1130530FF000000FF00FF00000AFA02FE00000AAC
S11305400B080F000000182466240000292A7C2AC6
S113055029080808F800000000000F080808080827
S11305600F0808080808F80808000000FF08080831
S11305700808080808080808FF0808002056555607
S11305807900702A252A71000F080B0A0A00FE025E
S1130590FA0A0A0A0B080B0A0A0AFA02FA0A0A00F9
S11305A0FF00FB0A0A0A0A0A0A0A0A0AFB00FB0AF3
S11305B00A005D2222225D00225559300000087F86
S11305C049413E007C55555544007C5554554400E2
S11305D07C555554440000000700000000447D454C
S11305E0000000457D45000000457C4500080808E2
S11305F00F0000000000F80808FFFFFFFFFFFFF0F6
S1130600F0F0F0F0F00000007700000000457D44B9
S1130610000F0F0F0F0F0F003C42433D0000FE4A36
S11306204A3400003C43433D00003D43423C00004B
S113063032494A3100003A4546390000FC20201C6A
S11306400000FEAA28100000FFA5241800003C406A
S1130650413D00003C41413D00003D41403C000023
S11306609CA0613D0000040871090400000202021C
S11306700000000703000000000808080000002430
S11306802E240000242424242405170A342A780064
S113069006097F017F00224D5559220008082A08C7
S11306A008000008181800000609090600000008E0
S11306B000080000000800000000020F0000000015
S11306C0090F05000000090D0A0000003C3C3C3CF9
S11306D0000000000000000011241FBECFEFD0E492
S11306E0DEBFCDBF11E0A0E0B1E0ECE7F7E100E050
S11306F00BBF02C007900D92A23AB107D9F726E0CA
S1130700A2EAB1E001C01D92A13DB207E1F70E9447
S113071002060C94BC0B0C94000085E10E940708AF
S113072089EC90E00E94A40783EB90E00E94A40768
S113073088EA90E00E94A40789E990E00E94A40757
S11307408CE890E00E94A4070E94AC0667E084E174
S11307500E94B60780E10E945A070E94AC060399E2
S1130760FECF039BFECF2FEF89EF90E02150804016
S11307709040E1F700C000000399FECF089587B1CF
S11307808C6387B988B1837C88B9089588B1877EE2
S113079088B942988AE18A95F1F700C0429A8AE1C1
S11307A08A95F1F700C042988AE18A95F1F700C072
S11307B044988AE18A95F1F700C0449A8AE18A95BF
S11307C0F1F700C044988AE18A95F1F700C0459892
S11307D043988AE18A95F1F700C0439A8AE18A95A1
S11307E0F1F700C043988AE18A95F1F700C00895B3
S11307F020E034E244E759E40E94110A2FE632E192
S113080043E05CE40E94400B0E94830A439828E082
S113081030E060FF02C0459A01C04598449A44986C
S1130820669521503109A9F728E030E070FF02C035
S1130830459A01C04598449A4498769521503109C7
S1130840A9F728E030E080FF02C0459A01C045982E
S1130850449A44988695869521503109A1F728E059
S113086030E090FF02C0459A01C04598449A4498EC
S1130870969521503109A9F788E090E04598449A6B
S113088044980197D9F7439A8AE18A95F1F700C011
S11308904398089581E680937C00EAE7F0E0808144
S11308A0826C80830895EF92FF920F931F93CF93EE
S11308B0DF930F2EF6EAEF2EF1E0FF2EF02D0AE083
S11308C012E0E7018C2F8E19699141E00E94120712
S11308D0C017D107B9F7DF91CF911F910F91FF9006
S11308E0EF9008950E94530477247A94689499248D
S11308F091F8A12CCAE7D0E009E710E00F2EFFE23F
S1130900EF2EF2E0FF2EF02D0F2EF3E08F2EF02DC0
S11309106894BB24B1F8C92CDA2C079919C08091CA
S11309201102909112028937910590F4069910C032
S1130930892B71F005990CC080910B028D3344F41E
S1130940049906C0843C24F0039902C0039BFECFA3
S113095010920F0210920E027092000181E08093B7
S11309600C02E0E0492D5A2DF1E0888180648883EF
S1130970888184FFFDCFD8016C90862D90E0909300
S1130980300280932F022091100230E0281739079B
S113099008F00EC160910D0270E068177907C0F489
S11309A0E1110BC18217930748F0EF2F11C060913A
S11309B00D0270E068177907B0F401C0EF2FE13041
S11309C009F0FFC02817390768F4EB2D01C0EB2D9F
S11309D020910D0230E02817390728F4E23019F489
S11309E0E82D01C0EB2D60920D022091110230918F
S11309F012022115310581F0888180648883888101
S1130A0084FFFDCFD8018C9190E0909330028093C5
S1130A102F022150310981F720912F0230913002A9
S1130A2080910E0290E08217930710F420930E0237
S1130A308091000190E02817390720F4D7018C91A8
S1130A408093000121153105E9F080910E0290E0B8
S1130A5060910001861B9109880F991F90932E02C3
S1130A6080932D022B5F3F4FADECBCEC0E94AD0B8D
S1130A7096958795969587950296909330028093E4
S1130A802F0204C0C0922F02D0923002D7019C9151
S1130A9080910B02890F8B5F80930A02803448F4A3
S1130AA04436510570F4DA01BB27AA55BE4F8C9326
S1130AB00DC04436510528F4DA01BB27AA55BE4FB0
S1130AC01C924536510510F0E33039F04F5F5F4F0B
S1130AD04839BAE35B0709F048CF80910E02409190
S1130AE00001841769F090E0841B91099C0112F4C1
S1130AF02F5F3F4F35952795240F2093100202C096
S1130B00809310020E945304109214021092130254
S1130B1081E080930C0260E071E0F70180818093B2
S1130B200D02888180648883888184FFFDCFD80189
S1130B308C9190E09093300280932F0220911002C8
S1130B4030E02817390708F041C040910D0250E009
S1130B504817590708F051C061113CC08217930728
S1130B6048F0672F4AC040910D0250E048175907DA
S1130B7050F401C0672F613089F534C0623019F434
S1130B8010920C02682D8091130290911402893BFB
S1130B90BBE09B0710F010920C0201969093140294
S1130BA08093130280910C02813009F4B6CFB5CE44
S1130BB08217930708F4FBCE16CF82179307B8F079
S1130BC007CF2817390708F409CF0DCF82179307E9
S1130BD050F2D9CF8217930768F00FC0281739074E
S1130BE068F2D1CF2817390758F26B2DCCCFE130FA
S1130BF041F7EDCE613091F7C3CF4817590708F498
S1130C00BDCFC1CF81B1877081B982B1886F82B9FC
S1130C108FE084B985B18F6085B90E94D5070E94A1
S1130C20010A0E948D030E94BF030E94C60380E84C
S1130C3096E9A8E9B0E08093A2019093A301A09360
S1130C40A401B093A50107990CC080EC98EDA7EA24
S1130C50B0E08093A2019093A301A093A401B09368
S1130C60A5012FEF81EE94E0215080409040E1F700
S1130C7000C00000069914C08091A2019091A301C4
S1130C80A091A401B091A50180549244AF40B10950
S1130C908093A2019093A301A093A401B093A50112
S1130CA02FEF81EE94E0215080409040E1F700C0A6
S1130CB00000059914C08091A2019091A301A09114
S1130CC0A401B091A501805A9648A140B10980932E
S1130CD0A2019093A301A093A401B093A5012FEFC7
S1130CE089EF90E0215080409040E1F700C000007F
S1130CF0049914C08091A2019091A301A091A40130
S1130D00B091A50180569947AE4FBF4F8093A20181
S1130D109093A301A093A401B093A5012FEF81EEBA
S1130D2094E0215080409040E1F700C000006091C1
S1130D30A2017091A3018091A4019091A5010E9448
S1130D40B20A0E94F8030E944A040E947204249A80
S1130D502C9A0E9418080895BF92CF92DF92EF92C6
S1130D60FF920F931F93CF93DF93BFB6F89401E3E1
S1130D7016E00F2EF1E3CF2EF2E0DF2EF02D0F2E32
S1130D80F7E0EF2EF12CF02D8091170290E00E2C5D
S1130D9002C0959587950A94E2F780FF17C046989C
S1130DA047988E2D806B0E942A0880E10E942A08B1
S1130DB080E00E942A08479AE801C058D109899125
S1130DC00E942A08C017D107D1F7469A81E0E81A91
S1130DD0F108005811090C151D05B1F610921702FF
S1130DE0BFBEDF91CF911F910F91FF90EF90DF90E5
S1130DF0CF90BF900895E1E3F2E021E336E008C02C
S1130E001192E817F907E1F7FC018217930721F023
S1130E10CF0180589F4FF4CF8FEF809317020E9429
S1130E20AC06089588230CF444C0603408F041C033
S1130E30562F569556955695677021E030E002C0BE
S1130E40220F331F6A95E2F7442319F0423071F000
S1130E5019C090E8599FF0011124E80FF11DEF5CCF
S1130E60FD4F209580812823208317C090E8599F47
S1130E70F0011124E80FF11DEF5CFD4F808128275C
S1130E8020830BC090E8599FF0011124E80FF11D55
S1130E90EF5CFD4F8081282B208381E090E002C02D
S1130EA0880F991F5A95E2F790911702892B809326
S1130EB0170208958A3029F08D3061F410921602D9
S1130EC0089580911502873008F03DC08F5F8093AC
S1130ED01502089590E0FC01EE0FFF1FE80FF91FC3
S1130EE0EE0FFF1FE952FF4F8091160290E0DC01E4
S1130EF0AA0FBB1FA80FB91FAA0FBB1F8091150211
S1130F0090E8899FA00DB11D1124AF5CBD4F80E016
S1130F1094919D938F5F31968630D1F781E090E074
S1130F200090150202C0880F991F0A94E2F790916D
S1130F301702892B8093170280911602843118F4CA
S1130F408F5F809316020895CF93DF93FC01849101
S1130F50EF012196882339F00E945A07FE018491FB
S1130F6021968111F9CFDF91CF91089580931602D4
S1130F706093150208950E94430884EC0E945E0861
S1130F8081E10E947B0880E00E947B0880E00E944F
S1130F907B0880E00E947B0880E00E947B0880E060
S1130FA00E947B080E9498080895CF930E94180815
S1130FB087B1806C87B9CFB7F8944798469882EE8A
S1130FC00E942A0883EA0E942A0881E80E942A08CB
S1130FD088E00E942A0880EA0E942A0888EC0E947D
S1130FE02A0885E20E942A088FE20E942A088FEAD2
S1130FF00E942A08469A479A0E94FB06CFBF0E9485
S11310002F080E94BB070E94A706CF910895CF9393
S1131010C82F0E94430884EC0E945E0885E10E9468
S11310207B088C2F0E947B080E949808CF9108951A
S11310308091180280FD0DC084B1806A84B980E576
S11310408CBD81E08DBD81E090E090931902809386
S1131050180208958EBD0DB407FEFDCF089587B123
S11310608C7F87B988B1836088B983E08093B800A6
S113107087E08093B10082E0809370008DE78093D5
S1131080B300789408958AE080931A0284EA8093E6
S1131090BC00ECEBF0E080911A02882319F0808107
S11310A08823CCF780911A02882329F08091B90013
S11310B0887F90E008958FEF9FEF08959AE09093D2
S11310C01A028093BB0084E88093BC00ECEBF0E050
S11310D080911A02882319F080818823CCF78091AB
S11310E01A02882329F08091B900887F90E008953E
S11310F08FEF9FEF08959AE090931A028093BB00BC
S113110084E88093BC00ECEBF0E080911A02882321
S113111019F080818823CCF780911A02882329F062
S11311208091B900887F90E008958FEF9FEF089534
S11311308AE080931A0284E98093BC0008951F9288
S11311400F920FB60F9211240BB60F928F93EF9359
S1131150FF93E3EBF0E080818358808380911A024F
S1131160882329F080911A02815080931A02FF91FA
S1131170EF918F910F900BBE0F900FBE0F901F90A9
S113118018951F920F920FB60F9211240BB60F925F
S11311902F938F939F93EF93FF939091C6009D306D
S11311A019F180912602813019F49093250218C018
S11311B02EEF280F203A80F420912502233061F489
S11311C0E82FF0E0E15DF94F9083908120912402B3
S11311D092279093240204C0823A11F4909323023C
S11311E08F5F8093260212C0909124028091230283
S11311F0981303C081E08093270210922602109274
S113120025028BEB8093230210922402FF91EF912D
S11312109F918F912F910F900BBE0F900FBE0F9047
S11312201F9018951F920F920FB60F9211240BB6B0
S11312300F922F938F939F93EF93FF93E09122024A
S1131240E03AB0F4F0E0EF5FFE4F80818093C60097
S113125080912202E82FF0E0EF5FFE4F9081209111
S113126021029227909321028F5F809322021DC056
S1131270E03A51F4809121028093C60080912202C9
S11312808F5F8093220211C0E13A49F48DE080938C
S1131290C600809122028F5F8093220206C01092C2
S11312A021021092220210922702FF91EF919F9146
S11312B08F912F910F900BBE0F900FBE0F901F9028
S11312C018951F920F920FB60F9211240BB60F921E
S11312D02F938F939F93EF93FF939091CE009D3024
S11312E019F180912002813019F490931F0218C0E3
S11312F02EEF280F203A80F420911F02233061F44E
S1131300E82FF0E0E15DF94F9083908120911E0277
S1131310922790931E0204C0823A11F490931D0206
S11313208F5F8093200212C090911E0280911D0253
S1131330981303C081E08093270210922002109238
S11313401F028BEB80931D0210921E02FF91EF91FE
S11313509F918F912F910F900BBE0F900FBE0F9006
S11313601F9018951F920F920FB60F9211240BB66F
S11313700F922F938F939F93EF93FF93E0911C020F
S1131380E03AB0F4F0E0EF5FFE4F80818093CE004E
S113139080911C02E82FF0E0EF5FFE4F90812091D6
S11313A01B02922790931B028F5F80931C021DC027
S11313B0E03A51F480911B028093CE0080911C028C
S11313C08F5F80931C0211C0E13A49F48DE0809351
S11313D0CE0080911C028F5F80931C0206C0109285
S11313E01B0210921C0210922702FF91EF919F9111
S11313F08F912F910F900BBE0F900FBE0F901F90E7
S11314001895E8ECF0E08081808388ED8093C90032
S113141086E08093CA001092CD0081E08093CC00D6
S113142008950E94250A0C94060B0E94FF0A58F0A6
S11314300E94F80A40F029F45F3F29F00C94EF0A67
S113144051110C943A0B0C94F50A0E94170B68F393
S11314509923B1F3552391F3951B550BBB27AA2769
S113146062177307840738F09F5F5F4F220F331FA3
S1131470441FAA1FA9F335D00E2E3AF0E0E832D06B
S113148091505040E695001CCAF72BD0FE2F29D06E
S1131490660F771F881FBB1F261737074807AB0740
S11314A0B0E809F0BB0B802DBF01FF2793585F4FB5
S11314B03AF09E3F510578F00C94EF0A0C943A0BE5
S11314C05F3FE4F3983ED4F3869577956795B79597
S11314D0F7959F5FC9F7880F911D9695879597F9A2
S11314E00895E1E0660F771F881FBB1F621773071B
S11314F08407BA0720F0621B730B840BBA0BEE1F30
S113150088F7E09508950E941F0B88F09F5798F084
S1131510B92F9927B751B0F0E1F0660F771F881FF4
S1131520991F1AF0BA95C9F714C0B13091F00E940E
S1131530390BB1E008950C94390B672F782F882765
S1131540B85F39F0B93FCCF3869577956795B39535
S1131550D9F73EF490958095709561957F4F8F4FA4
S11315609F4F0895E89409C097FB3EF490958095A9
S1131570709561957F4F8F4F9F4F9923A9F0F92F55
S113158096E9BB279395F695879577956795B795D3
S1131590F111F8CFFAF4BB0F11F460FF1BC06F5FB9
S11315A07F4F8F4F9F4F16C0882311F096E911C0CB
S11315B0772321F09EE8872F762F05C0662371F0EC
S11315C096E8862F70E060E02AF09A95660F771F00
S11315D0881FDAF7880F9695879597F9089597F9F4
S11315E09F6780E870E060E008959FEF80EC0895C5
S11315F000240A94161617061806090608950024EE
S11316000A9412161306140605060895092E039467
S1131610000C11F4882352F0BB0F40F4BF2B11F4DB
S113162060FF04C06F5F7F4F8F4F9F4F089557FD3A
S11316309058440F551F59F05F3F71F04795880F3C
S113164097FB991F61F09F3F79F0879508951216D3
S113165013061406551FF2CF4695F1DF08C016167F
S113166017061806991FF1CF869571056105089430
S11316700895E894BB2766277727CB0197F9089547
S11316800E94530B0C94060B0E94F80A38F00E9437
S1131690FF0A20F0952311F00C94EF0A0C94F50A3C
S11316A011240C943A0B0E94170B70F3959FC1F30D
S11316B0950F50E0551F629FF001729FBB27F00DFC
S11316C0B11D639FAA27F00DB11DAA1F649F662751
S11316D0B00DA11D661F829F2227B00DA11D621FA0
S11316E0739FB00DA11D621F839FA00D611D221F5A
S11316F0749F3327A00D611D231F849F600D211D3E
S1131700822F762F6A2F11249F5750409AF0F1F0C0
S113171088234AF0EE0FFF1FBB1F661F771F881F29
S113172091505040A9F79E3F510580F00C94EF0A68
S11317300C943A0B5F3FE4F3983ED4F38695779587
S11317406795B795F795E7959F5FC1F7FE2B880FCF
S1131750911D9695879597F90895A29FB001B39F1F
S1131760C001A39F700D811D1124911DB29F700DA6
S10F1770811D1124911D0895F894FFCFF1
S113177CFF44696520446174656E20776572646505
S113178C6E20616C732073657269656C6C65722074
S113179C6469676974616C657220446174656E7305
S11317AC74726F6D206D69742065696E656D206649
S11317BC6978656E205261686D656E20C3BC626584
S11317CC7274726167656E2C206465722061757326
S11317DC2065696E656D2053746172742D42697451
S11317EC2C2066C3BC6E6620626973206D617869B7
S11317FC6D616C206E65756E20446174656E6269F2
S113180C74732E00000000000000000000000000B3
S105181C0000C6
S903071ADB
