:100000000C9495030C94B4030C94B4030C94B403B3
:100010000C94B4030C94B4030C94B4030C94B40384
:100020000C94B4030C94C60A0C94B4030C94B4035B
:100030000C94B4030C94B4030C94B4030C94B40364
:100040000C94B4030C94B4030C94B4030C94B40354
:100050000C94E80A0C94B4030C94380B0C94B4037D
:100060000C94B4030C94B4030C94B4030C94B40334
:100070000C947E0B0C94B4030C94CE0B0C94B40330
:100080000C94B4030C94B4030C94B40320202020EB
:1000900020204B487A00546865204672657175656A
:1000A0006E6365206973742020200D0A0A00667251
:1000B000657175656E636520696E204B487A200016
:1000C000706C6561736520696E7075742074686505
:1000D000200057616E672053686968616E670D0A7A
:1000E000005A68616E67205975650D0A004C6920D9
:1000F0005875656A696E670D0A004D656D626572B7
:10010000733A0D0A004444532D5369676E616C675E
:10011000656E657261746F720D0A0050726F6A6568
:1001200063742030343A0D0A000000000000000023
:100130003E4551453E003E6B6F6B3E001C3E7C3E93
:100140001C00183C7E3C180030367F363000185CAE
:100150007E5C1800000000000000000000000000AD
:1001600000000000000000000000000030484A3697
:100170000E00062979290600000000000000607EBC
:100180000A353F002A1C361C2A00007F3E1C08004E
:10019000081C3E7F000014367F361400005F005FAD
:1001A000000006097F017F00224D55592200606042
:1001B0006060000014B6FFB6140004067F06040059
:1001C00010307F30100008083E1C0800081C3E0854
:1001D0000800784040404000083E083E0800303C9F
:1001E0003F3C3000030F3F0F030000000000000001
:1001F00000065F060000070300070300247E247E3C
:100200002400242B6A12000063130864630036493B
:1002100056205000000703000000003E410000008F
:1002200000413E000000083E1C3E080008083E0851
:10023000080000E0600000000808080808000060EE
:10024000600000002010080402003E5149453E00B5
:1002500000427F4000006251494946002249494915
:1002600036001814127F10002F49494931003C4ACA
:1002700049493000017109050300364949493600F2
:10028000064949291E00006C6C00000000EC6C005F
:1002900000000814224100002424242424000041EA
:1002A000221408000201590906003E415D551E0056
:1002B0007E1111117E007F49494936003E4141417E
:1002C00022007F4141413E007F49494941007F0969
:1002D000090901003E4149497A007F0808087F006A
:1002E00000417F410000304040403F007F08142221
:1002F00041007F40404040007F0204027F007F02B7
:1003000004087F003E4141413E007F090909060083
:100310003E4151215E007F0909196600264949497D
:10032000320001017F0101003F4040403F001F209B
:1003300040201F003F403C403F006314081463000E
:10034000070870080700714945430000007F4141DC
:1003500000000204081020000041417F0000040258
:10036000010204808080808080000003070000007C
:100370002054545478007F44444438003844444462
:100380002800384444447F00385454540800087E00
:100390000909000018A4A4A47C007F0404780000CC
:1003A00000007D4000004080847D00007F102844D4
:1003B000000000007F4000007C04180478007C04EA
:1003C00004780000384444443800FC444444380075
:1003D00038444444FC00447844040800085454540D
:1003E0002000043E442400003C40207C00001C20EF
:1003F00040201C003C6030603C006C10106C000021
:100400009CA0603C00006454544C0000083E4141F4
:1004100000000000770000000041413E080002019A
:10042000020100003C2623263C001EA1E12112000F
:100430003D40207D00003854545509002055555545
:100440007800205554557800205555547800205791
:10045000555778001CA2E222140038555555080063
:1004600038555455080038555554080000017C4152
:10047000000000017D41000000017C400000702967
:1004800024297000782F252F78007C54545545007E
:1004900034547C5458007E097F4949003845453919
:1004A00000003845443900003945443800003C41DB
:1004B000217D00003D41207C00009CA1603D0000AA
:1004C0003D42423D00003C41403D0080706858384C
:1004D0000400483E494962007E615D433F002214AA
:1004E0000814220040887E090200205455557800E7
:1004F00000007D4100003844453900003C40217D2A
:1005000000007A090A7100007A112279000008556A
:1005100055555E004E51514E000030484D40203E32
:10052000415D4B553E04040404041C0017084C6A4A
:1005300050001708342A780000307D30000008147D
:10054000000814001408001408441144114411AAAE
:1005500055AA55AA55BBEEBBEEBBEE000000FF004E
:1005600000080808FF000000702825297000702985
:100570002529700070292528703E415D55413E0AAD
:10058000FB00FF000000FF00FF00000AFA02FE006F
:10059000000A0B080F000000182466240000292A16
:1005A0007C2A29080808F800000000000F08080845
:1005B00008080F0808080808F80808000000FF08E5
:1005C00008080808080808080808FF080800205656
:1005D00055567900702A252A71000F080B0A0A0067
:1005E000FE02FA0A0A0A0B080B0A0A0AFA02FA0AB7
:1005F0000A00FF00FB0A0A0A0A0A0A0A0A0AFB00A2
:10060000FB0A0A005D2222225D00225559300000BB
:10061000087F49413E007C55555544007C55545552
:1006200044007C555554440000000700000000447D
:100630007D45000000457D45000000457C450008E3
:1006400008080F0000000000F80808FFFFFFFFFF88
:10065000FFF0F0F0F0F0F00000007700000000453F
:100660007D44000F0F0F0F0F0F003C42433D000071
:10067000FE4A4A3400003C43433D00003D43423CB7
:10068000000032494A3100003A4546390000FC205A
:10069000201C0000FEAA28100000FFA5241800005E
:1006A0003C40413D00003C41413D00003D41403C5B
:1006B00000009CA0613D00000408710904000002D4
:1006C0000202000000070300000000080808000004
:1006D00000242E240000242424242405170A342A6C
:1006E000780006097F017F00224D55592200080835
:1006F0002A0808000008181800000609090600006A
:10070000000800080000000800000000020F0000C0
:100710000000090F05000000090D0A0000003C3C24
:100720003C3C000000000000000011241FBECFEF81
:10073000D0E4DEBFCDBF11E0A0E0B1E0ECE5F3E234
:1007400000E00BBF02C007900D92A43BB107D9F7A0
:1007500016E0A4EBB1E001C01D92A037B107E1F7AC
:100760000E940A050C94AC110C9400000F931F9387
:10077000CF93DF930E94660780E060E00E943A0911
:1007800080EC90E00E94280980E062E00E943A0933
:100790008EEA90E00E94280984E167E00E943A090D
:1007A00080E10E94D6080E9412077894C2EDD5E03D
:1007B00000E011E08091BF018130E1F70E946607FF
:1007C00080E062E00E943A09888190E00E94190965
:1007D00080E064E00E943A09C8010E9419090E9461
:1007E00012078091B8018F5F8093B8010E94F90CC5
:1007F0001092BF01DFCF85E10E94AC098BE191E04F
:100800000E94280985E091E00E9428098AEF90E083
:100810000E9428098DEE90E00E94280981EE90E068
:100820000E94280982ED90E00E9428090E94120788
:1008300084E167E00E943A0980E10E94D6080E94A4
:1008400012070399FECF039BFECF8FEF99EFA0E035
:1008500081509040A040E1F700C000000399FECF16
:1008600008958AB18C658AB98BB1837A8BB9089562
:100870008BB1877E8BB95E988AE18A95F1F700C0CB
:100880005E9A8AE18A95F1F700C05E988AE18A95BE
:10089000F1F700C05B988AE18A95F1F700C05B9A96
:1008A0008AE18A95F1F700C05B988AE18A95F1F7B1
:1008B00000C05A985C988AE18A95F1F700C05C9A6A
:1008C0008AE18A95F1F700C05C988AE18A95F1F790
:1008D00000C0089520E030E04AE754E40E94E20FAF
:1008E0002FE632E143E05CE40E9404110E944A10CA
:1008F000262F572F482F5C98822F28E030E080FF6A
:1009000002C05A9A01C05A985B9A5B9821503040B5
:1009100011F08695F4CF28E030E050FF02C05A9ADB
:1009200001C05A985B9A5B982150304011F056955F
:10093000F4CF20E030E040FF02C05A9A01C05A983C
:100940005B9A5B982F5F3F4F2830310519F0469531
:100950004695F1CF392F88E090E030FF02C05A9AD7
:1009600001C05A985B9A5B98019711F03695F5CFC4
:1009700080E090E05A985B9A5B98019688309105E8
:10098000C9F75C9A8AE18A95F1F700C05C980895EE
:100990000F931F93DF93CF93CDB7DEB7A0970FB61A
:1009A000F894DEBF0FBECDBF0E94660780E10E94B3
:1009B000AC0980E060E00E943A0986E990E00E947C
:1009C00028098091CC019091CD018E010F5F1F4FBE
:1009D000B8014AE050E00E946711C8010E9419095D
:1009E0008CE890E00E94280980E10E94D6080E94CD
:1009F00012078FE39CE90197F1F700C00000A09671
:100A00000FB6F894DEBF0FBECDBFCF91DF911F911F
:100A10000F910895CF93DF9381B1877081B982B12F
:100A2000886F82B98FE084B985B18F6085B9C6EBD4
:100A3000D3E00E947A090E94140C0E94FB030E94DA
:100A400031040E9438040E94B603079914C08091B3
:100A5000CC019091CD01A091CE01B091CF018851F0
:100A60009C4FAF4FBF4F8093CC019093CD01A0938B
:100A7000CE01B093CF018FEF91EEA4E08150904072
:100A8000A040E1F700C00000069914C08091CC019D
:100A90009091CD01A091CE01B091CF01885E93409D
:100AA000A040B0408093CC019093CD01A093CE01A3
:100AB000B093CF018FEF91EEA4E081509040A04021
:100AC000E1F700C00000059914C08091CC0190911D
:100AD000CD01A091CE01B091CF0184569040A040AD
:100AE000B0408093CC019093CD01A093CE01B09300
:100AF000CF018FEF99EFA0E081509040A040E1F747
:100B000000C00000049914C08091CC019091CD01E7
:100B1000A091CE01B091CF018C599F4FAF4FBF4FE5
:100B20008093CC019093CD01A093CE01B093CF01DF
:100B30008FEF91EEA4E081509040A040E1F700C01B
:100B40000000049902C0FE0109956091CC017091EA
:100B5000CD018091CE019091CF010E9476100E942C
:100B60006A040E94C80471CF0F931F93CF93DF9341
:100B7000EB01142F052F0E94420ACE01880F892F06
:100B8000881F990B91958F710E94420A9E01220F36
:100B9000822F0170802B0E94420A812F0E94420AFC
:100BA000DF91CF911F910F9108952C9887ED0E94AE
:100BB000420A80E00E94470A8823DCF72C9A0895B5
:100BC000249A2C9A0E94300A08951F93CF93DF93A2
:100BD000EC01162F0E94D5052C98123039F083E8CD
:100BE000BE0140E050E00E94B40506C086E8BE01A8
:100BF00040E050E00E94B4052C9ADF91CF911F9104
:100C000008951F93CF93DF93EC01162F0E94D50513
:100C10002C98123039F083E5BE0140E050E00E948C
:100C2000B40506C085E5BE0140E050E00E94B40571
:100C30002C9ADF91CF911F910895DF92EF92FF924E
:100C40000F931F93CF93DF93F82E8B01EA01E22ECF
:100C5000D32E0E94D5052C988F2D823039F081ED4E
:100C600060E070E0A8010E94B40506C083ED60E07A
:100C700070E0A8010E94B405209751F00E2D1D2DA3
:100C800080E00E94470AF80181938F012197C1F704
:100C90002C9ADF91CF911F910F91FF90EF90DF90F1
:100CA0000895DF92EF92FF920F931F93CF93DF93FC
:100CB000F82E8B01EA01E22ED32E0E94D5052C9846
:100CC0008F2D823039F084E860E070E0A8010E9446
:100CD000B40506C087E860E070E0A8010E94B40592
:100CE000209749F00E2D1D2DF80181918F010E9452
:100CF000420A2197C9F72C9ADF91CF911F910F914A
:100D0000FF90EF90DF900895CF92DF92EF92FF92E5
:100D10000F931F93CF93DF938C017B01EA01D22EB7
:100D2000C32E0E94D5052C9883E0B801A7010E942C
:100D3000B405209751F00D2D1C2D80E00E94470A2C
:100D4000F80181938F012197C1F72C9ADF91CF9100
:100D50001F910F91FF90EF90DF90CF9008950E9428
:100D6000D5052C9887EC0E94420A84E90E94420A29
:100D700080E80E94420A8AE90E94420A2C9A089559
:100D8000FC01A281B3818D919681915019F49181DA
:100D9000A91BB109B383A28396839FB7F8942081DE
:100DA000215020839FBF0895FC01108275836483C6
:100DB000738362834183478346830895FC01808166
:100DC0008823E9F3CF010E94C0060895FC01208129
:100DD000222329F00E94C006282F30E002C02FEF06
:100DE0003FEF822F932F0895FC0190818181981706
:100DF000A0F4A481B5816D938781815019F481811C
:100E0000A81BB1098783B583A4838FB7F894908119
:100E10009F5F90838FBF81E0089580E008950E94D6
:100E2000420A0895CF92DF92EF92FF920F931F93A1
:100E3000CF93DF930FB7F8940F2EF7E0CF2EDD247A
:100E4000F02D0F2EF0EDEF2EF1E0FF2EF02D8C2D7A
:100E5000E6012091B90130E00C2C02C035952795B0
:100E60000A94E2F720FF1EC046984798806B0E94C4
:100E70000F0780E10E940F0780E00E940F07479A4A
:100E800010E0D695DC2FCC27D795C795FE01E10F52
:100E9000F11DEE0DFF1D80810E940F071F5F1038AE
:100EA000A9F7469A0894C108D1088FEFC8168FEFAA
:100EB000D80669F61092B9010FBFDF91CF911F914B
:100EC0000F91FF90EF90DF90CF90089540E050E0B9
:100ED00070E020ED31E00EC0FC01E60FF11DE20FE5
:100EE000F31F10826F5F6038B9F74F5F5F4F483074
:100EF000510541F0672FCA019695982F882797953D
:100F00008795EACF8FEF8093B9010E941207089569
:100F100088230CF44CC0603408F049C0562F569515
:100F200056955695677021E030E001C0220F6A9512
:100F3000EAF7442319F0423001F510C0E52FF0E044
:100F4000F695FE2FEE27F795E795E80FF11DE05394
:100F5000FE4F20958081282320831DC0E52FF0E0DF
:100F6000F695FE2FEE27F795E795E80FF11DE05374
:100F7000FE4F8081282720830EC0E52FF0E0F695F4
:100F8000FE2FEE27F795E795E80FF11DE053FE4F92
:100F90008081282B208381E090E002C0880F991F78
:100FA0005A95E2F72091B901822B8093B9010895F7
:100FB0008F929F92AF92BF92CF92DF92EF92FF9269
:100FC0000F931F93CF93DF93182FF62EC42E822EEC
:100FD000D02E842F90E0811B910999231CF49095C9
:100FE00081959F4FB82E882D90E08F1991099923F4
:100FF0001CF4909581959F4FE82E1C1518F49924A8
:10100000939402C099249A94F81418F4AA24A394EF
:1010100002C0AA24AA94EB1434F40B2DBB200CF4C8
:101020000F5F05950FC08E2D992787FD90959095A0
:1010300081959F4F0AF4019695958795082F02C0D8
:10104000082F07C0CB2DDD27C7FDD095D095C195C2
:10105000DF4F812F6F2D4D2D0E9488071C1511F435
:10106000F81491F0802F992787FD9095C817D9071C
:1010700024F4802F8E19190D01C0802F0E1504F74E
:10108000082F0B0DFA0CE5CFDF91CF911F910F9137
:10109000FF90EF90DF90CF90BF90AF909F908F9098
:1010A00008957F928F929F92AF92BF92CF92DF92DC
:1010B000EF92FF920F931F93D82EF62E742E122FBD
:1010C000C42E642F6F0D422F0E9488076F2D671961
:1010D0008D2D412F0E948807872D8D0D6F2D412F5B
:1010E0000E9488078D2D87196F2D412F0E94880738
:1010F00017140CF04FC081E0982E97187194770C5C
:101100000F2EF3E08F2EF02D00E0992024F0CA94EA
:1011100082E0780E970C0F5FB02EBD0CEC2CEF0C1C
:101120008B2D6E2D412F0E948807AD2CA01A8A2D81
:101130006E2D412F0E948807EF2CEC188B2D6E2D01
:10114000412F0E9488078A2D6E2D412F0E9488070B
:10115000BC2CBD0CE02EEF0C8B2D6E2D412F0E9470
:101160008807AD2CAC188A2D6E2D412F0E94880760
:10117000EF2CE01A8B2D6E2D412F0E9488078A2DAF
:101180006E2D412F0E9488070C1524F4980C82E0E4
:10119000880EBBCF1F910F91FF90EF90DF90CF9003
:1011A000BF90AF909F908F907F9008958A3029F0E4
:1011B0008D3059F41092BA0108958091BB018730A7
:1011C000B8F58F5F8093BB01089526E0829FF00100
:1011D0001124E75DFE4F8091BB0190E09695982F1A
:1011E000882797958795A091BA01A29FD0011124D5
:1011F000A80FB91FA053BE4F80E094919D938F5FBD
:1012000031968630D1F781E090E00090BB0102C0BA
:10121000880F991F0A94E2F72091B901822B8093DD
:10122000B9018091BA01843118F48F5F8093BA01BB
:101230000895CF93DF93EC018881882331F0899161
:101240000E94D60888818823D1F7DF91CF91089535
:10125000CF93DF93FC018491882349F0EF0121961D
:101260000E94D608FE01849121968823C9F7DF9158
:10127000CF9108958093BA016093BB010895A0E0D7
:1012800090E060ED71E0AC015695542F44275795DE
:1012900047959C01FA01EA0FF11DE60FF71F108236
:1012A000AF5FA038B1F781E090E002C0880F991FCE
:1012B0002A95E2F72091B901822B8093B901089514
:1012C0000E94610A84EC0E947F0A81E10E949F0AC9
:1012D00080E00E949F0A80E00E949F0A80E00E94B6
:1012E0009F0A80E00E949F0A80E00E949F0A0E945D
:1012F000BF0A08951F930E94300A87B1806C87B996
:101300001FB7F8944798469882EE0E940F0783EA29
:101310000E940F0781E80E940F0788E00E940F07D4
:1013200080EA0E940F0788EC0E940F0785E20E9466
:101330000F078FE20E940F078FEA0E940F07469A5D
:10134000479A0E9466071FBF0E944D0A0E946009CB
:101350000E94E0051F9108951F93182F0E94610AB3
:1013600084EC0E947F0A85E10E949F0A812F0E94DF
:101370009F0A0E94BF0A1F910895FF920F931F9327
:10138000F82E062F142F0E94610A84EC0E947F0A17
:10139000FF2021F083E10E949F0A03C081E10E94A7
:1013A0009F0A802F0E949F0A812F0E949F0A0E94FD
:1013B000BF0A1F910F91FF900895EF92FF920F9334
:1013C0001F93CF93DF938C01C0EDD1E00F2EF0ED92
:1013D000EF2EF5E0FF2EF02D82E060E070E040E8B7
:1013E00050E09E010E945106C80162E00E94E5059E
:1013F000C058DF4F0F5F1F4FCE15DF0569F7DF9134
:10140000CF911F910F91FF90EF900895EF92FF926F
:101410000F931F93CF93DF938C01C0EDD1E00F2E7C
:10142000F0EDEF2EF5E0FF2EF02DC80160E070E04A
:1014300040E850E09E010E9484060F5F1F4FC05895
:10144000DF4FCE15DF0589F78FEF8093B9010E943A
:101450001207DF91CF911F910F91FF90EF900895A8
:101460008091BC0180FD0DC084B1806A84B980E5A3
:101470008CBD81E08DBD81E090E09093BD018093B3
:10148000BC0108958EBD0DB407FEFDCF08958EBD3D
:101490000DB407FEFDCF8EB5089587B18C7F87B957
:1014A00088B1836088B983E08093B80087E0809337
:1014B000B10082E0809370008DE78093B300789450
:1014C00008958AE08093BE0184EA8093BC00ECEB2F
:1014D000F0E08091BE01882319F080818823CCF749
:1014E0008091BE01882331F02091B90030E0287F3F
:1014F000307002C02FEF3FEF822F932F08959AE0B4
:101500009093BE018093BB0084E88093BC00ECEB19
:10151000F0E08091BE01882319F080818823CCF708
:101520008091BE01882331F02091B90030E0287FFE
:10153000307002C02FEF3FEF822F932F08959AE073
:101540009093BE018093BB0084E88093BC00ECEBD9
:10155000F0E08091BE01882319F080818823CCF7C8
:101560008091BE01882331F02091B90030E0287FBE
:10157000307002C02FEF3FEF822F932F08958AE043
:101580008093BE0184E98093BC0008951F920F925E
:101590000FB60F920BB60F9211248F93EF93FF9318
:1015A000E3EBF0E08081835880838091BE01882343
:1015B00029F08091BE0181508093BE01FF91EF918F
:1015C0008F910F900BBE0F900FBE0F901F9018952C
:1015D0001F920F920FB60F920BB60F9211248F939A
:1015E0009F93EF93FF938091C6008D3021F1E0919E
:1015F000CB01E13019F48093CA0117C09E2F92509D
:10160000903A78F49091CA01933059F4F0E0E253A3
:10161000FA4F808380819091C90189278093C90105
:1016200004C0E23A11F48093C8018091CB018F5F2E
:101630008093CB0112C09091C9018091C801981785
:1016400019F481E08093BF011092CB011092CA017E
:101650008BEB8093C8011092C901FF91EF919F918C
:101660008F910F900BBE0F900FBE0F901F9018958B
:101670001F920F920FB60F920BB60F9211242F9359
:101680008F939F93EF93FF938091C601803A88F4E4
:10169000E2E1F1E0E80FF11D90819093C6009081A6
:1016A0002091C70192279093C7018F5F8093C60155
:1016B00019C0803A41F48091C7018093C60081EA45
:1016C0008093C6010FC0813A39F48DE08093C60043
:1016D00082EA8093C60106C01092C7011092C6012B
:1016E0001092BF01FF91EF919F918F912F910F90D9
:1016F0000BBE0F900FBE0F901F9018951F920F9268
:101700000FB60F920BB60F9211248F939F93EF9306
:10171000FF938091CE008D3021F1E091C501E13041
:1017200019F48093C40117C09E2F9250903A78F418
:101730009091C401933059F4F0E0E253FA4F808362
:1017400080819091C30189278093C30104C0E23A4C
:1017500011F48093C2018091C5018F5F8093C50110
:1017600012C09091C3018091C201981719F481E0D1
:101770008093BF011092C5011092C4018BEB80933E
:10178000C2011092C301FF91EF919F918F910F9031
:101790000BBE0F900FBE0F901F9018951F920F92C7
:1017A0000FB60F920BB60F9211242F938F939F9326
:1017B000EF93FF938091C001803A88F4E2E1F1E079
:1017C000E80FF11D90819093CE0090812091C1018E
:1017D00092279093C1018F5F8093C00119C0803A16
:1017E00041F48091C1018093CE0081EA8093C001D1
:1017F0000FC0813A39F48DE08093CE0082EA809365
:10180000C00106C01092C1011092C0011092BF0128
:10181000FF91EF919F918F912F910F900BBE0F90A1
:101820000FBE0F901F901895E0ECF0E08081808350
:1018300088ED8093C10086E08093C2001092C500BD
:1018400081E08093C4000895E8ECF0E0808180831B
:1018500088ED8093C90086E08093CA001092CD0085
:1018600081E08093CC000895DC01FC0186E020E05B
:10187000919191112F5F8150D9F7233001F12430DC
:1018800030F4213051F0223009F08EC00BC02430EA
:1018900061F1253009F088C04FC02C9130E0205311
:1018A000304084C011968C9111972C919AE0299F19
:1018B00090011124280F311D2051324077C02C9106
:1018C00084E6289F9001112412968C911297280F7C
:1018D000311D205D344111969C9111978AE0989FAB
:1018E000C0011124280F391F61C013968C911397E2
:1018F00012962C9112979AE0299F90011124280F9B
:10190000311D205D344111969C91119784E6989F7A
:10191000C0011124280F391F6C9170E06053704092
:1019200048EE53E0649FC001659F900D749F900D39
:101930001124280F391F3AC014968C9114971396CE
:101940002C9113979AE0299F90011124280F311DA3
:10195000205D344112969C91129784E6989FC001B5
:101960001124280F391F6C9170E06053704040E1E2
:1019700057E2649FC001659F900D749F900D1124E4
:10198000280F391F11966C91119770E060537040C9
:1019900048EE53E0649FC001659F900D749F900DC9
:1019A0001124280F391F02C020E030E0822F932F2E
:1019B0000895FC018081880F982F990F990F890F46
:1019C0009181890F80510895FC018381805192811A
:1019D000990F292F220F220F920F890F0895E0EC03
:1019E000F0E0908195FFFDCFF8948093C600789445
:1019F00008958AEA0E94EF0C83E00E94EF0C81E0D8
:101A00000895E8ECF0E0908195FFFDCFF894809385
:101A1000CE00789408958AEA0E94010D83E00E9426
:101A2000010D81E008951F93CF93DF93EC0188812E
:101A3000882349F0219610E00E94EF0C1F5F8991E6
:101A40008823D1F701C010E0812FDF91CF911F9142
:101A500008951F93192F0E94EF0C812F0E94EF0C05
:101A60001F9108951F93182F80E30E94EF0C88E7C1
:101A70000E94EF0C812F82958F708A3020F4805D58
:101A80000E94EF0C03C0895C0E94EF0C812F8F70C5
:101A90008A3020F4805D0E94EF0C03C0895C0E94B4
:101AA000EF0C1F910895CF93DF93EC0180E30E9428
:101AB000EF0C88E70E94EF0CCE01892F99278295C1
:101AC0008F708A30910520F4805D0E94EF0C03C076
:101AD000895C0E94EF0C8D2F99278F7090708A304F
:101AE000910520F4805D0E94EF0C03C0895C0E9488
:101AF000EF0CCE01929582958F7089279F70892770
:101B00008F7090708A30910520F4805D0E94EF0CF8
:101B100003C0895C0E94EF0CCE018F7090708A30F8
:101B2000910520F4805D0E94EF0C03C0895C0E9447
:101B3000EF0CDF91CF910895FF920F931F93CF93F6
:101B4000DF93EC0127E28031920748F080E08F5F5D
:101B5000C051D74237E2C031D307C8F701C080E097
:101B600093E0C83ED90748F000E00F5FC85ED3405D
:101B700023E0C83ED207C8F701C000E0C436D10553
:101B800040F0FF24F394C456D040C436D105D0F7BA
:101B900001C0FF24CA30D10538F010E01F5F2A973A
:101BA000CA30D105D8F701C010E0805D0E94EF0C6B
:101BB000802F805D0E94EF0C8F2D805D0E94EF0CC6
:101BC000812F805D0E94EF0C9E01205D822F0E947C
:101BD000EF0CDF91CF911F910F91FF900895AF927D
:101BE000BF92CF92DF92FF920F931F93DF93CF9319
:101BF00000D000D00F92CDB7DEB7F62EA22EFE0198
:101C0000319625E0DF011D922A95E9F7B7E2803190
:101C10009B0760F03D8120E03F5F8051974220624A
:101C200057E280319507C0F73D8301C020E0A3E073
:101C3000883E9A0750F03C813F5F885E9340206168
:101C4000B3E0883E9B07C0F73C838436910548F09B
:101C50003B813F5F84569040286084369105C8F7E9
:101C60003B838A30910540F03A813F5F0A972460B8
:101C70008A309105D0F73A838983423060F525FD9B
:101C80000AC024FD0DC023FD0FC022FF12C0CC24CA
:101C90006894C1F810C00F2EF5E0CF2EF02D0BC0C8
:101CA000CC246894C2F807C00F2EF3E0CF2EF02D9D
:101CB00002C0CC24C394413059F4FC1859F005E01B
:101CC00011E0C8010E94130DFA94D9F7FC2C03C04F
:101CD000FC2C01C0FC2CFF20E1F085E090E06C01C1
:101CE000CA18D1080F2EF7E0AF2EF1E0BF2EF02D6D
:101CF0000F2D10E0FE01E00FF11F8081805D0E943A
:101D0000EF0C0C151D0519F4C5010E94130DFA9472
:101D100079F70F900F900F900F900F90CF91DF9168
:101D20001F910F91FF90DF90CF90BF90AF900895DB
:101D3000EF92FF920F931F93DF93CF9300D000D0C9
:101D40000F92CDB7DEB7062FFE01319625E0DF01F9
:101D50001D922A95E9F7B7E280319B0760F03D813B
:101D600020E03F5F80519742206257E28031950723
:101D7000C0F73D8301C020E0A3E0883E9A0750F001
:101D80003C813F5F885E93402061B3E0883E9B07C3
:101D9000C0F73C838436910548F03B813F5F845611
:101DA0009040286084369105C8F73B838A309105BE
:101DB00040F03A813F5F0A9724608A309105D0F75E
:101DC0003A838983423068F525FD0AC024FD0DC0A1
:101DD00023FD0FC022FF12C0FF246894F1F810C049
:101DE0000F2EF5E0FF2EF02D0BC0FF246894F2F8C3
:101DF00007C00F2EF3E0FF2EF02D02C0FF24F39456
:101E0000413061F4E02EEF1859F005E011E0C8010F
:101E10000E94130DEA94D9F70F2D03C00F2D01C0B6
:101E20000F2D002349F0FE01E00FF11D8081805D40
:101E30000E94EF0C0150B9F70F900F900F900F9088
:101E40000F90CF91DF911F910F91FF90EF90089528
:101E5000FF920F931F93CF93DF93182F062FF42E2B
:101E60002115310549F0C90165E040E00E94980E56
:101E700087E091E00E94130D8F2D90E062E042E038
:101E80000E94980EC9E0D1E0CE010E94130D802F70
:101E900090E062E042E00E94980ECE010E94130D95
:101EA000812F90E062E042E00E94980EDF91CF9196
:101EB0001F910F91FF9008950F931F93CF93DF937E
:101EC000EC01062F992334F42FEF8D39920784F11A
:101ED00010E036C08436910544F010E0165FC45619
:101EE000D040C436D105D4F701C010E0CA30D105C6
:101EF0002CF01F5F2A97CA30D105DCF78BE091E008
:101F00000E94130D812F90E062E042E00E94980E43
:101F100087E091E00E94130D9E01205D822F0E94B8
:101F2000EF0C002389F18DE091E00E94130D2CC08D
:101F300010E0165FCC59DF4F3FEFCD39D307CCF31C
:101F40008FEFC73FD80734F41F5F2A962FEFC73FA4
:101F5000D207D4F380E191E00E94130D812F90E02D
:101F600062E042E00E94980E87E091E00E94130D2B
:101F70009E012095822F805D0E94EF0C002321F0AE
:101F80008DE091E00E94130DDF91CF911F910F9191
:101F900008958DE00E94EF0C8AE00E94EF0C0895F6
:101FA000CF93DF93EC01FC018491882341F02196CB
:101FB0000E94EF0CFE01219684918823C9F7DF91DE
:101FC000CF9108950CD0E6C0DED040F0D5D030F0EF
:101FD00021F45F3F19F0C7C0511110C1CAC0EBD046
:101FE00098F39923C9F35523B1F3951B550BBB27E0
:101FF000AA2762177307840738F09F5F5F4F220F8D
:10200000331F441FAA1FA9F333D00E2E3AF0E0E885
:1020100030D091505040E695001CCAF729D0FE2FD1
:1020200027D0660F771F881FBB1F26173707480763
:10203000AB07B0E809F0BB0B802DBF01FF27935819
:102040005F4F2AF09E3F510568F08DC0D7C05F3FBB
:10205000ECF3983EDCF3869577956795B795F79501
:102060009F5FC9F7880F911D9695879597F90895F9
:10207000E1E0660F771F881FBB1F62177307840795
:10208000BA0720F0621B730B840BBA0BEE1F88F7A4
:10209000E095089598D088F09F5790F0B92F992730
:1020A000B751A0F0D1F0660F771F881F991F1AF063
:1020B000BA95C9F712C0B13081F09FD0B1E0089550
:1020C0009CC0672F782F8827B85F39F0B93FCCF3D1
:1020D000869577956795B395D9F73EF49095809559
:1020E000709561957F4F8F4F9F4F0895E89409C079
:1020F00097FB3EF490958095709561957F4F8F4F3B
:102100009F4F9923A9F0F92F96E9BB279395F69550
:10211000879577956795B795F111F8CFFAF4BB0FCE
:1021200011F460FF1BC06F5F7F4F8F4F9F4F16C032
:10213000882311F096E911C0772321F09EE8872FBC
:10214000762F05C0662371F096E8862F70E060E078
:102150002AF09A95660F771F881FDAF7880F9695F1
:10216000879597F9089597F99F6780E870E060E098
:1021700008959FEF80EC089500240A941616170620
:1021800018060906089500240A9412161306140668
:1021900005060895092E0394000C11F4882352F0CB
:1021A000BB0F40F4BF2B11F460FF04C06F5F7F4F83
:1021B0008F4F9F4F089557FD9058440F551F59F06A
:1021C0005F3F71F04795880F97FB991F61F09F3F24
:1021D00079F087950895121613061406551FF2CF4D
:1021E0004695F1DF08C0161617061806991FF1CF9D
:1021F00086957105610508940895E894BB276627C4
:102200007727CB0197F908950BD0C4CFB5DF28F01D
:10221000BADF18F0952309F0A6CFABCF1124EECF8B
:10222000CADFA0F3959FD1F3950F50E0551F629F31
:10223000F001729FBB27F00DB11D639FAA27F00D1F
:10224000B11DAA1F649F6627B00DA11D661F829F46
:102250002227B00DA11D621F739FB00DA11D621F2B
:10226000839FA00D611D221F749F3327A00D611D48
:10227000231F849F600D211D822F762F6A2F11242A
:102280009F5750408AF0E1F088234AF0EE0FFF1F7D
:10229000BB1F661F771F881F91505040A9F79E3FB4
:1022A000510570F060CFAACF5F3FECF3983EDCF3AE
:1022B000869577956795B795F795E7959F5FC1F7F1
:1022C000FE2B880F911D9695879597F90895FB0130
:1022D0009F01E8944230C4F04532B4F44A3029F406
:1022E00097FB1EF4909581959F4F642F77270E944E
:1022F0009811805D8A330CF0895D8193CB01009742
:10230000A1F716F45DE251931082C9010C94881173
:10231000DC01FC01672F71917723E1F7329704C04C
:102320007C916D9370836291AE17BF07C8F30895D7
:10233000AA1BBB1B51E107C0AA1FBB1FA617B707EB
:1023400010F0A61BB70B881F991F5A95A9F7809507
:0C2350009095BC01CD010895F894FFCFDA
:10235C00746573740020002E003A002B0027430094
:10236C002D0044696520446174656E207765726444
:10237C00656E20616C732073657269656C6C657237
:10238C00206469676974616C657220446174656E60
:10239C007374726F6D206D69742065696E656D2044
:1023AC00666978656E205261686D656E20C3BC628B
:1023BC00657274726167656E2C206465722061753C
:1023CC00732065696E656D2053746172742D42695A
:1023DC00742C2066C3BC6E6620626973206D6178B4
:1023EC00696D616C206E65756E20446174656E62FA
:1023FC006974732E00000000000000000000000053
:04240C0000000300C9
:04000003000007F6FC
:00000001FF
