S00B00003030332E7372656386
S11300000C946C050C948B050C948B050C948B054B
S11300100C948B050C948B050C948B050C948B051C
S11300200C948B050C94CB080C948B050C948B05C9
S11300300C948B050C948B050C948B050C948B05FC
S11300400C948B050C948B050C948B050C948B05EC
S11300500C94ED080C948B050C943E090C948B05C0
S11300600C948B050C948B050C948B050C948B05CC
S11300700C948D090C948B050C94DE090C948B055F
S11300800C948B050C948B050C948B054C692058AF
S113009075656A696E670D0A0057616E672053685B
S11300A06968616E670D0A004D656D626572733A29
S11300B00D0A004444532D5369676E616C67656E85
S11300C0657261746F720D0A0050726F6A656374B1
S11300D02030343A0D0A00FF808080808080808048
S11300E0C0808080808080808080C080808080808C
S11300F080808080C0808080808080808080C0807C
S11301008080808080808080D58080808080808096
S11301108080C0808080808080808080C08080805B
S1130120808080808080C08080808080808080808B
S1130130C080808080808080808080FF00000F1FCE
S113014031311F0F00003F3F00003F3F0000203FC0
S11301503F22233F1C0000FF1000000000000000AD
S1130160100000000000000000001000000000006B
S1130170000000001000000000000000000010005B
S113018000000000000000105510000000000000F6
S1130190000010000000000000000000100000003B
S11301A0000000000000100000000000000000003B
S11301B01000000000000000000010FF0000E3E455
S11301C00403E0E0000080C06060C080000020E024
S11301D0E00000E0E00000FF040000000000000078
S11301E00400000000000000000004000000000003
S11301F000000000040000000000000000000400F3
S1130200000000000000000455040000000000008D
S113021000000400000000000000000004000000D2
S113022000000000000004000000000000000000C6
S11302300400000000000000000004FF00009844D7
S113024044380078848484007884847800FF84842B
S113025078007894947400FF01000100010001000B
S1130260030001000100010001000300010001007E
S1130270010001000300010001000100010003006E
S1130280010001000100010055000100010001000E
S1130290010003000100010001000100030001004E
S11302A00100010001000300010001000100010040
S11302B00300010001000100010001FF00000F0A1A
S11302C00800000F0A0D00000F0A080000070808C4
S11302D007000000000000FF000000000000000014
S11302E0800000000000000000008000000000000A
S11302F000000000800000000000000000008000FA
S11303000000000000000000550000000000000094
S113031000008000000000000000000080000000D9
S11303200000000000008000000000000000000049
S11303308000000000000000000000FF00008000BA
S11303400000008000800000808080000000808029
S113035080800000000000FF40000000000000005A
S11303604000000000000000000040000000000009
S113037000000000400000000000000000004000F9
S11303800000000000000040554000000000000094
S113039000004000000000000000000040000000D9
S11303A00000000000004000000000000000000009
S11303B04000000000000000000040FF00000000BA
S11303C00000000000000000000000000000000029
S11303D000000000000000FF10000000000000000A
S11303E010000000000000000000100000000000E9
S11303F000000000100000000000000000001000D9
S11304000000000000000010551000000000000073
S113041000001000000000000000000010000000B8
S113042000000000000010000000000000000000B8
S11304301000000000000000000010FF0000000099
S113044000000000000000000000000000000000A8
S113045000000000000000FF010101010101010191
S11304600501010101010101010105010101010170
S11304700101010105010101010101010101050160
S11304800101010101010101550101010101010104
S11304900101050101010101010101010501010140
S11304A00101010101010501010101010101010134
S11304B00501010101010101010101FF000000002A
S11304C00000000000000000000000000000000028
S11304D000000000000000000000000000003E4595
S11304E051453E003E6B6F6B3E001C3E7C3E1C0043
S11304F0183C7E3C180030367F363000185C7E5C39
S113050018000000000000000000000000000000CF
S11305100000000000000000000030484A360E00D1
S1130520062979290600000000000000607E0A35D3
S11305303F002A1C361C2A00007F3E1C0800081CB1
S11305403E7F000014367F361400005F005F000019
S113055006097F017F00224D5559220060606060CA
S1130560000014B6FFB6140004067F060400103021
S11305707F30100008083E1C0800081C3E080800D4
S1130580784040404000083E083E0800303C3F3C74
S11305903000030F3F0F03000000000000000006BE
S11305A05F060000070300070300247E247E240066
S11305B0242B6A1200006313086463003649562032
S11305C05000000703000000003E4100000000410D
S11305D03E000000083E1C3E080008083E080800D3
S11305E000E06000000008080808080000606000DF
S11305F000002010080402003E5149453E0000421C
S11306007F40000062514949460022494949360069
S11306101814127F10002F49494931003C4A4949B6
S1130620300001710905030036494949360006497D
S113063049291E00006C6C00000000EC6C000000F6
S113064008142241000024242424240000412214FC
S113065008000201590906003E415D551E007E1145
S113066011117E007F49494936003E414141220033
S11306707F4141413E007F49494941007F090909C1
S113068001003E4149497A007F0808087F00004183
S11306907F410000304040403F007F081422410069
S11306A07F40404040007F0204027F007F02040834
S11306B07F003E4141413E007F09090906003E4159
S11306C051215E007F090919660026494949320013
S11306D001017F0101003F4040403F001F204020B6
S11306E01F003F403C403F006314081463000708A8
S11306F070080700714945430000007F4141000034
S11307000204081020000041417F0000040201029D
S11307100480808080808000000307000000205453
S1130720545478007F4444443800384444442800F6
S1130730384444447F00385454540800087E09095E
S1130740000018A4A4A47C007F0404780000000026
S11307507D4000004080847D00007F10284400001C
S113076000007F4000007C04180478007C040478B6
S11307700000384444443800FC44444438003844BD
S11307804444FC00447844040800085454542000B1
S1130790043E442400003C40207C00001C204020F7
S11307A01C003C6030603C006C10106C00009CA08D
S11307B0603C00006454544C0000083E4141000079
S11307C00000770000000041413E080002010201E0
S11307D000003C2623263C001EA1E12112003D40DE
S11307E0207D000038545455090020555555780093
S11307F020555455780020555554780020575557A6
S113080078001CA2E22214003855555508003855CA
S11308105455080038555554080000017C41000027
S113082000017D41000000017C4000007029242962
S11308307000782F252F78007C545455450034548B
S11308407C5458007E097F494900384545390000E9
S11308503845443900003945443800003C41217D85
S113086000003D41207C00009CA1603D00003D4211
S1130870423D00003C41403D00807068583804000F
S1130880483E494962007E615D433F0022140814DA
S1130890220040887E09020020545555780000004B
S11308A07D4100003844453900003C40217D000072
S11308B07A090A7100007A11227900000855555509
S11308C05E004E51514E000030484D40203E415D87
S11308D04B553E04040404041C0017084C6A5000E1
S11308E01708342A780000307D300000081400080E
S11308F014001408001408441144114411AA55AA00
S113090055AA55BBEEBBEEBBEE000000FF0000088D
S11309100808FF0000007028252970007029252987
S1130920700070292528703E415D55413E0AFB0048
S1130930FF000000FF00FF00000AFA02FE00000AA8
S11309400B080F000000182466240000292A7C2AC2
S113095029080808F800000000000F080808080823
S11309600F0808080808F80808000000FF0808082D
S11309700808080808080808FF0808002056555603
S11309807900702A252A71000F080B0A0A00FE025A
S1130990FA0A0A0A0B080B0A0A0AFA02FA0A0A00F5
S11309A0FF00FB0A0A0A0A0A0A0A0A0AFB00FB0AEF
S11309B00A005D2222225D00225559300000087F82
S11309C049413E007C55555544007C5554554400DE
S11309D07C555554440000000700000000447D4548
S11309E0000000457D45000000457C4500080808DE
S11309F00F0000000000F80808FFFFFFFFFFFFF0F2
S1130A00F0F0F0F0F00000007700000000457D44B5
S1130A10000F0F0F0F0F0F003C42433D0000FE4A32
S1130A204A3400003C43433D00003D43423C000047
S1130A3032494A3100003A4546390000FC20201C66
S1130A400000FEAA28100000FFA5241800003C4066
S1130A50413D00003C41413D00003D41403C00001F
S1130A609CA0613D00000408710904000002020218
S1130A70000000070300000000080808000000242C
S1130A802E240000242424242405170A342A780060
S1130A9006097F017F00224D5559220008082A08C3
S1130AA008000008181800000609090600000008DC
S1130AB000080000000800000000020F0000000011
S1130AC0090F05000000090D0A0000003C3C3C3CF5
S1130AD0000000000000000011241FBECFEFD0E48E
S1130AE0DEBFCDBF11E0A0E0B1E0E6EBF7E100E04E
S1130AF00BBF02C007900D92A03AB107D9F726E0C8
S1130B00A0EAB1E001C01D92A735B207E1F70E9447
S1130B107A060C94D90B0C94000085E10E943308EA
S1130B2089EC90E00E94D00783EB90E00E94D0070C
S1130B3088EA90E00E94D00789E990E00E94D007FB
S1130B408CE890E00E94D0070E94200767E084E1CF
S1130B500E94E20780E10E9486070E942007039911
S1130B60FECF039BFECF2FEF89EF90E02150804012
S1130B709040E1F700C000000399FECF089587B1CB
S1130B808C6387B988B1837C88B9089588B1877EDE
S1130B9088B942988AE18A95F1F700C0429A8AE1BD
S1130BA08A95F1F700C042988AE18A95F1F700C06E
S1130BB044988AE18A95F1F700C0449A8AE18A95BB
S1130BC0F1F700C044988AE18A95F1F700C045988E
S1130BD043988AE18A95F1F700C0439A8AE18A959D
S1130BE0F1F700C043988AE18A95F1F700C00895AF
S1130BF020E034E244E759E40E943D0A2FE632E162
S1130C0043E05CE40E946C0B0E94AF0A439828E026
S1130C1030E060FF02C0459A01C04598449A449868
S1130C20669521503109A9F728E030E070FF02C031
S1130C30459A01C04598449A4498769521503109C3
S1130C40A9F728E030E080FF02C0459A01C045982A
S1130C50449A44988695869521503109A1F728E055
S1130C6030E090FF02C0459A01C04598449A4498E8
S1130C70969521503109A9F788E090E04598449A67
S1130C8044980197D9F7439A8AE18A95F1F700C00D
S1130C904398089581E680937C00EAE7F0E0808140
S1130CA0826C8083089585E10E9433080E946F0757
S1130CB080E090E00DC0CF010196E952FF4FE4912E
S1130CC0ED93FC0182179307B1F72115344041F0ED
S1130CD0DC01A954BE4F9C0120583F4FFC01EBCFCF
S1130CE08FEF8093A6010E942007FFCF0E946F0719
S1130CF00E94530681B1877081B982B1886F82B92D
S1130D008FE084B985B18F6085B90E9401080E9483
S1130D102D0A0E948D050E94BF05079914C0809179
S1130D20A0019091A101A091A201B091A301805CC6
S1130D309D4BA04FBF4F8093A0019093A101A0931E
S1130D40A201B093A3012FEF81EE94E021508040E3
S1130D509040E1F700C00000069914C08091A00102
S1130D609091A101A091A201B091A3018054924459
S1130D70AF40B1098093A0019093A101A093A20177
S1130D80B093A3012FEF81EE94E021508040904076
S1130D90E1F700C00000059914C08091A001909172
S1130DA0A101A091A201B091A301805A9648A1404B
S1130DB0B1098093A0019093A101A093A201B093E3
S1130DC0A3012FEF81EE94E0215080409040E1F7A1
S1130DD000C00000049914C08091A0019091A10169
S1130DE0A091A201B091A30180569947AE4FBF4F85
S1130DF08093A0019093A101A093A201B093A301B9
S1130E002FEF81EE94E0215080409040E1F700C044
S1130E1000000E94C6056091A0017091A10180911B
S1130E20A2019091A3010E94DE0A0E94F8050E948B
S1130E304A060E947606249A2C9A0E944408089531
S1130E40BF92CF92DF92EF92FF920F931F93CF93B3
S1130E50DF93BFB6F89407EB15E00F2EF7EBCF2E18
S1130E60F1E0DF2EF02D0F2EF7E0EF2EF12CF02D18
S1130E708091A60190E00E2C02C0959587950A9466
S1130E80E2F780FF17C0469847988E2D806B0E942A
S1130E90560880E10E94560880E00E945608479A4E
S1130EA0E801C058D10989910E945608C017D1079A
S1130EB0D1F7469A81E0E81AF108005811090C1597
S1130EC01D05B1F61092A601BFBEDF91CF911F910F
S1130ED00F91FF90EF90DF90CF90BF900895E7EBD4
S1130EE0F1E027EB35E008C01192E817F907E1F7C4
S1130EF0FC018217930721F0CF0180589F4FF4CF54
S1130F008FEF8093A6010E94200708958A3029F06C
S1130F108D3061F41092A50108958091A401873069
S1130F2008F03DC08F5F8093A401089590E0FC0118
S1130F30EE0FFF1FE80FF91FEE0FFF1FE952FB4FE3
S1130F408091A50190E0DC01AA0FBB1FA80FB91F77
S1130F50AA0FBB1F8091A40190E8899FA00DB11D29
S1130F601124A954BE4F80E094919D938F5F3196D4
S1130F708630D1F781E090E00090A40102C0880F90
S1130F80991F0A94E2F79091A601892B8093A601F8
S1130F908091A501843118F48F5F8093A501089591
S1130FA0CF93DF93FC018491EF012196882339F0DC
S1130FB00E948607FE01849121968111F9CFDF9169
S1130FC0CF9108958093A5016093A40108950E9490
S1130FD06F0884EC0E948A0881E10E94A70880E0DF
S1130FE00E94A70880E00E94A70880E00E94A7084A
S1130FF080E00E94A70880E00E94A7080E94C4081D
S11310000895CF930E94440887B1806C87B9CFB705
S1131010F8944798469882EE0E94560883EA0E9404
S1131020560881E80E94560888E00E94560880EA23
S11310300E94560888EC0E94560885E20E945608D1
S11310408FE20E9456088FEA0E945608469A479AF1
S11310500E946F07CFBF0E945B080E94E7070E94AF
S11310601B07CF910895CF93C82F0E946F0884EC7B
S11310700E948A0885E10E94A7088C2F0E94A70875
S11310800E94C408CF9108958091A70180FD0DC0EE
S113109084B1806A84B980E58CBD81E08DBD81E036
S11310A090E09093A8018093A70108958EBD0DB49C
S11310B007FEFDCF089587B18C7F87B988B183601F
S11310C088B983E08093B80087E08093B10082E020
S11310D0809370008DE78093B300789408958AE03C
S11310E08093A90184EA8093BC00ECEBF0E080914A
S11310F0A901882319F080818823CCF78091A90164
S1131100882329F08091B900887F90E008958FEFBB
S11311109FEF08959AE09093A9018093BB0084E81F
S11311208093BC00ECEBF0E08091A901882319F0D6
S113113080818823CCF78091A901882329F08091AC
S1131140B900887F90E008958FEF9FEF08959AE0AB
S11311509093A9018093BB0084E88093BC00ECEBDE
S1131160F0E08091A901882319F080818823CCF7CD
S11311708091A901882329F08091B900887F90E0AB
S113118008958FEF9FEF08958AE08093A90184E981
S11311908093BC0008951F920F920FB60F921124F2
S11311A00BB60F928F93EF93FF93E3EBF0E0808104
S11311B0835880838091A901882329F08091A90113
S11311C081508093A901FF91EF918F910F900BBEF5
S11311D00F900FBE0F901F9018951F920F920FB68D
S11311E00F9211240BB60F922F938F939F93EF932B
S11311F0FF939091C6009D3019F18091B501813023
S113120019F49093B40118C02EEF280F203A80F4FB
S11312102091B401233061F4E82FF0E0EB54FA4F4D
S1131220908390812091B30192279093B30104C0DD
S1131230823A11F49093B2018F5F8093B50112C08A
S11312409091B3018091B201981303C081E080931F
S1131250B6011092B5011092B4018BEB8093B201E8
S11312601092B301FF91EF919F918F912F910F9065
S11312700BBE0F900FBE0F901F9018951F920F92E8
S11312800FB60F9211240BB60F922F938F939F9347
S1131290EF93FF93E091B101E03AB0F4F0E0E05055
S11312A0FF4F80818093C6008091B101E82FF0E068
S11312B0E050FF4F90812091B00192279093B001AC
S11312C08F5F8093B1011DC0E03A51F48091B00169
S11312D08093C6008091B1018F5F8093B10111C0EA
S11312E0E13A49F48DE08093C6008091B1018F5FAB
S11312F08093B10106C01092B0011092B101109216
S1131300B601FF91EF919F918F912F910F900BBE9A
S11313100F900FBE0F901F9018951F920F920FB64B
S11313200F9211240BB60F922F938F939F93EF93E9
S1131330FF939091CE009D3019F18091AF018130DF
S113134019F49093AE0118C02EEF280F203A80F4C0
S11313502091AE01233061F4E82FF0E0EB54FA4F12
S1131360908390812091AD0192279093AD0104C0A8
S1131370823A11F49093AC018F5F8093AF0112C055
S11313809091AD018091AC01981303C081E08093EA
S1131390B6011092AF011092AE018BEB8093AC01B9
S11313A01092AD01FF91EF919F918F912F910F902A
S11313B00BBE0F900FBE0F901F9018951F920F92A7
S11313C00FB60F9211240BB60F922F938F939F9306
S11313D0EF93FF93E091AB01E03AB0F4F0E0E0501A
S11313E0FF4F80818093CE008091AB01E82FF0E025
S11313F0E050FF4F90812091AA0192279093AA0177
S11314008F5F8093AB011DC0E03A51F48091AA0133
S11314108093CE008091AB018F5F8093AB0111C0AC
S1131420E13A49F48DE08093CE008091AB018F5F67
S11314308093AB0106C01092AA011092AB011092E6
S1131440B601FF91EF919F918F912F910F900BBE59
S11314500F900FBE0F901F901895E0ECF0E0808184
S1131460808388ED8093C10086E08093C20010924F
S1131470C50081E08093C40008950E94510A0C9431
S1131480320B0E942B0B58F00E94240B40F029F4DD
S11314905F3F29F00C941B0B51110C94660B0C94B8
S11314A0210B0E94430B68F39923B1F3552391F365
S11314B0951B550BBB27AA2762177307840738F0BF
S11314C09F5F5F4F220F331F441FAA1FA9F335D01C
S11314D00E2E3AF0E0E832D091505040E695001CD0
S11314E0CAF72BD0FE2F29D0660F771F881FBB1F8A
S11314F0261737074807AB07B0E809F0BB0B802D68
S1131500BF01FF2793585F4F3AF09E3F510578F093
S11315100C941B0B0C94660B5F3FE4F3983ED4F3DE
S1131520869577956795B795F7959F5FC9F7880F67
S1131530911D9695879597F90895E1E0660F771FB9
S1131540881FBB1F621773078407BA0720F0621B4A
S1131550730B840BBA0BEE1F88F7E09508950E9475
S11315604B0B88F09F5798F0B92F9927B751B0F0DB
S1131570E1F0660F771F881F991F1AF0BA95C9F713
S113158014C0B13091F00E94650BB1E008950C9441
S1131590650B672F782F8827B85F39F0B93FCCF3F4
S11315A0869577956795B395D9F73EF49095809590
S11315B0709561957F4F8F4F9F4F0895E89409C0B0
S11315C097FB3EF490958095709561957F4F8F4F72
S11315D09F4F9923A9F0F92F96E9BB279395F69588
S11315E0879577956795B795F111F8CFFAF4BB0F06
S11315F011F460FF1BC06F5F7F4F8F4F9F4F16C06A
S1131600882311F096E911C0772321F09EE8872FF3
S1131610762F05C0662371F096E8862F70E060E0AF
S11316202AF09A95660F771F881FDAF7880F969528
S1131630879597F9089597F99F6780E870E060E0CF
S113164008959FEF80EC089500240A941616170657
S113165018060906089500240A941216130614069F
S113166005060895092E0394000C11F4882352F002
S1131670BB0F40F4BF2B11F460FF04C06F5F7F4FBA
S11316808F4F9F4F089557FD9058440F551F59F0A1
S11316905F3F71F04795880F97FB991F61F09F3F5B
S11316A079F087950895121613061406551FF2CF84
S11316B04695F1DF08C0161617061806991FF1CFD4
S11316C086957105610508940895E894BB276627FB
S11316D07727CB0197F908950E947F0B0C94320B66
S11316E00E94240B38F00E942B0B20F0952311F05C
S11316F00C941B0B0C94210B11240C94660B0E946C
S1131700430B70F3959FC1F3950F50E0551F629FF3
S1131710F001729FBB27F00DB11D639FAA27F00D46
S1131720B11DAA1F649F6627B00DA11D661F829F6D
S11317302227B00DA11D621F739FB00DA11D621F52
S1131740839FA00D611D221F749F3327A00D611D6F
S1131750231F849F600D211D822F762F6A2F112451
S11317609F5750409AF0F1F088234AF0EE0FFF1F84
S1131770BB1F661F771F881F91505040A9F79E3FDB
S1131780510580F00C941B0B0C94660B5F3FE4F343
S1131790983ED4F3869577956795B795F795E79531
S11317A09F5FC1F7FE2B880F911D9695879597F93A
S10917B00895F894FFCF38
S11317B644696520446174656E2077657264656E5C
S11317C620616C732073657269656C6C6572206444
S11317D669676974616C657220446174656E7374BB
S11317E6726F6D206D69742065696E656D2066691A
S11317F678656E205261686D656E20C3BC62657241
S113180674726167656E2C2064657220617573203D
S113181665696E656D2053746172742D4269742C0A
S11318262066C3BC6E6620626973206D6178696D3B
S1131836616C206E65756E20446174656E626974B0
S1131846732E0000000000000000000000000000ED
S9030B1AD7
