S00B00003030312E7372656388
S113000082C300009DC300009BC3000099C300008D
S113001097C3000095C3000093C3000091C3000080
S11300208FC30000F1C600008BC3000089C3000029
S113003087C3000085C3000083C3000081C30000A0
S11300407FC300007DC300007BC3000079C30000B0
S113005019C7000042C7000073C3000071C3000049
S11300606FC300006DC300006BC3000069C30000D0
S113007067C3000065C3000063C3000061C30000E0
S11300805FC300005DC300005BC30000202020208C
S113009020204B487A005468652046726571756566
S11300A06E6365206973742020200D0A0A0057616D
S11300B06E672053686968616E670D0A005A68614B
S11300C06E67205975650D0A004C69205875656A7C
S11300D0696E670D0A004D656D626572733A0D0AAB
S11300E0004444532D5369676E616C67656E657295
S11300F061746F720D0A0050726F6A656374203008
S1130100343A0D0A00000000000000003E4551454D
S11301103E003E6B6F6B3E001C3E7C3E1C00183C58
S11301207E3C180030367F363000185C7E5C180048
S113013000000000000000000000000000000000BB
S1130140000000000000000030484A360E00062976
S113015079290600000000000000607E0A353F0097
S11301602A1C361C2A00007F3E1C0800081C3E7F07
S1130170000014367F361400005F005F000006099B
S11301807F017F00224D55592200606060600000AD
S113019014B6FFB6140004067F06040010307F3046
S11301A0100008083E1C0800081C3E08080078409F
S11301B040404000083E083E0800303C3F3C3000D0
S11301C0030F3F0F030000000000000000065F065D
S11301D00000070300070300247E247E2400242B50
S11301E06A12000063130864630036495620500005
S11301F0000703000000003E4100000000413E00F3
S11302000000083E1C3E080008083E08080000E004
S11302106000000008080808080000606000000092
S11302202010080402003E5149453E0000427F4030
S113023000006251494946002249494936001814D0
S1130240127F10002F49494931003C4A4949300086
S1130250017109050300364949493600064949290F
S11302601E00006C6C00000000EC6C000000081420
S113027022410000242424242400004122140800E4
S11302800201590906003E415D551E007E111111FF
S11302907E007F49494936003E41414122007F4169
S11302A041413E007F49494941007F090909010054
S11302B03E4149497A007F0808087F0000417F4198
S11302C00000304040403F007F08142241007F403E
S11302D0404040007F0204027F007F0204087F0048
S11302E03E4141413E007F09090906003E4151213A
S11302F05E007F0909196600264949493200010157
S11303007F0101003F4040403F001F2040201F006C
S11303103F403C403F006314081463000708700822
S11303200700714945430000007F41410000020479
S1130330081020000041417F0000040201020480F3
S11303408080808080000003070000002054545403
S113035078007F44444438003844444428003844F6
S113036044447F00385454540800087E09090000AE
S113037018A4A4A47C007F040478000000007D403D
S113038000004080847D00007F10284400000000AD
S11303907F4000007C04180478007C04047800008A
S11303A0384444443800FC44444438003844444409
S11303B0FC00447844040800085454542000043ECB
S11303C0442400003C40207C00001C2040201C00F1
S11303D03C6030603C006C10106C00009CA0603CE1
S11303E000006454544C0000083E414100000000E9
S11303F0770000000041413E0800020102010000B4
S11304003C2623263C001EA1E12112003D40207D14
S1130410000038545455090020555555780020558E
S11304205455780020555554780020575557780076
S11304301CA2E2221400385555550800385554556D
S1130440080038555554080000017C4100000001A3
S11304507D41000000017C400000702924297000C7
S1130460782F252F78007C545455450034547C54FF
S113047058007E097F494900384545390000384510
S1130480443900003945443800003C41217D0000D6
S11304903D41207C00009CA1603D00003D42423D66
S11304A000003C41403D0080706858380400483EDC
S11304B0494962007E615D433F0022140814220012
S11304C040887E09020020545555780000007D4183
S11304D000003844453900003C40217D00007A0981
S11304E00A7100007A1122790000085555555E0002
S11304F04E51514E000030484D40203E415D4B5519
S11305003E04040404041C0017084C6A5000170835
S1130510342A780000307D300000081400081400EC
S11305201408001408441144114411AA55AA55AAE8
S113053055BBEEBBEEBBEE000000FF000008080850
S1130540FF000000702825297000702925297000FB
S113055070292528703E415D55413E0AFB00FF008D
S11305600000FF00FF00000AFA02FE00000A0B0868
S11305700F000000182466240000292A7C2A290878
S11305800808F800000000000F08080808080F0811
S113059008080808F80808000000FF080808080808
S11305A0080808080808FF0808002056555679006E
S11305B0702A252A71000F080B0A0A00FE02FA0AA3
S11305C00A0A0B080B0A0A0AFA02FA0A0A00FF00CE
S11305D0FB0A0A0A0A0A0A0A0A0AFB00FB0A0A00B8
S11305E05D2222225D00225559300000087F4941D6
S11305F03E007C55555544007C55545544007C556B
S11306005554440000000700000000447D450000EC
S113061000457D45000000457C45000808080F00A2
S113062000000000F80808FFFFFFFFFFFFF0F0F0F4
S1130630F0F0F00000007700000000457D44000F5A
S11306400F0F0F0F0F003C42433D0000FE4A4A3497
S113065000003C43433D00003D43423C000032491E
S11306604A3100003A4546390000FC20201C0000B5
S1130670FEAA28100000FFA5241800003C40413DBC
S113068000003C41413D00003D41403C00009CA035
S1130690613D000004087109040000020202000028
S11306A000070300000000080808000000242E24AE
S11306B00000242424242405170A342A7800060977
S11306C07F017F00224D5559220008082A0808009E
S11306D000081818000006090906000000080008B0
S11306E00000000800000000020F00000000090FD5
S11306F005000000090D0A0000003C3C3C3C0000E1
S113070000000000000011241FBECFEFD0E4DEBFC4
S1130710CDBF11E0A0E0B1E0E8EBF2E100E00BBFF7
S113072002C007900D92A430B107D9F725E0A4E0E8
S1130730B1E001C01D92AA36B207E1F7E9D0BAC50B
S11307405FCC85E1CED287EF90E080D281EE90E05D
S11307507DD286ED90E07AD289EC90E077D28DEB71
S113076090E074D28EEA90E071D2B7D167E084E170
S11307707ED280E113D2B1D10399FECF039BFECF89
S11307802FEF89EF90E0215080409040E1F700C0C6
S113079000000399FECF08958AB18C658AB98BB1A4
S11307A0837A8BB908958BB1877E8BB95E988AE181
S11307B08A95F1F700C05E9A8AE18A95F1F700C044
S11307C05E988AE18A95F1F700C05B988AE18A9580
S11307D0F1F700C05B9A8AE18A95F1F700C05B9853
S11307E08AE18A95F1F700C05A985C988AE18A9563
S11307F0F1F700C05C9A8AE18A95F1F700C05C9831
S11308008AE18A95F1F700C0089520E030E04AE7D4
S113081054E498D32FE632E143E05CE4B5D4FAD350
S11308205C9828E030E060FF02C05A9A01C05A98F0
S11308305B9A5B98669521503109A9F728E030E06E
S113084070FF02C05A9A01C05A985B9A5B987695D9
S113085021503109A9F728E030E080FF02C05A9AFC
S113086001C05A985B9A5B98869586952150310908
S1130870A1F728E030E090FF02C05A9A01C05A98CC
S11308805B9A5B98969521503109A9F788E090E02E
S11308905A985B9A5B980197D9F75C9A8AE18A9592
S11308A0F1F700C05C980895CF93DF93CDB7DEB71E
S11308B0A0970FB6F894DEBF0FBECDBF59D180E12B
S11308C010D260E080E0D3D186E990E0BFD14AE065
S11308D0BE016F5F7F4F8091000190910101B7D4F9
S11308E0CE010196A5D18CE890E0B0D180E156D13B
S11308F0F4D08FE39CE90197F1F700C00000A096C3
S11309000FB6F894DEBF0FBECDBFDF91CF9108952F
S113091081B1877081B982B1886F82B98FE084B95F
S113092085B18F6085B9B9D191D20BDF35DF3BDF5B
S1130930079914C08091000190910101A0910201D6
S1130940B091030188519C4FAF4FBF4F809300017A
S113095090930101A0930201B09303012FEF81EE64
S113096094E0215080409040E1F700C000000699D7
S113097014C08091000190910101A0910201B091F5
S11309800301885E9340A109B1098093000190930B
S11309900101A0930201B09303012FEF81EE94E0D3
S11309A0215080409040E1F700C00000059914C038
S11309B08091000190910101A0910201B091030185
S11309C084569109A109B109809300019093010112
S11309D0A0930201B09303012FEF89EF90E021501F
S11309E080409040E1F700C00000049914C0809159
S11309F0000190910101A0910201B09103018C5971
S1130A009F4FAF4FBF4F8093000190930101A0937C
S1130A100201B09303012FEF81EE94E02150804056
S1130A209040E1F700C00000609100017091010165
S1130A30809102019091030119D3E7DE35DF78CF6D
S1130A40249A2C9A5AC10895FC01A281B3819D0174
S1130A502F5F3F4F8C919681915019F49181291BFE
S1130A6031093383228396832FB7F8949081915070
S1130A7090832FBF0895FC01108275836483738370
S1130A8062834183478346830895FC0120812223A6
S1130A9019F0DADF90E008958FEF9FEF0895FC01DD
S1130AA0908181819817B8F4A481B5819D012F5F4D
S1130AB03F4F6C938781815019F48181281B310940
S1130AC08783358324839FB7F89480818F5F8083E5
S1130AD09FBF81E0089580E00895BF92CF92DF9296
S1130AE0EF92FF920F931F93CF93DF93BFB6F894C7
S1130AF00AE015E00F2EFAE0CF2EF1E0DF2EF02D04
S1130B000F2EF7E0EF2EF12CF02D8091060190E0EE
S1130B100E2C02C0959587950A94E2F780FF13C0C6
S1130B20469847988E2D806BFAD080E1F8D080E00B
S1130B30F6D0479AE801C058D1098991F0D0C0177E
S1130B40D107D9F7469A81E0E81AF108005811094B
S1130B500C151D05D1F610920601BFBEDF91CF9191
S1130B601F910F91FF90EF90DF90CF90BF90089569
S1130B70EAE0F1E02AE035E008C01192E817F9074D
S1130B80E1F7FC018217930721F0CF0180589F4FB2
S1130B90F4CF8FEF80930601A0CF08958A3029F017
S1130BA08D3061F41092050108958091040187301D
S1130BB008F03DC08F5F80930401089590E0FC012C
S1130BC0EE0FFF1FE80FF91FEE0FFF1FEB5FFE4F45
S1130BD08091050190E0DC01AA0FBB1FA80FB91F8B
S1130BE0AA0FBB1F8091040190E8899FA00DB11D3D
S1130BF01124A65FBE4F80E094919D938F5F319640
S1130C008630D1F781E090E00090040102C0880FA3
S1130C10991F0A94E2F790910601892B80930601AB
S1130C2080910501843118F48F5F80930501089544
S1130C30CF93DF93EC018881882329F08991AEDF7B
S1130C4088818111FBCFDF91CF910895CF93DF93FA
S1130C50FC018491EF012196882331F09FDFFE018E
S1130C60849121968111FACFDF91CF9108958093D9
S1130C7005016093040108956BD084EC84D081E174
S1130C809FD080E09DD080E09BD080E099D080E030
S1130C9097D080E095D0B1C00895CF932ED087B17E
S1130CA0806C87B9CFB7F8944798469882EE37D0CE
S1130CB083EA35D081E833D088E031D080EA2FD080
S1130CC088EC2DD085E22BD08FE229D08FEA27D073
S1130CD0469A479A4DDFCFBF27D0CEDFB1DECF9102
S1130CE00895CF93C82F34D084EC4DD085E168D0DB
S1130CF08C2F66D082D0CF9108958091070180FD1A
S1130D000DC084B1806A84B980E58CBD81E08DBD5D
S1130D1081E090E0909308018093070108958EBDCF
S1130D200DB407FEFDCF089587B18C7F87B988B1D4
S1130D30836088B983E08093B80087E08093B10032
S1130D4082E0809370008DE78093B30078940895D7
S1130D508AE08093090184EA8093BC00ECEBF0E024
S1130D6080910901882319F080818823CCF7809130
S1130D700901882329F08091B900887F90E00895C3
S1130D808FEF9FEF08959AE0909309018093BB0041
S1130D9084E88093BC00ECEBF0E0809109018823A7
S1130DA019F080818823CCF780910901882329F0E8
S1130DB08091B900887F90E008958FEF9FEF0895A8
S1130DC09AE0909309018093BB0084E88093BC006F
S1130DD0ECEBF0E080910901882319F080818823ED
S1130DE0CCF780910901882329F08091B900887F8C
S1130DF090E008958FEF9FEF08958AE080930901B2
S1130E0084E98093BC0008951F920F920FB60F924D
S1130E1011240BB60F928F93EF93FF93E3EBF0E063
S1130E2080818358808380910901882329F08091EF
S1130E300901815080930901FF91EF918F910F90E7
S1130E400BBE0F900FBE0F901F9018958FB7F8949C
S1130E5027E630E03093C5002093C40098E99093CE
S1130E60C10090EC9093C0008FBF40E16AE575E04B
S1130E7082E595E000DE40E462E175E08AE095E019
S1130E80FACD08951F920F920FB60F9211240BB64C
S1130E900F922F933F934F935F936F937F938F930F
S1130EA09F93AF93BF93EF93FF936091C60082E546
S1130EB095E0F5DDFF91EF91BF91AF919F918F91F7
S1130EC07F916F915F914F913F912F910F900BBE46
S1130ED00F900FBE0F901F9018951F920F920FB690
S1130EE00F9211240BB60F922F933F934F935F935E
S1130EF06F937F938F939F93AF93BF93EF93FF93DE
S1130F0080910A05882331F08AE095E0BEDD809364
S1130F10C60005C0E1ECF0E080818F7D8083FF9105
S1130F20EF91BF91AF919F918F917F916F915F915D
S1130F304F913F912F910F900BBE0F900FBE0F90CA
S1130F401F9018950CD0E6C0DED040F0D5D030F01C
S1130F5021F45F3F19F0C7C0511110C1CAC0EBD0D2
S1130F6098F39923C9F35523B1F3951B550BBB276C
S1130F70AA2762177307840738F09F5F5F4F220F19
S1130F80331F441FAA1FA9F333D00E2E3AF0E0E812
S1130F9030D091505040E695001CCAF729D0FE2F5E
S1130FA027D0660F771F881FBB1F261737074807F0
S1130FB0AB07B0E809F0BB0B802DBF01FF279358A6
S1130FC05F4F2AF09E3F510568F08DC0D7C05F3F48
S1130FD0ECF3983EDCF3869577956795B795F7958E
S1130FE09F5FC9F7880F911D9695879597F9089586
S1130FF0E1E0660F771F881FBB1F62177307840722
S1131000BA0720F0621B730B840BBA0BEE1F88F730
S1131010E095089598D088F09F5790F0B92F9927BC
S1131020B751A0F0D1F0660F771F881F991F1AF0EF
S1131030BA95C9F712C0B13081F09FD0B1E00895DC
S11310409CC0672F782F8827B85F39F0B93FCCF35D
S1131050869577956795B395D9F73EF490958095E5
S1131060709561957F4F8F4F9F4F0895E89409C005
S113107097FB3EF490958095709561957F4F8F4FC7
S11310809F4F9923A9F0F92F96E9BB279395F695DD
S1131090879577956795B795F111F8CFFAF4BB0F5B
S11310A011F460FF1BC06F5F7F4F8F4F9F4F16C0BF
S11310B0882311F096E911C0772321F09EE8872F49
S11310C0762F05C0662371F096E8862F70E060E005
S11310D02AF09A95660F771F881FDAF7880F96957E
S11310E0879597F9089597F99F6780E870E060E025
S11310F008959FEF80EC089500240A9416161706AD
S113110018060906089500240A94121613061406F4
S113111005060895092E0394000C11F4882352F057
S1131120BB0F40F4BF2B11F460FF04C06F5F7F4F0F
S11311308F4F9F4F089557FD9058440F551F59F0F6
S11311405F3F71F04795880F97FB991F61F09F3FB0
S113115079F087950895121613061406551FF2CFD9
S11311604695F1DF08C0161617061806991FF1CF29
S113117086957105610508940895E894BB27662750
S11311807727CB0197F908950BD0C4CFB5DF28F0AA
S1131190BADF18F0952309F0A6CFABCF1124EECF18
S11311A0CADFA0F3959FD1F3950F50E0551F629FBE
S11311B0F001729FBB27F00DB11D639FAA27F00DAC
S11311C0B11DAA1F649F6627B00DA11D661F829FD3
S11311D02227B00DA11D621F739FB00DA11D621FB8
S11311E0839FA00D611D221F749F3327A00D611DD5
S11311F0231F849F600D211D822F762F6A2F1124B7
S11312009F5750408AF0E1F088234AF0EE0FFF1F09
S1131210BB1F661F771F881F91505040A9F79E3F40
S1131220510570F060CFAACF5F3FECF3983EDCF33A
S1131230869577956795B795F795E7959F5FC1F77D
S1131240FE2B880F911D9695879597F90895BB27D6
S11312504A3031F4992322F4BDE2909581959F4F51
S113126001C0BB27FB015527AA27880F991FAA1F76
S1131270A41710F0A41B83955051B9F7A05DAA33AD
S113128008F0A95DA193009779F7B111B193119278
S1131290CB0100C0DC01FC01672F71917723E1F7DA
S11312A0329704C07C916D9370836291AE17BF072F
S10B12B0C8F30895F894FFCF80
S10712B810270000F7
S9030742B3
